{
  "_format": "hh-sol-artifact-1",
  "contractName": "SNRGSwap",
  "sourceName": "contracts/SNRGswap.sol",
  "abi": [
    {
      "inputs": [
        {
          "internalType": "address",
          "name": "_snrg",
          "type": "address"
        },
        {
          "internalType": "address",
          "name": "owner_",
          "type": "address"
        }
      ],
      "stateMutability": "nonpayable",
      "type": "constructor"
    },
    {
      "inputs": [
        {
          "internalType": "address",
          "name": "owner",
          "type": "address"
        }
      ],
      "name": "OwnableInvalidOwner",
      "type": "error"
    },
    {
      "inputs": [
        {
          "internalType": "address",
          "name": "account",
          "type": "address"
        }
      ],
      "name": "OwnableUnauthorizedAccount",
      "type": "error"
    },
    {
      "inputs": [],
      "name": "ReentrancyGuardReentrantCall",
      "type": "error"
    },
    {
      "anonymous": false,
      "inputs": [
        {
          "indexed": true,
          "internalType": "address",
          "name": "user",
          "type": "address"
        },
        {
          "indexed": false,
          "internalType": "uint256",
          "name": "amount",
          "type": "uint256"
        }
      ],
      "name": "Burned",
      "type": "event"
    },
    {
      "anonymous": false,
      "inputs": [
        {
          "indexed": false,
          "internalType": "bytes32",
          "name": "merkleRoot",
          "type": "bytes32"
        }
      ],
      "name": "Finalized",
      "type": "event"
    },
    {
      "anonymous": false,
      "inputs": [
        {
          "indexed": true,
          "internalType": "address",
          "name": "previousOwner",
          "type": "address"
        },
        {
          "indexed": true,
          "internalType": "address",
          "name": "newOwner",
          "type": "address"
        }
      ],
      "name": "OwnershipTransferred",
      "type": "event"
    },
    {
      "inputs": [
        {
          "internalType": "uint256",
          "name": "amount",
          "type": "uint256"
        }
      ],
      "name": "burnForReceipt",
      "outputs": [],
      "stateMutability": "nonpayable",
      "type": "function"
    },
    {
      "inputs": [
        {
          "internalType": "address",
          "name": "",
          "type": "address"
        }
      ],
      "name": "burned",
      "outputs": [
        {
          "internalType": "uint256",
          "name": "",
          "type": "uint256"
        }
      ],
      "stateMutability": "view",
      "type": "function"
    },
    {
      "inputs": [
        {
          "internalType": "bytes32",
          "name": "_merkleRoot",
          "type": "bytes32"
        }
      ],
      "name": "finalize",
      "outputs": [],
      "stateMutability": "nonpayable",
      "type": "function"
    },
    {
      "inputs": [],
      "name": "finalized",
      "outputs": [
        {
          "internalType": "bool",
          "name": "",
          "type": "bool"
        }
      ],
      "stateMutability": "view",
      "type": "function"
    },
    {
      "inputs": [],
      "name": "merkleRoot",
      "outputs": [
        {
          "internalType": "bytes32",
          "name": "",
          "type": "bytes32"
        }
      ],
      "stateMutability": "view",
      "type": "function"
    },
    {
      "inputs": [],
      "name": "owner",
      "outputs": [
        {
          "internalType": "address",
          "name": "",
          "type": "address"
        }
      ],
      "stateMutability": "view",
      "type": "function"
    },
    {
      "inputs": [],
      "name": "renounceOwnership",
      "outputs": [],
      "stateMutability": "nonpayable",
      "type": "function"
    },
    {
      "inputs": [],
      "name": "snrg",
      "outputs": [
        {
          "internalType": "contract IBurnable",
          "name": "",
          "type": "address"
        }
      ],
      "stateMutability": "view",
      "type": "function"
    },
    {
      "inputs": [
        {
          "internalType": "address",
          "name": "newOwner",
          "type": "address"
        }
      ],
      "name": "transferOwnership",
      "outputs": [],
      "stateMutability": "nonpayable",
      "type": "function"
    }
  ],
  "bytecode": "0x60a060405234801561001057600080fd5b5060405161078738038061078783398101604081905261002f9161012a565b806001600160a01b03811661005f57604051631e4fbdf760e01b8152600060048201526024015b60405180910390fd5b610068816100be565b50600180556001600160a01b0382166100ac5760405162461bcd60e51b81526020600482015260066024820152650736e72673d360d41b6044820152606401610056565b506001600160a01b031660805261015d565b600080546001600160a01b038381166001600160a01b0319831681178455604051919092169283917f8be0079c531659141344cd1fd0a4f28419497f9722a3daafe3b4186f6b6457e09190a35050565b80516001600160a01b038116811461012557600080fd5b919050565b6000806040838503121561013d57600080fd5b6101468361010e565b91506101546020840161010e565b90509250929050565b6080516106026101856000396000818160b9015281816102d0015261039701526106026000f3fe608060405234801561001057600080fd5b50600436106100935760003560e01c806392584d801161006657806392584d801461010e578063a7509b8314610121578063b3f05b9714610141578063f0889d401461015e578063f2fde38b1461017157600080fd5b80632eb4a7ab146100985780633ce499b4146100b4578063715018a6146100f35780638da5cb5b146100fd575b600080fd5b6100a160035481565b6040519081526020015b60405180910390f35b6100db7f000000000000000000000000000000000000000000000000000000000000000081565b6040516001600160a01b0390911681526020016100ab565b6100fb610184565b005b6000546001600160a01b03166100db565b6100fb61011c366004610543565b610198565b6100a161012f36600461055c565b60046020526000908152604090205481565b60025461014e9060ff1681565b60405190151581526020016100ab565b6100fb61016c366004610543565b610231565b6100fb61017f36600461055c565b610461565b61018c61049c565b61019660006104c9565b565b6101a061049c565b60025460ff16156101e25760405162461bcd60e51b8152602060048201526007602482015266616c726561647960c81b60448201526064015b60405180910390fd5b6002805460ff1916600117905560038190556040517fd5eaff5f7e00ea5a32e32c0121393190de285e9424ce5485cd0b0a51d6b77d62906102269083815260200190565b60405180910390a150565b610239610519565b60025460ff16156102785760405162461bcd60e51b8152602060048201526009602482015268199a5b985b1a5e995960ba1b60448201526064016101d9565b600081116102b35760405162461bcd60e51b81526020600482015260086024820152670616d6f756e743d360c41b60448201526064016101d9565b604051636eb1769f60e11b815233600482015230602482015281907f00000000000000000000000000000000000000000000000000000000000000006001600160a01b03169063dd62ed3e90604401602060405180830381865afa15801561031f573d6000803e3d6000fd5b505050506040513d601f19601f82011682018060405250810190610343919061058c565b101561037b5760405162461bcd60e51b8152602060048201526007602482015266617070726f766560c81b60448201526064016101d9565b60405163079cc67960e41b8152336004820152602481018290527f00000000000000000000000000000000000000000000000000000000000000006001600160a01b0316906379cc679090604401600060405180830381600087803b1580156103e357600080fd5b505af11580156103f7573d6000803e3d6000fd5b5050336000908152600460205260408120805485945090925061041b9084906105a5565b909155505060405181815233907f696de425f79f4a40bc6d2122ca50507f0efbeabbff86a84871b7196ab8ea8df79060200160405180910390a261045e60018055565b50565b61046961049c565b6001600160a01b03811661049357604051631e4fbdf760e01b8152600060048201526024016101d9565b61045e816104c9565b6000546001600160a01b031633146101965760405163118cdaa760e01b81523360048201526024016101d9565b600080546001600160a01b038381166001600160a01b0319831681178455604051919092169283917f8be0079c531659141344cd1fd0a4f28419497f9722a3daafe3b4186f6b6457e09190a35050565b60026001540361053c57604051633ee5aeb560e01b815260040160405180910390fd5b6002600155565b60006020828403121561055557600080fd5b5035919050565b60006020828403121561056e57600080fd5b81356001600160a01b038116811461058557600080fd5b9392505050565b60006020828403121561059e57600080fd5b5051919050565b808201808211156105c657634e487b7160e01b600052601160045260246000fd5b9291505056fea264697066735822122031fc60013574126501a4c79873602be9e8c631971ccac1b04bb352f43924076b64736f6c634300081a0033",
  "linkReferences": {},
  "deployedLinkReferences": {}
}