{
  "_format": "hh3-artifact-1",
  "contractName": "SNRGSwap",
  "sourceName": "contracts/SNRGswap.sol",
  "abi": [
    {
      "inputs": [
        {
          "internalType": "address",
          "name": "_SNRG",
          "type": "address"
        },
        {
          "internalType": "address",
          "name": "owner_",
          "type": "address"
        }
      ],
      "stateMutability": "nonpayable",
      "type": "constructor"
    },
    {
      "inputs": [],
      "name": "AlreadyFinalized",
      "type": "error"
    },
    {
      "inputs": [],
      "name": "AlreadyFinalizedError",
      "type": "error"
    },
    {
      "inputs": [],
      "name": "EnforcedPause",
      "type": "error"
    },
    {
      "inputs": [],
      "name": "ExpectedPause",
      "type": "error"
    },
    {
      "inputs": [
        {
          "internalType": "address",
          "name": "owner",
          "type": "address"
        }
      ],
      "name": "OwnableInvalidOwner",
      "type": "error"
    },
    {
      "inputs": [
        {
          "internalType": "address",
          "name": "account",
          "type": "address"
        }
      ],
      "name": "OwnableUnauthorizedAccount",
      "type": "error"
    },
    {
      "inputs": [],
      "name": "ReentrancyGuardReentrantCall",
      "type": "error"
    },
    {
      "inputs": [],
      "name": "ZeroAddress",
      "type": "error"
    },
    {
      "inputs": [],
      "name": "ZeroAmount",
      "type": "error"
    },
    {
      "inputs": [],
      "name": "ZeroMerkleRoot",
      "type": "error"
    },
    {
      "anonymous": false,
      "inputs": [
        {
          "indexed": true,
          "internalType": "address",
          "name": "user",
          "type": "address"
        },
        {
          "indexed": false,
          "internalType": "uint256",
          "name": "amount",
          "type": "uint256"
        }
      ],
      "name": "Burned",
      "type": "event"
    },
    {
      "anonymous": false,
      "inputs": [
        {
          "indexed": false,
          "internalType": "bytes32",
          "name": "merkleRoot",
          "type": "bytes32"
        }
      ],
      "name": "Finalized",
      "type": "event"
    },
    {
      "anonymous": false,
      "inputs": [
        {
          "indexed": true,
          "internalType": "address",
          "name": "previousOwner",
          "type": "address"
        },
        {
          "indexed": true,
          "internalType": "address",
          "name": "newOwner",
          "type": "address"
        }
      ],
      "name": "OwnershipTransferStarted",
      "type": "event"
    },
    {
      "anonymous": false,
      "inputs": [
        {
          "indexed": true,
          "internalType": "address",
          "name": "previousOwner",
          "type": "address"
        },
        {
          "indexed": true,
          "internalType": "address",
          "name": "newOwner",
          "type": "address"
        }
      ],
      "name": "OwnershipTransferred",
      "type": "event"
    },
    {
      "anonymous": false,
      "inputs": [
        {
          "indexed": false,
          "internalType": "address",
          "name": "account",
          "type": "address"
        }
      ],
      "name": "Paused",
      "type": "event"
    },
    {
      "anonymous": false,
      "inputs": [
        {
          "indexed": false,
          "internalType": "address",
          "name": "account",
          "type": "address"
        }
      ],
      "name": "Unpaused",
      "type": "event"
    },
    {
      "inputs": [],
      "name": "SNRG",
      "outputs": [
        {
          "internalType": "contract IBurnable",
          "name": "",
          "type": "address"
        }
      ],
      "stateMutability": "view",
      "type": "function"
    },
    {
      "inputs": [],
      "name": "acceptOwnership",
      "outputs": [],
      "stateMutability": "nonpayable",
      "type": "function"
    },
    {
      "inputs": [
        {
          "internalType": "uint256",
          "name": "amount",
          "type": "uint256"
        }
      ],
      "name": "burnForReceipt",
      "outputs": [],
      "stateMutability": "nonpayable",
      "type": "function"
    },
    {
      "inputs": [
        {
          "internalType": "address",
          "name": "",
          "type": "address"
        }
      ],
      "name": "burned",
      "outputs": [
        {
          "internalType": "uint256",
          "name": "",
          "type": "uint256"
        }
      ],
      "stateMutability": "view",
      "type": "function"
    },
    {
      "inputs": [
        {
          "internalType": "bytes32",
          "name": "_merkleRoot",
          "type": "bytes32"
        }
      ],
      "name": "finalize",
      "outputs": [],
      "stateMutability": "nonpayable",
      "type": "function"
    },
    {
      "inputs": [],
      "name": "finalized",
      "outputs": [
        {
          "internalType": "bool",
          "name": "",
          "type": "bool"
        }
      ],
      "stateMutability": "view",
      "type": "function"
    },
    {
      "inputs": [
        {
          "internalType": "address",
          "name": "user",
          "type": "address"
        }
      ],
      "name": "getBurnedAmount",
      "outputs": [
        {
          "internalType": "uint256",
          "name": "",
          "type": "uint256"
        }
      ],
      "stateMutability": "view",
      "type": "function"
    },
    {
      "inputs": [],
      "name": "merkleRoot",
      "outputs": [
        {
          "internalType": "bytes32",
          "name": "",
          "type": "bytes32"
        }
      ],
      "stateMutability": "view",
      "type": "function"
    },
    {
      "inputs": [],
      "name": "owner",
      "outputs": [
        {
          "internalType": "address",
          "name": "",
          "type": "address"
        }
      ],
      "stateMutability": "view",
      "type": "function"
    },
    {
      "inputs": [],
      "name": "pause",
      "outputs": [],
      "stateMutability": "nonpayable",
      "type": "function"
    },
    {
      "inputs": [],
      "name": "paused",
      "outputs": [
        {
          "internalType": "bool",
          "name": "",
          "type": "bool"
        }
      ],
      "stateMutability": "view",
      "type": "function"
    },
    {
      "inputs": [],
      "name": "pendingOwner",
      "outputs": [
        {
          "internalType": "address",
          "name": "",
          "type": "address"
        }
      ],
      "stateMutability": "view",
      "type": "function"
    },
    {
      "inputs": [],
      "name": "renounceOwnership",
      "outputs": [],
      "stateMutability": "nonpayable",
      "type": "function"
    },
    {
      "inputs": [
        {
          "internalType": "address",
          "name": "newOwner",
          "type": "address"
        }
      ],
      "name": "transferOwnership",
      "outputs": [],
      "stateMutability": "nonpayable",
      "type": "function"
    },
    {
      "inputs": [],
      "name": "unpause",
      "outputs": [],
      "stateMutability": "nonpayable",
      "type": "function"
    }
  ],
  "bytecode": "0x60a060405234801561001057600080fd5b506040516108f33803806108f383398101604081905261002f91610155565b806001600160a01b03811661005e57604051631e4fbdf760e01b81526000600482015260240160405180910390fd5b610067816100cd565b5060016002556001600160a01b0382166100945760405163d92e233d60e01b815260040160405180910390fd5b6001600160a01b0381166100bb5760405163d92e233d60e01b815260040160405180910390fd5b506001600160a01b0316608052610188565b600180546001600160a01b03191690556100e6816100e9565b50565b600080546001600160a01b038381166001600160a01b0319831681178455604051919092169283917f8be0079c531659141344cd1fd0a4f28419497f9722a3daafe3b4186f6b6457e09190a35050565b80516001600160a01b038116811461015057600080fd5b919050565b6000806040838503121561016857600080fd5b61017183610139565b915061017f60208401610139565b90509250929050565b6080516107496101aa6000396000818161014c01526103fb01526107496000f3fe608060405234801561001057600080fd5b50600436106100f55760003560e01c80638da5cb5b11610097578063dc77d12811610066578063dc77d128146101e4578063e30c39781461020d578063f0889d401461021e578063f2fde38b1461023157600080fd5b80638da5cb5b1461018e57806392584d801461019f578063a7509b83146101b2578063b3f05b97146101d257600080fd5b8063715018a6116100d3578063715018a61461013757806379ba50971461013f5780637c06d133146101475780638456cb591461018657600080fd5b80632eb4a7ab146100fa5780633f4ba83a146101165780635c975abb14610120575b600080fd5b61010360045481565b6040519081526020015b60405180910390f35b61011e610244565b005b60035460ff165b604051901515815260200161010d565b61011e610256565b61011e610268565b61016e7f000000000000000000000000000000000000000000000000000000000000000081565b6040516001600160a01b03909116815260200161010d565b61011e6102b1565b6000546001600160a01b031661016e565b61011e6101ad3660046106a3565b6102c1565b6101036101c03660046106bc565b60056020526000908152604090205481565b60035461012790610100900460ff1681565b6101036101f23660046106bc565b6001600160a01b031660009081526005602052604090205490565b6001546001600160a01b031661016e565b61011e61022c3660046106a3565b610361565b61011e61023f3660046106bc565b61049e565b61024c61050f565b61025461053c565b565b61025e61050f565b610254600061058e565b60015433906001600160a01b031681146102a55760405163118cdaa760e01b81526001600160a01b03821660048201526024015b60405180910390fd5b6102ae8161058e565b50565b6102b961050f565b6102546105a7565b6102c961050f565b600354610100900460ff16156102f25760405163475a253560e01b815260040160405180910390fd5b8061031057604051634933773160e11b815260040160405180910390fd5b6003805461ff00191661010017905560048190556040517fd5eaff5f7e00ea5a32e32c0121393190de285e9424ce5485cd0b0a51d6b77d62906103569083815260200190565b60405180910390a150565b6103696105e4565b61037161060c565b600354610100900460ff161561039a57604051634cb19d5b60e11b815260040160405180910390fd5b806000036103bb57604051631f2a200560e01b815260040160405180910390fd5b33600090815260056020526040812080548392906103da9084906106ec565b909155505060405163079cc67960e41b8152336004820152602481018290527f00000000000000000000000000000000000000000000000000000000000000006001600160a01b0316906379cc679090604401600060405180830381600087803b15801561044757600080fd5b505af115801561045b573d6000803e3d6000fd5b50506040518381523392507f696de425f79f4a40bc6d2122ca50507f0efbeabbff86a84871b7196ab8ea8df7915060200160405180910390a26102ae6001600255565b6104a661050f565b600180546001600160a01b0383166001600160a01b031990911681179091556104d76000546001600160a01b031690565b6001600160a01b03167f38d16b8cac22d99fc7c124b9cd0de2d3fa1faef420bfe791d8c362d765e2270060405160405180910390a350565b6000546001600160a01b031633146102545760405163118cdaa760e01b815233600482015260240161029c565b610544610630565b6003805460ff191690557f5db9ee0a495bf2e6ff9c91a7834c1ba4fdd244a5e8aa4e537bd38aeae4b073aa335b6040516001600160a01b03909116815260200160405180910390a1565b600180546001600160a01b03191690556102ae81610653565b6105af61060c565b6003805460ff191660011790557f62e78cea01bee320cd4e420270b5ea74000d11b0c9f74754ebdbfc544b05a2586105713390565b600280540361060657604051633ee5aeb560e01b815260040160405180910390fd5b60028055565b60035460ff16156102545760405163d93c066560e01b815260040160405180910390fd5b60035460ff1661025457604051638dfc202b60e01b815260040160405180910390fd5b600080546001600160a01b038381166001600160a01b0319831681178455604051919092169283917f8be0079c531659141344cd1fd0a4f28419497f9722a3daafe3b4186f6b6457e09190a35050565b6000602082840312156106b557600080fd5b5035919050565b6000602082840312156106ce57600080fd5b81356001600160a01b03811681146106e557600080fd5b9392505050565b8082018082111561070d57634e487b7160e01b600052601160045260246000fd5b9291505056fea26469706673582212204d279400f1623f2216c01d19623def47ed26fd0660fbd017ee41031259f8502c64736f6c634300081c0033",
  "linkReferences": {},
  "deployedLinkReferences": {},
  "immutableReferences": {
    "8429": [
      {
        "length": 32,
        "start": 332
      },
      {
        "length": 32,
        "start": 1019
      }
    ]
  },
  "inputSourceName": "project/contracts/SNRGswap.sol",
  "buildInfoId": "solc-0_8_28-08b6b21c6bafc74aa860428c088847463d5c34e9"
}