{
  "_format": "hh3-artifact-1",
  "contractName": "SNRGStaking",
  "sourceName": "contracts/SNRGstaking.sol",
  "abi": [
    {
      "inputs": [
        {
          "internalType": "address",
          "name": "_TREASURY",
          "type": "address"
        },
        {
          "internalType": "address",
          "name": "_SNRG",
          "type": "address"
        },
        {
          "internalType": "address",
          "name": "owner_",
          "type": "address"
        }
      ],
      "stateMutability": "nonpayable",
      "type": "constructor"
    },
    {
      "inputs": [],
      "name": "AlreadyFunded",
      "type": "error"
    },
    {
      "inputs": [],
      "name": "AlreadyWithdrawn",
      "type": "error"
    },
    {
      "inputs": [],
      "name": "EnforcedPause",
      "type": "error"
    },
    {
      "inputs": [],
      "name": "ExpectedPause",
      "type": "error"
    },
    {
      "inputs": [],
      "name": "FeeExceedsAmount",
      "type": "error"
    },
    {
      "inputs": [],
      "name": "InsufficientBalance",
      "type": "error"
    },
    {
      "inputs": [],
      "name": "InsufficientReservesError",
      "type": "error"
    },
    {
      "inputs": [],
      "name": "InvalidDuration",
      "type": "error"
    },
    {
      "inputs": [],
      "name": "InvalidIndex",
      "type": "error"
    },
    {
      "inputs": [],
      "name": "NotFunded",
      "type": "error"
    },
    {
      "inputs": [
        {
          "internalType": "address",
          "name": "owner",
          "type": "address"
        }
      ],
      "name": "OwnableInvalidOwner",
      "type": "error"
    },
    {
      "inputs": [
        {
          "internalType": "address",
          "name": "account",
          "type": "address"
        }
      ],
      "name": "OwnableUnauthorizedAccount",
      "type": "error"
    },
    {
      "inputs": [],
      "name": "ReentrancyGuardReentrantCall",
      "type": "error"
    },
    {
      "inputs": [
        {
          "internalType": "address",
          "name": "token",
          "type": "address"
        }
      ],
      "name": "SafeERC20FailedOperation",
      "type": "error"
    },
    {
      "inputs": [],
      "name": "StakeMatured",
      "type": "error"
    },
    {
      "inputs": [],
      "name": "StakeNotMatured",
      "type": "error"
    },
    {
      "inputs": [],
      "name": "ZeroAddress",
      "type": "error"
    },
    {
      "inputs": [],
      "name": "ZeroAmount",
      "type": "error"
    },
    {
      "anonymous": false,
      "inputs": [
        {
          "indexed": false,
          "internalType": "uint256",
          "name": "amount",
          "type": "uint256"
        }
      ],
      "name": "ContractFunded",
      "type": "event"
    },
    {
      "anonymous": false,
      "inputs": [
        {
          "indexed": true,
          "internalType": "address",
          "name": "user",
          "type": "address"
        },
        {
          "indexed": true,
          "internalType": "uint256",
          "name": "stakeIndex",
          "type": "uint256"
        },
        {
          "indexed": false,
          "internalType": "uint256",
          "name": "amount",
          "type": "uint256"
        },
        {
          "indexed": false,
          "internalType": "uint256",
          "name": "fee",
          "type": "uint256"
        }
      ],
      "name": "EmergencyWithdrawal",
      "type": "event"
    },
    {
      "anonymous": false,
      "inputs": [
        {
          "indexed": false,
          "internalType": "uint256",
          "name": "required",
          "type": "uint256"
        },
        {
          "indexed": false,
          "internalType": "uint256",
          "name": "available",
          "type": "uint256"
        }
      ],
      "name": "InsufficientReserves",
      "type": "event"
    },
    {
      "anonymous": false,
      "inputs": [
        {
          "indexed": true,
          "internalType": "address",
          "name": "previousOwner",
          "type": "address"
        },
        {
          "indexed": true,
          "internalType": "address",
          "name": "newOwner",
          "type": "address"
        }
      ],
      "name": "OwnershipTransferStarted",
      "type": "event"
    },
    {
      "anonymous": false,
      "inputs": [
        {
          "indexed": true,
          "internalType": "address",
          "name": "previousOwner",
          "type": "address"
        },
        {
          "indexed": true,
          "internalType": "address",
          "name": "newOwner",
          "type": "address"
        }
      ],
      "name": "OwnershipTransferred",
      "type": "event"
    },
    {
      "anonymous": false,
      "inputs": [
        {
          "indexed": false,
          "internalType": "address",
          "name": "account",
          "type": "address"
        }
      ],
      "name": "Paused",
      "type": "event"
    },
    {
      "anonymous": false,
      "inputs": [
        {
          "indexed": false,
          "internalType": "uint256",
          "name": "amount",
          "type": "uint256"
        }
      ],
      "name": "ReserveToppedUp",
      "type": "event"
    },
    {
      "anonymous": false,
      "inputs": [
        {
          "indexed": true,
          "internalType": "address",
          "name": "user",
          "type": "address"
        },
        {
          "indexed": true,
          "internalType": "uint256",
          "name": "stakeIndex",
          "type": "uint256"
        },
        {
          "indexed": false,
          "internalType": "uint256",
          "name": "amount",
          "type": "uint256"
        },
        {
          "indexed": false,
          "internalType": "uint256",
          "name": "reward",
          "type": "uint256"
        },
        {
          "indexed": false,
          "internalType": "uint256",
          "name": "endTime",
          "type": "uint256"
        }
      ],
      "name": "Staked",
      "type": "event"
    },
    {
      "anonymous": false,
      "inputs": [
        {
          "indexed": false,
          "internalType": "address",
          "name": "account",
          "type": "address"
        }
      ],
      "name": "Unpaused",
      "type": "event"
    },
    {
      "anonymous": false,
      "inputs": [
        {
          "indexed": true,
          "internalType": "address",
          "name": "user",
          "type": "address"
        },
        {
          "indexed": true,
          "internalType": "uint256",
          "name": "stakeIndex",
          "type": "uint256"
        },
        {
          "indexed": false,
          "internalType": "uint256",
          "name": "amount",
          "type": "uint256"
        },
        {
          "indexed": false,
          "internalType": "uint256",
          "name": "reward",
          "type": "uint256"
        }
      ],
      "name": "Withdrawn",
      "type": "event"
    },
    {
      "anonymous": false,
      "inputs": [
        {
          "indexed": true,
          "internalType": "address",
          "name": "user",
          "type": "address"
        },
        {
          "indexed": true,
          "internalType": "uint256",
          "name": "stakeIndex",
          "type": "uint256"
        },
        {
          "indexed": false,
          "internalType": "uint256",
          "name": "amount",
          "type": "uint256"
        },
        {
          "indexed": false,
          "internalType": "uint256",
          "name": "fee",
          "type": "uint256"
        }
      ],
      "name": "WithdrawnEarly",
      "type": "event"
    },
    {
      "inputs": [],
      "name": "EARLY_WITHDRAWAL_FEE_BPS",
      "outputs": [
        {
          "internalType": "uint256",
          "name": "",
          "type": "uint256"
        }
      ],
      "stateMutability": "view",
      "type": "function"
    },
    {
      "inputs": [],
      "name": "EMERGENCY_FEE_BPS",
      "outputs": [
        {
          "internalType": "uint256",
          "name": "",
          "type": "uint256"
        }
      ],
      "stateMutability": "view",
      "type": "function"
    },
    {
      "inputs": [],
      "name": "SNRG",
      "outputs": [
        {
          "internalType": "contract IERC20",
          "name": "",
          "type": "address"
        }
      ],
      "stateMutability": "view",
      "type": "function"
    },
    {
      "inputs": [],
      "name": "TREASURY",
      "outputs": [
        {
          "internalType": "address",
          "name": "",
          "type": "address"
        }
      ],
      "stateMutability": "view",
      "type": "function"
    },
    {
      "inputs": [],
      "name": "acceptOwnership",
      "outputs": [],
      "stateMutability": "nonpayable",
      "type": "function"
    },
    {
      "inputs": [
        {
          "internalType": "uint256",
          "name": "stakeIndex",
          "type": "uint256"
        }
      ],
      "name": "emergencyWithdraw",
      "outputs": [],
      "stateMutability": "nonpayable",
      "type": "function"
    },
    {
      "inputs": [
        {
          "internalType": "uint256",
          "name": "amount",
          "type": "uint256"
        }
      ],
      "name": "fundContract",
      "outputs": [],
      "stateMutability": "nonpayable",
      "type": "function"
    },
    {
      "inputs": [],
      "name": "getReserveInfo",
      "outputs": [
        {
          "internalType": "uint256",
          "name": "rewardReserve_",
          "type": "uint256"
        },
        {
          "internalType": "uint256",
          "name": "promisedRewards_",
          "type": "uint256"
        },
        {
          "internalType": "uint256",
          "name": "availableRewards_",
          "type": "uint256"
        }
      ],
      "stateMutability": "view",
      "type": "function"
    },
    {
      "inputs": [
        {
          "internalType": "address",
          "name": "user",
          "type": "address"
        },
        {
          "internalType": "uint256",
          "name": "stakeIndex",
          "type": "uint256"
        }
      ],
      "name": "getStake",
      "outputs": [
        {
          "components": [
            {
              "internalType": "uint256",
              "name": "amount",
              "type": "uint256"
            },
            {
              "internalType": "uint256",
              "name": "reward",
              "type": "uint256"
            },
            {
              "internalType": "uint256",
              "name": "endTime",
              "type": "uint256"
            },
            {
              "internalType": "bool",
              "name": "withdrawn",
              "type": "bool"
            }
          ],
          "internalType": "struct SNRGStaking.Stake",
          "name": "",
          "type": "tuple"
        }
      ],
      "stateMutability": "view",
      "type": "function"
    },
    {
      "inputs": [
        {
          "internalType": "address",
          "name": "user",
          "type": "address"
        }
      ],
      "name": "getStakeCount",
      "outputs": [
        {
          "internalType": "uint256",
          "name": "",
          "type": "uint256"
        }
      ],
      "stateMutability": "view",
      "type": "function"
    },
    {
      "inputs": [],
      "name": "isFunded",
      "outputs": [
        {
          "internalType": "bool",
          "name": "",
          "type": "bool"
        }
      ],
      "stateMutability": "view",
      "type": "function"
    },
    {
      "inputs": [],
      "name": "isSolvent",
      "outputs": [
        {
          "internalType": "bool",
          "name": "",
          "type": "bool"
        }
      ],
      "stateMutability": "view",
      "type": "function"
    },
    {
      "inputs": [],
      "name": "owner",
      "outputs": [
        {
          "internalType": "address",
          "name": "",
          "type": "address"
        }
      ],
      "stateMutability": "view",
      "type": "function"
    },
    {
      "inputs": [],
      "name": "pause",
      "outputs": [],
      "stateMutability": "nonpayable",
      "type": "function"
    },
    {
      "inputs": [],
      "name": "paused",
      "outputs": [
        {
          "internalType": "bool",
          "name": "",
          "type": "bool"
        }
      ],
      "stateMutability": "view",
      "type": "function"
    },
    {
      "inputs": [],
      "name": "pendingOwner",
      "outputs": [
        {
          "internalType": "address",
          "name": "",
          "type": "address"
        }
      ],
      "stateMutability": "view",
      "type": "function"
    },
    {
      "inputs": [],
      "name": "promisedRewards",
      "outputs": [
        {
          "internalType": "uint256",
          "name": "",
          "type": "uint256"
        }
      ],
      "stateMutability": "view",
      "type": "function"
    },
    {
      "inputs": [],
      "name": "renounceOwnership",
      "outputs": [],
      "stateMutability": "nonpayable",
      "type": "function"
    },
    {
      "inputs": [
        {
          "internalType": "uint64",
          "name": "",
          "type": "uint64"
        }
      ],
      "name": "rewardRates",
      "outputs": [
        {
          "internalType": "uint256",
          "name": "",
          "type": "uint256"
        }
      ],
      "stateMutability": "view",
      "type": "function"
    },
    {
      "inputs": [],
      "name": "rewardReserve",
      "outputs": [
        {
          "internalType": "uint256",
          "name": "",
          "type": "uint256"
        }
      ],
      "stateMutability": "view",
      "type": "function"
    },
    {
      "inputs": [
        {
          "internalType": "uint256",
          "name": "amount",
          "type": "uint256"
        },
        {
          "internalType": "uint64",
          "name": "duration",
          "type": "uint64"
        }
      ],
      "name": "stake",
      "outputs": [],
      "stateMutability": "nonpayable",
      "type": "function"
    },
    {
      "inputs": [
        {
          "internalType": "uint256",
          "name": "amount",
          "type": "uint256"
        }
      ],
      "name": "topUpReserves",
      "outputs": [],
      "stateMutability": "nonpayable",
      "type": "function"
    },
    {
      "inputs": [
        {
          "internalType": "address",
          "name": "newOwner",
          "type": "address"
        }
      ],
      "name": "transferOwnership",
      "outputs": [],
      "stateMutability": "nonpayable",
      "type": "function"
    },
    {
      "inputs": [],
      "name": "unpause",
      "outputs": [],
      "stateMutability": "nonpayable",
      "type": "function"
    },
    {
      "inputs": [
        {
          "internalType": "address",
          "name": "",
          "type": "address"
        },
        {
          "internalType": "uint256",
          "name": "",
          "type": "uint256"
        }
      ],
      "name": "userStakes",
      "outputs": [
        {
          "internalType": "uint256",
          "name": "amount",
          "type": "uint256"
        },
        {
          "internalType": "uint256",
          "name": "reward",
          "type": "uint256"
        },
        {
          "internalType": "uint256",
          "name": "endTime",
          "type": "uint256"
        },
        {
          "internalType": "bool",
          "name": "withdrawn",
          "type": "bool"
        }
      ],
      "stateMutability": "view",
      "type": "function"
    },
    {
      "inputs": [
        {
          "internalType": "uint256",
          "name": "stakeIndex",
          "type": "uint256"
        }
      ],
      "name": "withdraw",
      "outputs": [],
      "stateMutability": "nonpayable",
      "type": "function"
    },
    {
      "inputs": [
        {
          "internalType": "uint256",
          "name": "stakeIndex",
          "type": "uint256"
        }
      ],
      "name": "withdrawEarly",
      "outputs": [],
      "stateMutability": "nonpayable",
      "type": "function"
    }
  ],
  "bytecode": "0x60c060405234801561001057600080fd5b506040516119bd3803806119bd83398101604081905261002f9161021e565b806001600160a01b03811661005e57604051631e4fbdf760e01b81526000600482015260240160405180910390fd5b61006781610196565b5060016002556001600160a01b0383166100945760405163d92e233d60e01b815260040160405180910390fd5b6001600160a01b0382166100bb5760405163d92e233d60e01b815260040160405180910390fd5b6001600160a01b0381166100e25760405163d92e233d60e01b815260040160405180910390fd5b506001600160a01b0391821660a052166080526006602052607d7fb6ba906ff52451a7a924e2eaeb8aea3ebee7350a8703e5e417edb25358c7dcc15560fa7f6ca6dcafc04b6e03616746c3528366f990e332021e35d59275be746d65cae0a7556101777f1727c0104c2870c3003671480695f7dab262614528b49265008e76fd3d48c5fe5560b46000526101f47ffb78eb295a86b096b5f095822bd250a277112be4103ea4a7608d96eca726b2c155610261565b600180546001600160a01b03191690556101af816101b2565b50565b600080546001600160a01b038381166001600160a01b0319831681178455604051919092169283917f8be0079c531659141344cd1fd0a4f28419497f9722a3daafe3b4186f6b6457e09190a35050565b80516001600160a01b038116811461021957600080fd5b919050565b60008060006060848603121561023357600080fd5b61023c84610202565b925061024a60208501610202565b915061025860408501610202565b90509250925092565b60805160a0516116c76102f6600039600081816101b30152818161063f015281816107330152818161091401528181610afa01528181610eec0152610fd1015260008181610281015281816105530152818161066901528181610711015281816108f20152818161094601528181610ad801528181610b2c01528181610c9601528181610f160152610faf01526116c76000f3fe608060405234801561001057600080fd5b50600436106101a95760003560e01c80638da5cb5b116100f9578063cf57ee6911610097578063e30c397811610071578063e30c3978146103e3578063e8a8b1c7146103f4578063f2fde38b146103fd578063ffe777bd1461041057600080fd5b8063cf57ee6914610352578063cfd476631461037b578063da43deb5146103c357600080fd5b8063a202bfd6116100d3578063a202bfd6146102f8578063add5c93f1461030b578063b5d5b5fa14610314578063cab64bcd1461034957600080fd5b80638da5cb5b146102bd578063944258ef146102ce578063952e68cf146102e557600080fd5b80635c975abb1161016657806379ba50971161014057806379ba5097146102745780637c06d1331461027c5780637c654303146102a35780638456cb59146102b557600080fd5b80635c975abb146102485780635ce239501461025f578063715018a61461026c57600080fd5b80632d2c5565146101ae5780632e1a7d4d146101f25780633519a2f8146102075780633f4ba83a1461021a5780634f4b48f2146102225780635312ea8e14610235575b600080fd5b6101d57f000000000000000000000000000000000000000000000000000000000000000081565b6040516001600160a01b0390911681526020015b60405180910390f35b6102056102003660046114ab565b610433565b005b6102056102153660046114ab565b6105ce565b61020561079c565b6102056102303660046114ab565b6107ae565b6102056102433660046114ab565b6109b8565b60035460ff165b60405190151581526020016101e9565b600554600454101561024f565b610205610b8d565b610205610b9f565b6101d57f000000000000000000000000000000000000000000000000000000000000000081565b60035461024f90610100900460ff1681565b610205610be5565b6000546001600160a01b03166101d5565b6102d760055481565b6040519081526020016101e9565b6102056102f33660046114e1565b610bf5565b6102056103063660046114ab565b610ea4565b6102d76103e881565b610327610322366004611524565b61103e565b60408051948552602085019390935291830152151560608201526080016101e9565b6102d760045481565b6102d761036036600461154e565b6001600160a01b031660009081526007602052604090205490565b61038e610389366004611524565b611087565b6040516101e9919081518152602080830151908201526040808301519082015260609182015115159181019190915260800190565b6102d76103d1366004611570565b60066020526000908152604090205481565b6001546001600160a01b03166101d5565b6102d76101f481565b61020561040b36600461154e565b611165565b6104186111d6565b604080519384526020840192909252908201526060016101e9565b61043b611203565b33600090815260076020526040902054811061046a576040516363df817160e01b815260040160405180910390fd5b33600090815260076020526040812080548390811061048b5761048b61158b565b60009182526020909120600490910201600381015490915060ff16156104c457604051636507689f60e01b815260040160405180910390fd5b80600201544210156104e957604051638ddf07d960e01b815260040160405180910390fd5b60038101805460ff19166001908117909155810154815460009161050c916115b7565b905081600101546005600082825461052491906115ca565b90915550506001820154600480546000906105409084906115ca565b9091555061057a90506001600160a01b037f000000000000000000000000000000000000000000000000000000000000000016338361122b565b81546001830154604080519283526020830191909152849133917f75e161b3e824b114fc1a33274bd7091918dd4e639cede50b78b15a4eea956a21910160405180910390a350506105cb6001600255565b50565b6105d661128f565b6105de611203565b600354610100900460ff161561060757604051635adf638760e01b815260040160405180910390fd5b8060000361062857604051631f2a200560e01b815260040160405180910390fd5b6040516370a0823160e01b81526001600160a01b037f00000000000000000000000000000000000000000000000000000000000000008116600483015282917f0000000000000000000000000000000000000000000000000000000000000000909116906370a0823190602401602060405180830381865afa1580156106b2573d6000803e3d6000fd5b505050506040513d601f19601f820116820180604052508101906106d691906115dd565b10156106f557604051631e9acf1760e31b815260040160405180910390fd5b6003805461ff0019166101001790556107596001600160a01b037f0000000000000000000000000000000000000000000000000000000000000000167f000000000000000000000000000000000000000000000000000000000000000030846112bc565b60048190556040518181527f932461ba6e96b11d9e6e7794a08b1d4a8e6dfd4f1f2d93be10af806b75431e74906020015b60405180910390a16105cb6001600255565b6107a461128f565b6107ac6112fb565b565b6107b6611203565b3360009081526007602052604090205481106107e5576040516363df817160e01b815260040160405180910390fd5b3360009081526007602052604081208054839081106108065761080661158b565b60009182526020909120600490910201600381015490915060ff161561083f57604051636507689f60e01b815260040160405180910390fd5b8060020154421061086357604051631dce01fd60e01b815260040160405180910390fd5b60038101805460ff191660019081179091558101546005805460009061088a9084906115ca565b90915550508054600090612710906108a5906101f4906115f6565b6108af9190611623565b825490915081106108d3576040516320e65ddd60e21b815260040160405180910390fd5b81546000906108e39083906115ca565b90506109396001600160a01b037f0000000000000000000000000000000000000000000000000000000000000000167f00000000000000000000000000000000000000000000000000000000000000008461122b565b61096d6001600160a01b037f000000000000000000000000000000000000000000000000000000000000000016338361122b565b6040805182815260208101849052859133917fb6ed62ad5f13391878e19338c803417f9cf87f03f1f19b0b56e162f396f7450891015b60405180910390a35050506105cb6001600255565b6109c0611203565b3360009081526007602052604090205481106109ef576040516363df817160e01b815260040160405180910390fd5b336000908152600760205260408120805483908110610a1057610a1061158b565b60009182526020909120600490910201600381015490915060ff1615610a4957604051636507689f60e01b815260040160405180910390fd5b60038101805460ff1916600190811790915581015460058054600090610a709084906115ca565b9091555050805460009061271090610a8b906103e8906115f6565b610a959190611623565b82549091508110610ab9576040516320e65ddd60e21b815260040160405180910390fd5b8154600090610ac99083906115ca565b9050610b1f6001600160a01b037f0000000000000000000000000000000000000000000000000000000000000000167f00000000000000000000000000000000000000000000000000000000000000008461122b565b610b536001600160a01b037f000000000000000000000000000000000000000000000000000000000000000016338361122b565b6040805182815260208101849052859133917f5e51ee1d526b1e287667d5b5aa0f1595afa8e91197fb257f8351274f8fca50be91016109a3565b610b9561128f565b6107ac600061134d565b60015433906001600160a01b03168114610bdc5760405163118cdaa760e01b81526001600160a01b03821660048201526024015b60405180910390fd5b6105cb8161134d565b610bed61128f565b6107ac611366565b610bfd611203565b610c056113a3565b600354610100900460ff16610c2d57604051636af784dd60e11b815260040160405180910390fd5b81600003610c4e57604051631f2a200560e01b815260040160405180910390fd5b67ffffffffffffffff811660009081526006602052604081205490819003610c8957604051637616640160e01b815260040160405180910390fd5b610cbe6001600160a01b037f0000000000000000000000000000000000000000000000000000000000000000163330866112bc565b6000612710610ccd83866115f6565b610cd79190611623565b905080600554610ce791906115b7565b6004541015610d53577f5960d221536eef6f5abbb4f71994be83c10486e484d259979726ad3a481cc91981600554610d1f91906115b7565b6004546040805192835260208301919091520160405180910390a1604051639922c60560e01b815260040160405180910390fd5b610d686201518067ffffffffffffffff611637565b67ffffffffffffffff168367ffffffffffffffff161115610d9c57604051637616640160e01b815260040160405180910390fd5b6000610dab8462015180611667565b610dbf9067ffffffffffffffff16426115b7565b336000908152600760209081526040808320805482516080810184528b815280850189815293810187815260608201878152600180850186559488529587209151600484029092019182559351928101929092559151600282015591516003909201805460ff191692151592909217909155600580549394509092859290610e489084906115b7565b90915550506040805187815260208101859052908101839052819033907f9cfd25589d1eb8ad71e342a86a8524e83522e3936c0803048c08f6d9ad974f409060600160405180910390a350505050610ea06001600255565b5050565b610eac61128f565b610eb4611203565b80600003610ed557604051631f2a200560e01b815260040160405180910390fd5b6040516370a0823160e01b81526001600160a01b037f00000000000000000000000000000000000000000000000000000000000000008116600483015282917f0000000000000000000000000000000000000000000000000000000000000000909116906370a0823190602401602060405180830381865afa158015610f5f573d6000803e3d6000fd5b505050506040513d601f19601f82011682018060405250810190610f8391906115dd565b1015610fa257604051631e9acf1760e31b815260040160405180910390fd5b610ff76001600160a01b037f0000000000000000000000000000000000000000000000000000000000000000167f000000000000000000000000000000000000000000000000000000000000000030846112bc565b806004600082825461100991906115b7565b90915550506040518181527f5837989bc42c3288ba818b4b3bfc66317999bcf3b88441957f64b0a215deec079060200161078a565b6007602052816000526040600020818154811061105a57600080fd5b60009182526020909120600490910201805460018201546002830154600390930154919450925060ff1684565b6110b460405180608001604052806000815260200160008152602001600081526020016000151581525090565b6001600160a01b03831660009081526007602052604090205482106110ec576040516363df817160e01b815260040160405180910390fd5b6001600160a01b03831660009081526007602052604090208054839081106111165761111661158b565b60009182526020918290206040805160808101825260049093029091018054835260018101549383019390935260028301549082015260039091015460ff161515606082015290505b92915050565b61116d61128f565b600180546001600160a01b0383166001600160a01b0319909116811790915561119e6000546001600160a01b031690565b6001600160a01b03167f38d16b8cac22d99fc7c124b9cd0de2d3fa1faef420bfe791d8c362d765e2270060405160405180910390a350565b60045460055460008183116111ec5760006111fc565b6005546004546111fc91906115ca565b9050909192565b600280540361122557604051633ee5aeb560e01b815260040160405180910390fd5b60028055565b6040516001600160a01b0383811660248301526044820183905261128a91859182169063a9059cbb906064015b604051602081830303815290604052915060e01b6020820180516001600160e01b0383818316178352505050506113c7565b505050565b6000546001600160a01b031633146107ac5760405163118cdaa760e01b8152336004820152602401610bd3565b6040516001600160a01b0384811660248301528381166044830152606482018390526112f59186918216906323b872dd90608401611258565b50505050565b611303611438565b6003805460ff191690557f5db9ee0a495bf2e6ff9c91a7834c1ba4fdd244a5e8aa4e537bd38aeae4b073aa335b6040516001600160a01b03909116815260200160405180910390a1565b600180546001600160a01b03191690556105cb8161145b565b61136e6113a3565b6003805460ff191660011790557f62e78cea01bee320cd4e420270b5ea74000d11b0c9f74754ebdbfc544b05a2586113303390565b60035460ff16156107ac5760405163d93c066560e01b815260040160405180910390fd5b600080602060008451602086016000885af1806113ea576040513d6000823e3d81fd5b50506000513d9150811561140257806001141561140f565b6001600160a01b0384163b155b156112f557604051635274afe760e01b81526001600160a01b0385166004820152602401610bd3565b60035460ff166107ac57604051638dfc202b60e01b815260040160405180910390fd5b600080546001600160a01b038381166001600160a01b0319831681178455604051919092169283917f8be0079c531659141344cd1fd0a4f28419497f9722a3daafe3b4186f6b6457e09190a35050565b6000602082840312156114bd57600080fd5b5035919050565b803567ffffffffffffffff811681146114dc57600080fd5b919050565b600080604083850312156114f457600080fd5b82359150611504602084016114c4565b90509250929050565b80356001600160a01b03811681146114dc57600080fd5b6000806040838503121561153757600080fd5b6115408361150d565b946020939093013593505050565b60006020828403121561156057600080fd5b6115698261150d565b9392505050565b60006020828403121561158257600080fd5b611569826114c4565b634e487b7160e01b600052603260045260246000fd5b634e487b7160e01b600052601160045260246000fd5b8082018082111561115f5761115f6115a1565b8181038181111561115f5761115f6115a1565b6000602082840312156115ef57600080fd5b5051919050565b808202811582820484141761115f5761115f6115a1565b634e487b7160e01b600052601260045260246000fd5b6000826116325761163261160d565b500490565b600067ffffffffffffffff8316806116515761165161160d565b8067ffffffffffffffff84160491505092915050565b67ffffffffffffffff818116838216029081169081811461168a5761168a6115a1565b509291505056fea2646970667358221220a57334373431d5d2620c31753630d1a880e193e60c101d6b0471a088d093660264736f6c634300081c0033",
  "linkReferences": {},
  "deployedLinkReferences": {},
  "immutableReferences": {
    "7558": [
      {
        "length": 32,
        "start": 641
      },
      {
        "length": 32,
        "start": 1363
      },
      {
        "length": 32,
        "start": 1641
      },
      {
        "length": 32,
        "start": 1809
      },
      {
        "length": 32,
        "start": 2290
      },
      {
        "length": 32,
        "start": 2374
      },
      {
        "length": 32,
        "start": 2776
      },
      {
        "length": 32,
        "start": 2860
      },
      {
        "length": 32,
        "start": 3222
      },
      {
        "length": 32,
        "start": 3862
      },
      {
        "length": 32,
        "start": 4015
      }
    ],
    "7561": [
      {
        "length": 32,
        "start": 435
      },
      {
        "length": 32,
        "start": 1599
      },
      {
        "length": 32,
        "start": 1843
      },
      {
        "length": 32,
        "start": 2324
      },
      {
        "length": 32,
        "start": 2810
      },
      {
        "length": 32,
        "start": 3820
      },
      {
        "length": 32,
        "start": 4049
      }
    ]
  },
  "inputSourceName": "project/contracts/SNRGstaking.sol",
  "buildInfoId": "solc-0_8_28-08b6b21c6bafc74aa860428c088847463d5c34e9"
}