{
  "_format": "hh-sol-artifact-1",
  "contractName": "SNRGStaking",
  "sourceName": "contracts/SNRGStaking_flattened.sol",
  "abi": [
    {
      "inputs": [
        {
          "internalType": "address",
          "name": "_treasury",
          "type": "address"
        },
        {
          "internalType": "address",
          "name": "owner_",
          "type": "address"
        }
      ],
      "stateMutability": "nonpayable",
      "type": "constructor"
    },
    {
      "inputs": [
        {
          "internalType": "address",
          "name": "owner",
          "type": "address"
        }
      ],
      "name": "OwnableInvalidOwner",
      "type": "error"
    },
    {
      "inputs": [
        {
          "internalType": "address",
          "name": "account",
          "type": "address"
        }
      ],
      "name": "OwnableUnauthorizedAccount",
      "type": "error"
    },
    {
      "inputs": [],
      "name": "ReentrancyGuardReentrantCall",
      "type": "error"
    },
    {
      "anonymous": false,
      "inputs": [
        {
          "indexed": false,
          "internalType": "uint256",
          "name": "amount",
          "type": "uint256"
        }
      ],
      "name": "ContractFunded",
      "type": "event"
    },
    {
      "anonymous": false,
      "inputs": [
        {
          "indexed": true,
          "internalType": "address",
          "name": "previousOwner",
          "type": "address"
        },
        {
          "indexed": true,
          "internalType": "address",
          "name": "newOwner",
          "type": "address"
        }
      ],
      "name": "OwnershipTransferred",
      "type": "event"
    },
    {
      "anonymous": false,
      "inputs": [
        {
          "indexed": true,
          "internalType": "address",
          "name": "user",
          "type": "address"
        },
        {
          "indexed": true,
          "internalType": "uint256",
          "name": "stakeIndex",
          "type": "uint256"
        },
        {
          "indexed": false,
          "internalType": "uint256",
          "name": "amount",
          "type": "uint256"
        },
        {
          "indexed": false,
          "internalType": "uint256",
          "name": "reward",
          "type": "uint256"
        },
        {
          "indexed": false,
          "internalType": "uint256",
          "name": "endTime",
          "type": "uint256"
        }
      ],
      "name": "Staked",
      "type": "event"
    },
    {
      "anonymous": false,
      "inputs": [
        {
          "indexed": true,
          "internalType": "address",
          "name": "user",
          "type": "address"
        },
        {
          "indexed": true,
          "internalType": "uint256",
          "name": "stakeIndex",
          "type": "uint256"
        },
        {
          "indexed": false,
          "internalType": "uint256",
          "name": "amount",
          "type": "uint256"
        },
        {
          "indexed": false,
          "internalType": "uint256",
          "name": "reward",
          "type": "uint256"
        }
      ],
      "name": "Withdrawn",
      "type": "event"
    },
    {
      "anonymous": false,
      "inputs": [
        {
          "indexed": true,
          "internalType": "address",
          "name": "user",
          "type": "address"
        },
        {
          "indexed": true,
          "internalType": "uint256",
          "name": "stakeIndex",
          "type": "uint256"
        },
        {
          "indexed": false,
          "internalType": "uint256",
          "name": "amount",
          "type": "uint256"
        },
        {
          "indexed": false,
          "internalType": "uint256",
          "name": "fee",
          "type": "uint256"
        }
      ],
      "name": "WithdrawnEarly",
      "type": "event"
    },
    {
      "inputs": [],
      "name": "EARLY_WITHDRAWAL_FEE_BPS",
      "outputs": [
        {
          "internalType": "uint256",
          "name": "",
          "type": "uint256"
        }
      ],
      "stateMutability": "view",
      "type": "function"
    },
    {
      "inputs": [
        {
          "internalType": "uint256",
          "name": "amount",
          "type": "uint256"
        }
      ],
      "name": "fundContract",
      "outputs": [],
      "stateMutability": "nonpayable",
      "type": "function"
    },
    {
      "inputs": [
        {
          "internalType": "address",
          "name": "user",
          "type": "address"
        },
        {
          "internalType": "uint256",
          "name": "stakeIndex",
          "type": "uint256"
        }
      ],
      "name": "getStake",
      "outputs": [
        {
          "components": [
            {
              "internalType": "uint256",
              "name": "amount",
              "type": "uint256"
            },
            {
              "internalType": "uint256",
              "name": "reward",
              "type": "uint256"
            },
            {
              "internalType": "uint256",
              "name": "endTime",
              "type": "uint256"
            },
            {
              "internalType": "bool",
              "name": "withdrawn",
              "type": "bool"
            }
          ],
          "internalType": "struct SNRGStaking.Stake",
          "name": "",
          "type": "tuple"
        }
      ],
      "stateMutability": "view",
      "type": "function"
    },
    {
      "inputs": [
        {
          "internalType": "address",
          "name": "user",
          "type": "address"
        }
      ],
      "name": "getStakeCount",
      "outputs": [
        {
          "internalType": "uint256",
          "name": "",
          "type": "uint256"
        }
      ],
      "stateMutability": "view",
      "type": "function"
    },
    {
      "inputs": [],
      "name": "isFunded",
      "outputs": [
        {
          "internalType": "bool",
          "name": "",
          "type": "bool"
        }
      ],
      "stateMutability": "view",
      "type": "function"
    },
    {
      "inputs": [],
      "name": "owner",
      "outputs": [
        {
          "internalType": "address",
          "name": "",
          "type": "address"
        }
      ],
      "stateMutability": "view",
      "type": "function"
    },
    {
      "inputs": [],
      "name": "renounceOwnership",
      "outputs": [],
      "stateMutability": "nonpayable",
      "type": "function"
    },
    {
      "inputs": [
        {
          "internalType": "uint64",
          "name": "",
          "type": "uint64"
        }
      ],
      "name": "rewardRates",
      "outputs": [
        {
          "internalType": "uint256",
          "name": "",
          "type": "uint256"
        }
      ],
      "stateMutability": "view",
      "type": "function"
    },
    {
      "inputs": [
        {
          "internalType": "address",
          "name": "_snrg",
          "type": "address"
        }
      ],
      "name": "setSnrgToken",
      "outputs": [],
      "stateMutability": "nonpayable",
      "type": "function"
    },
    {
      "inputs": [],
      "name": "snrg",
      "outputs": [
        {
          "internalType": "contract IERC20",
          "name": "",
          "type": "address"
        }
      ],
      "stateMutability": "view",
      "type": "function"
    },
    {
      "inputs": [
        {
          "internalType": "uint256",
          "name": "amount",
          "type": "uint256"
        },
        {
          "internalType": "uint64",
          "name": "duration",
          "type": "uint64"
        }
      ],
      "name": "stake",
      "outputs": [],
      "stateMutability": "nonpayable",
      "type": "function"
    },
    {
      "inputs": [
        {
          "internalType": "address",
          "name": "newOwner",
          "type": "address"
        }
      ],
      "name": "transferOwnership",
      "outputs": [],
      "stateMutability": "nonpayable",
      "type": "function"
    },
    {
      "inputs": [],
      "name": "treasury",
      "outputs": [
        {
          "internalType": "address",
          "name": "",
          "type": "address"
        }
      ],
      "stateMutability": "view",
      "type": "function"
    },
    {
      "inputs": [
        {
          "internalType": "address",
          "name": "",
          "type": "address"
        },
        {
          "internalType": "uint256",
          "name": "",
          "type": "uint256"
        }
      ],
      "name": "userStakes",
      "outputs": [
        {
          "internalType": "uint256",
          "name": "amount",
          "type": "uint256"
        },
        {
          "internalType": "uint256",
          "name": "reward",
          "type": "uint256"
        },
        {
          "internalType": "uint256",
          "name": "endTime",
          "type": "uint256"
        },
        {
          "internalType": "bool",
          "name": "withdrawn",
          "type": "bool"
        }
      ],
      "stateMutability": "view",
      "type": "function"
    },
    {
      "inputs": [
        {
          "internalType": "uint256",
          "name": "stakeIndex",
          "type": "uint256"
        }
      ],
      "name": "withdraw",
      "outputs": [],
      "stateMutability": "nonpayable",
      "type": "function"
    },
    {
      "inputs": [
        {
          "internalType": "uint256",
          "name": "stakeIndex",
          "type": "uint256"
        }
      ],
      "name": "withdrawEarly",
      "outputs": [],
      "stateMutability": "nonpayable",
      "type": "function"
    }
  ],
  "bytecode": "0x60a060405234801561001057600080fd5b5060405161129a38038061129a83398101604081905261002f916101ca565b806001600160a01b03811661005f57604051631e4fbdf760e01b8152600060048201526024015b60405180910390fd5b6100688161015e565b50600180556001600160a01b0382166100b05760405162461bcd60e51b815260206004820152600a602482015269074726561737572793d360b41b6044820152606401610056565b506001600160a01b03166080526003602052607d7f6117fee2f1274e1b392d2c3fe842478040a980d896757f38cbfe2ceebfa9f55f5560fa7f01c8d1bf01472944f62fa726559c57c955f3535856e865cee78082252c0dbe65556101777f3219ed562b3fd9188a49dd9a57bec5aecadcb61ea33f29053262442c210d825f5560b46000526101f47f3803eb3ad32319afb811b1ed93c96ec4bdf98bf0a9358801efe0713a54aa4f19556101fd565b600080546001600160a01b038381166001600160a01b0319831681178455604051919092169283917f8be0079c531659141344cd1fd0a4f28419497f9722a3daafe3b4186f6b6457e09190a35050565b80516001600160a01b03811681146101c557600080fd5b919050565b600080604083850312156101dd57600080fd5b6101e6836101ae565b91506101f4602084016101ae565b90509250929050565b608051611074610226600039600081816101880152818161059e01526107c301526110746000f3fe608060405234801561001057600080fd5b50600436106101005760003560e01c80638da5cb5b11610097578063cfd4766311610066578063cfd4766314610266578063da43deb5146102ae578063e8a8b1c7146102ce578063f2fde38b146102d757600080fd5b80638da5cb5b146101d6578063952e68cf146101e7578063b5d5b5fa146101fa578063cf57ee691461022f57600080fd5b80635dd007c9116100d35780635dd007c91461017057806361d027b314610183578063715018a6146101aa5780637c654303146101b257600080fd5b80632e1a7d4d146101055780633519a2f81461011a5780633ce499b41461012d5780634f4b48f21461015d575b600080fd5b610118610113366004610e87565b6102ea565b005b610118610128366004610e87565b6104e4565b600254610140906001600160a01b031681565b6040516001600160a01b0390911681526020015b60405180910390f35b61011861016b366004610e87565b61069a565b61011861017e366004610ebc565b610983565b6101407f000000000000000000000000000000000000000000000000000000000000000081565b610118610a45565b6002546101c690600160a01b900460ff1681565b6040519015158152602001610154565b6000546001600160a01b0316610140565b6101186101f5366004610ef6565b610a59565b61020d610208366004610f22565b610cb6565b6040805194855260208501939093529183015215156060820152608001610154565b61025861023d366004610ebc565b6001600160a01b031660009081526004602052604090205490565b604051908152602001610154565b610279610274366004610f22565b610cff565b604051610154919081518152602080830151908201526040808301519082015260609182015115159181019190915260800190565b6102586102bc366004610f4c565b60036020526000908152604090205481565b6102586101f481565b6101186102e5366004610ebc565b610da5565b6102f2610de0565b33600090815260046020526040812080548390811061031357610313610f67565b60009182526020909120600490910201600381015490915060ff16156103745760405162461bcd60e51b815260206004820152601160248201527030b63932b0b23c903bb4ba34323930bbb760791b60448201526064015b60405180910390fd5b80600201544210156103bc5760405162461bcd60e51b81526020600482015260116024820152701cdd185ad9481b9bdd081b585d1d5c9959607a1b604482015260640161036b565b60038101805460ff1916600190811790915581015481546000916103df91610f93565b60025460405163a9059cbb60e01b8152336004820152602481018390529192506001600160a01b03169063a9059cbb906044016020604051808303816000875af1158015610431573d6000803e3d6000fd5b505050506040513d601f19601f820116820180604052508101906104559190610fa6565b6104915760405162461bcd60e51b815260206004820152600d60248201526c1d1c985b9cd9995c8819985a5b609a1b604482015260640161036b565b81546001830154604080519283526020830191909152849133917f75e161b3e824b114fc1a33274bd7091918dd4e639cede50b78b15a4eea956a21910160405180910390a350506104e160018055565b50565b6104ec610e0a565b600254600160a01b900460ff16156105375760405162461bcd60e51b815260206004820152600e60248201526d185b1c9958591e48199d5b99195960921b604482015260640161036b565b600081116105725760405162461bcd60e51b81526020600482015260086024820152670616d6f756e743d360c41b604482015260640161036b565b6002805460ff60a01b198116600160a01b179091556040516323b872dd60e01b81526001600160a01b037f00000000000000000000000000000000000000000000000000000000000000008116600483015230602483015260448201849052909116906323b872dd906064016020604051808303816000875af11580156105fd573d6000803e3d6000fd5b505050506040513d601f19601f820116820180604052508101906106219190610fa6565b6106645760405162461bcd60e51b8152602060048201526014602482015273199d5b99081d1c985b9cd9995c8819985a5b195960621b604482015260640161036b565b6040518181527f932461ba6e96b11d9e6e7794a08b1d4a8e6dfd4f1f2d93be10af806b75431e749060200160405180910390a150565b6106a2610de0565b3360009081526004602052604081208054839081106106c3576106c3610f67565b60009182526020909120600490910201600381015490915060ff161561071f5760405162461bcd60e51b815260206004820152601160248201527030b63932b0b23c903bb4ba34323930bbb760791b604482015260640161036b565b806002015442106107665760405162461bcd60e51b81526020600482015260116024820152701cdd185ad9481a185cc81b585d1d5c9959607a1b604482015260640161036b565b60038101805460ff1916600117905580546000906127109061078b906101f490610fc8565b6107959190610fdf565b905060008183600001546107a99190611001565b60025460405163a9059cbb60e01b81526001600160a01b037f0000000000000000000000000000000000000000000000000000000000000000811660048301526024820186905292935091169063a9059cbb906044016020604051808303816000875af115801561081e573d6000803e3d6000fd5b505050506040513d601f19601f820116820180604052508101906108429190610fa6565b6108825760405162461bcd60e51b8152602060048201526011602482015270199959481d1c985b9cd9995c8819985a5b607a1b604482015260640161036b565b60025460405163a9059cbb60e01b8152336004820152602481018390526001600160a01b039091169063a9059cbb906044016020604051808303816000875af11580156108d3573d6000803e3d6000fd5b505050506040513d601f19601f820116820180604052508101906108f79190610fa6565b61093a5760405162461bcd60e51b81526020600482015260146024820152731c995d1d5c9b881d1c985b9cd9995c8819985a5b60621b604482015260640161036b565b6040805182815260208101849052859133917fb6ed62ad5f13391878e19338c803417f9cf87f03f1f19b0b56e162f396f74508910160405180910390a35050506104e160018055565b61098b610e0a565b6002546001600160a01b0316156109e45760405162461bcd60e51b815260206004820152601e60248201527f534e524720746f6b656e206164647265737320616c7265616479207365740000604482015260640161036b565b6001600160a01b038116610a235760405162461bcd60e51b81526020600482015260066024820152650736e72673d360d41b604482015260640161036b565b600280546001600160a01b0319166001600160a01b0392909216919091179055565b610a4d610e0a565b610a576000610e37565b565b610a61610de0565b60008211610a9c5760405162461bcd60e51b81526020600482015260086024820152670616d6f756e743d360c41b604482015260640161036b565b67ffffffffffffffff811660009081526003602052604090205480610af65760405162461bcd60e51b815260206004820152601060248201526f34b73b30b634b210323ab930ba34b7b760811b604482015260640161036b565b6002546040516323b872dd60e01b8152336004820152306024820152604481018590526001600160a01b03909116906323b872dd906064016020604051808303816000875af1158015610b4d573d6000803e3d6000fd5b505050506040513d601f19601f82011682018060405250810190610b719190610fa6565b610bb15760405162461bcd60e51b81526020600482015260116024820152701d1c985b9cd9995c919c9bdb4819985a5b607a1b604482015260640161036b565b6000612710610bc08386610fc8565b610bca9190610fdf565b90506000610bdb8462015180611014565b610bef9067ffffffffffffffff1642610f93565b336000818152600460208181526040808420805482516080810184528d81528085018b81528185018a815260608084018a815260018087018855968b529988902093519885029093019788559051938701939093559151600286015594516003909401805460ff19169415159490941790935580518b8152918201889052810185905293945090928392917f9cfd25589d1eb8ad71e342a86a8524e83522e3936c0803048c08f6d9ad974f40910160405180910390a350505050610cb260018055565b5050565b60046020528160005260406000208181548110610cd257600080fd5b60009182526020909120600490910201805460018201546002830154600390930154919450925060ff1684565b610d2c60405180608001604052806000815260200160008152602001600081526020016000151581525090565b6001600160a01b0383166000908152600460205260409020805483908110610d5657610d56610f67565b60009182526020918290206040805160808101825260049093029091018054835260018101549383019390935260028301549082015260039091015460ff161515606082015290505b92915050565b610dad610e0a565b6001600160a01b038116610dd757604051631e4fbdf760e01b81526000600482015260240161036b565b6104e181610e37565b600260015403610e0357604051633ee5aeb560e01b815260040160405180910390fd5b6002600155565b6000546001600160a01b03163314610a575760405163118cdaa760e01b815233600482015260240161036b565b600080546001600160a01b038381166001600160a01b0319831681178455604051919092169283917f8be0079c531659141344cd1fd0a4f28419497f9722a3daafe3b4186f6b6457e09190a35050565b600060208284031215610e9957600080fd5b5035919050565b80356001600160a01b0381168114610eb757600080fd5b919050565b600060208284031215610ece57600080fd5b610ed782610ea0565b9392505050565b803567ffffffffffffffff81168114610eb757600080fd5b60008060408385031215610f0957600080fd5b82359150610f1960208401610ede565b90509250929050565b60008060408385031215610f3557600080fd5b610f3e83610ea0565b946020939093013593505050565b600060208284031215610f5e57600080fd5b610ed782610ede565b634e487b7160e01b600052603260045260246000fd5b634e487b7160e01b600052601160045260246000fd5b80820180821115610d9f57610d9f610f7d565b600060208284031215610fb857600080fd5b81518015158114610ed757600080fd5b8082028115828204841417610d9f57610d9f610f7d565b600082610ffc57634e487b7160e01b600052601260045260246000fd5b500490565b81810381811115610d9f57610d9f610f7d565b67ffffffffffffffff818116838216029081169081811461103757611037610f7d565b509291505056fea26469706673582212204457a2e292a47a6014e919cd8cddaa8298ca5159a358dd06176b607cf686d89764736f6c634300081a0033",
  "linkReferences": {},
  "deployedLinkReferences": {}
}