{
  "_format": "hh-sol-artifact-1",
  "contractName": "SNRGPresale",
  "sourceName": "contracts/SNRGpresale.sol",
  "abi": [
    {
      "inputs": [
        {
          "internalType": "address",
          "name": "_snrg",
          "type": "address"
        },
        {
          "internalType": "address",
          "name": "_treasury",
          "type": "address"
        },
        {
          "internalType": "address",
          "name": "owner_",
          "type": "address"
        },
        {
          "internalType": "address",
          "name": "_signer",
          "type": "address"
        }
      ],
      "stateMutability": "nonpayable",
      "type": "constructor"
    },
    {
      "inputs": [],
      "name": "ECDSAInvalidSignature",
      "type": "error"
    },
    {
      "inputs": [
        {
          "internalType": "uint256",
          "name": "length",
          "type": "uint256"
        }
      ],
      "name": "ECDSAInvalidSignatureLength",
      "type": "error"
    },
    {
      "inputs": [
        {
          "internalType": "bytes32",
          "name": "s",
          "type": "bytes32"
        }
      ],
      "name": "ECDSAInvalidSignatureS",
      "type": "error"
    },
    {
      "inputs": [
        {
          "internalType": "address",
          "name": "owner",
          "type": "address"
        }
      ],
      "name": "OwnableInvalidOwner",
      "type": "error"
    },
    {
      "inputs": [
        {
          "internalType": "address",
          "name": "account",
          "type": "address"
        }
      ],
      "name": "OwnableUnauthorizedAccount",
      "type": "error"
    },
    {
      "inputs": [],
      "name": "ReentrancyGuardReentrantCall",
      "type": "error"
    },
    {
      "anonymous": false,
      "inputs": [
        {
          "indexed": false,
          "internalType": "bool",
          "name": "open",
          "type": "bool"
        }
      ],
      "name": "OpenSet",
      "type": "event"
    },
    {
      "anonymous": false,
      "inputs": [
        {
          "indexed": true,
          "internalType": "address",
          "name": "previousOwner",
          "type": "address"
        },
        {
          "indexed": true,
          "internalType": "address",
          "name": "newOwner",
          "type": "address"
        }
      ],
      "name": "OwnershipTransferred",
      "type": "event"
    },
    {
      "anonymous": false,
      "inputs": [
        {
          "indexed": true,
          "internalType": "address",
          "name": "buyer",
          "type": "address"
        },
        {
          "indexed": true,
          "internalType": "address",
          "name": "paymentToken",
          "type": "address"
        },
        {
          "indexed": false,
          "internalType": "uint256",
          "name": "snrgAmount",
          "type": "uint256"
        },
        {
          "indexed": false,
          "internalType": "uint256",
          "name": "paidAmount",
          "type": "uint256"
        }
      ],
      "name": "Purchased",
      "type": "event"
    },
    {
      "anonymous": false,
      "inputs": [
        {
          "indexed": false,
          "internalType": "address",
          "name": "newSigner",
          "type": "address"
        }
      ],
      "name": "SignerSet",
      "type": "event"
    },
    {
      "anonymous": false,
      "inputs": [
        {
          "indexed": true,
          "internalType": "address",
          "name": "token",
          "type": "address"
        },
        {
          "indexed": false,
          "internalType": "bool",
          "name": "isSupported",
          "type": "bool"
        }
      ],
      "name": "SupportedTokenSet",
      "type": "event"
    },
    {
      "inputs": [
        {
          "internalType": "uint256",
          "name": "snrgAmount",
          "type": "uint256"
        },
        {
          "internalType": "uint256",
          "name": "nonce",
          "type": "uint256"
        },
        {
          "internalType": "bytes",
          "name": "signature",
          "type": "bytes"
        }
      ],
      "name": "buyWithNative",
      "outputs": [],
      "stateMutability": "payable",
      "type": "function"
    },
    {
      "inputs": [
        {
          "internalType": "address",
          "name": "paymentToken",
          "type": "address"
        },
        {
          "internalType": "uint256",
          "name": "paymentAmount",
          "type": "uint256"
        },
        {
          "internalType": "uint256",
          "name": "snrgAmount",
          "type": "uint256"
        },
        {
          "internalType": "uint256",
          "name": "nonce",
          "type": "uint256"
        },
        {
          "internalType": "bytes",
          "name": "signature",
          "type": "bytes"
        }
      ],
      "name": "buyWithToken",
      "outputs": [],
      "stateMutability": "nonpayable",
      "type": "function"
    },
    {
      "inputs": [],
      "name": "open",
      "outputs": [
        {
          "internalType": "bool",
          "name": "",
          "type": "bool"
        }
      ],
      "stateMutability": "view",
      "type": "function"
    },
    {
      "inputs": [],
      "name": "owner",
      "outputs": [
        {
          "internalType": "address",
          "name": "",
          "type": "address"
        }
      ],
      "stateMutability": "view",
      "type": "function"
    },
    {
      "inputs": [],
      "name": "renounceOwnership",
      "outputs": [],
      "stateMutability": "nonpayable",
      "type": "function"
    },
    {
      "inputs": [
        {
          "internalType": "bool",
          "name": "v",
          "type": "bool"
        }
      ],
      "name": "setOpen",
      "outputs": [],
      "stateMutability": "nonpayable",
      "type": "function"
    },
    {
      "inputs": [
        {
          "internalType": "address",
          "name": "_signer",
          "type": "address"
        }
      ],
      "name": "setSigner",
      "outputs": [],
      "stateMutability": "nonpayable",
      "type": "function"
    },
    {
      "inputs": [
        {
          "internalType": "address",
          "name": "token",
          "type": "address"
        },
        {
          "internalType": "bool",
          "name": "isSupported",
          "type": "bool"
        }
      ],
      "name": "setSupportedToken",
      "outputs": [],
      "stateMutability": "nonpayable",
      "type": "function"
    },
    {
      "inputs": [],
      "name": "signer",
      "outputs": [
        {
          "internalType": "address",
          "name": "",
          "type": "address"
        }
      ],
      "stateMutability": "view",
      "type": "function"
    },
    {
      "inputs": [],
      "name": "snrg",
      "outputs": [
        {
          "internalType": "contract IERC20",
          "name": "",
          "type": "address"
        }
      ],
      "stateMutability": "view",
      "type": "function"
    },
    {
      "inputs": [
        {
          "internalType": "address",
          "name": "",
          "type": "address"
        }
      ],
      "name": "supportedTokens",
      "outputs": [
        {
          "internalType": "bool",
          "name": "",
          "type": "bool"
        }
      ],
      "stateMutability": "view",
      "type": "function"
    },
    {
      "inputs": [
        {
          "internalType": "address",
          "name": "newOwner",
          "type": "address"
        }
      ],
      "name": "transferOwnership",
      "outputs": [],
      "stateMutability": "nonpayable",
      "type": "function"
    },
    {
      "inputs": [],
      "name": "treasury",
      "outputs": [
        {
          "internalType": "address",
          "name": "",
          "type": "address"
        }
      ],
      "stateMutability": "view",
      "type": "function"
    },
    {
      "inputs": [
        {
          "internalType": "uint256",
          "name": "",
          "type": "uint256"
        }
      ],
      "name": "usedNonces",
      "outputs": [
        {
          "internalType": "bool",
          "name": "",
          "type": "bool"
        }
      ],
      "stateMutability": "view",
      "type": "function"
    }
  ],
  "bytecode": "0x60c060405234801561001057600080fd5b5060405161121538038061121583398101604081905261002f91610177565b816001600160a01b03811661005f57604051631e4fbdf760e01b8152600060048201526024015b60405180910390fd5b6100688161010b565b50600180556001600160a01b0384161580159061008d57506001600160a01b03831615155b80156100a157506001600160a01b03811615155b6100dc5760405162461bcd60e51b815260206004820152600c60248201526b7a65726f206164647265737360a01b6044820152606401610056565b6001600160a01b0393841660805291831660a05250600280546001600160a01b031916919092161790556101cb565b600080546001600160a01b038381166001600160a01b0319831681178455604051919092169283917f8be0079c531659141344cd1fd0a4f28419497f9722a3daafe3b4186f6b6457e09190a35050565b80516001600160a01b038116811461017257600080fd5b919050565b6000806000806080858703121561018d57600080fd5b6101968561015b565b93506101a46020860161015b565b92506101b26040860161015b565b91506101c06060860161015b565b905092959194509250565b60805160a05161100961020c60003960008181610165015281816103f1015281816106820152610a710152600081816101310152610aa801526110096000f3fe6080604052600436106100dd5760003560e01c80636fdca5e01161007f5780638da5cb5b116100595780638da5cb5b14610281578063e79864661461029f578063f2fde38b146102bf578063fcfff16f146102df57600080fd5b80636fdca5e014610239578063715018a61461025957806389e039a81461026e57600080fd5b80636717e41c116100bb5780636717e41c1461018757806368c4ac26146101c7578063692e9928146101f75780636c19e7831461021957600080fd5b8063238ac933146100e25780633ce499b41461011f57806361d027b314610153575b600080fd5b3480156100ee57600080fd5b50600254610102906001600160a01b031681565b6040516001600160a01b0390911681526020015b60405180910390f35b34801561012b57600080fd5b506101027f000000000000000000000000000000000000000000000000000000000000000081565b34801561015f57600080fd5b506101027f000000000000000000000000000000000000000000000000000000000000000081565b34801561019357600080fd5b506101b76101a2366004610dda565b60046020526000908152604090205460ff1681565b6040519015158152602001610116565b3480156101d357600080fd5b506101b76101e2366004610e0f565b60036020526000908152604090205460ff1681565b34801561020357600080fd5b50610217610212366004610e7a565b610300565b005b34801561022557600080fd5b50610217610234366004610e0f565b6104c6565b34801561024557600080fd5b50610217610254366004610ef9565b610567565b34801561026557600080fd5b506102176105bc565b61021761027c366004610f16565b6105d0565b34801561028d57600080fd5b506000546001600160a01b0316610102565b3480156102ab57600080fd5b506102176102ba366004610f69565b610787565b3480156102cb57600080fd5b506102176102da366004610e0f565b610833565b3480156102eb57600080fd5b506002546101b790600160a01b900460ff1681565b610308610871565b600254600160a01b900460ff1661034f5760405162461bcd60e51b815260206004820152600660248201526518db1bdcd95960d21b60448201526064015b60405180910390fd5b6001600160a01b03861660009081526003602052604090205460ff166103ad5760405162461bcd60e51b81526020600482015260136024820152721d1bdad95b881b9bdd081cdd5c1c1bdc9d1959606a1b6044820152606401610346565b60006103bc338888888861089b565b90506103ca81848487610903565b6103d43386610a5a565b6040516323b872dd60e01b81523360048201526001600160a01b037f000000000000000000000000000000000000000000000000000000000000000081166024830152604482018890528816906323b872dd906064016020604051808303816000875af1158015610449573d6000803e3d6000fd5b505050506040513d601f19601f8201168201806040525081019061046d9190610fa0565b5060408051868152602081018890526001600160a01b0389169133917fa326259ec721617acd3cb2a00bcbeac91eefe409880e49aa2bbf473ed648da49910160405180910390a3506104be60018055565b505050505050565b6104ce610b5e565b6001600160a01b0381166105125760405162461bcd60e51b815260206004820152600b60248201526a3d32b9379039b4b3b732b960a91b6044820152606401610346565b600280546001600160a01b0319166001600160a01b0383169081179091556040519081527f9eaa897564d022fb8c5efaf0acdb5d9d27b440b2aad44400b6e1c702e65b9ed3906020015b60405180910390a150565b61056f610b5e565b60028054821515600160a01b0260ff60a01b199091161790556040517f50ea4db57628851a1970ad4a3cc76cab7eb7e50b8526f7786e429df90f099d3d9061055c90831515815260200190565b6105c4610b5e565b6105ce6000610b8b565b565b6105d8610871565b600254600160a01b900460ff1661061a5760405162461bcd60e51b815260206004820152600660248201526518db1bdcd95960d21b6044820152606401610346565b600034116106565760405162461bcd60e51b81526020600482015260096024820152681e995c9bc81c185a5960ba1b6044820152606401610346565b600061066633600034888861089b565b905061067481848487610903565b61067e3386610a5a565b60007f00000000000000000000000000000000000000000000000000000000000000006001600160a01b03163460405160006040518083038185875af1925050503d80600081146106eb576040519150601f19603f3d011682016040523d82523d6000602084013e6106f0565b606091505b50509050806107395760405162461bcd60e51b81526020600482015260156024820152741d1c99585cdd5c9e48199bdc9dd85c990819985a5b605a1b6044820152606401610346565b6040805187815234602082015260009133917fa326259ec721617acd3cb2a00bcbeac91eefe409880e49aa2bbf473ed648da49910160405180910390a3505061078160018055565b50505050565b61078f610b5e565b6001600160a01b0382166107d45760405162461bcd60e51b815260206004820152600c60248201526b7a65726f206164647265737360a01b6044820152606401610346565b6001600160a01b038216600081815260036020908152604091829020805460ff191685151590811790915591519182527f8cb3eb851ae519d28551b5cd6070e94b6b456c49a5497287b553d9d0bddfa584910160405180910390a25050565b61083b610b5e565b6001600160a01b03811661086557604051631e4fbdf760e01b815260006004820152602401610346565b61086e81610b8b565b50565b60026001540361089457604051633ee5aeb560e01b815260040160405180910390fd5b6002600155565b6040516bffffffffffffffffffffffff19606087811b8216602084015286901b1660348201526048810184905260688101839052608881018290524660a882015260009060c80160405160208183030381529060405280519060200120905095945050505050565b60008181526004602052604090205460ff16156109575760405162461bcd60e51b81526020600482015260126024820152711b9bdb98d948185b1c9958591e481d5cd95960721b6044820152606401610346565b6000818152600460209081526040808320805460ff19166001179055516109ac918791017f19457468657265756d205369676e6564204d6573736167653a0a3332000000008152601c810191909152603c0190565b6040516020818303038152906040528051906020012090506000610a068286868080601f016020809104026020016040519081016040528093929190818152602001838380828437600092019190915250610bdb92505050565b6002549091506001600160a01b038083169116146104be5760405162461bcd60e51b8152602060048201526011602482015270696e76616c6964207369676e617475726560781b6044820152606401610346565b6040516323b872dd60e01b81526001600160a01b037f0000000000000000000000000000000000000000000000000000000000000000811660048301528381166024830152604482018390527f000000000000000000000000000000000000000000000000000000000000000016906323b872dd906064016020604051808303816000875af1158015610af1573d6000803e3d6000fd5b505050506040513d601f19601f82011682018060405250810190610b159190610fa0565b610b5a5760405162461bcd60e51b81526020600482015260166024820152751d1c99585cdd5c9e481d1c985b9cd9995c8819985a5b60521b6044820152606401610346565b5050565b6000546001600160a01b031633146105ce5760405163118cdaa760e01b8152336004820152602401610346565b600080546001600160a01b038381166001600160a01b0319831681178455604051919092169283917f8be0079c531659141344cd1fd0a4f28419497f9722a3daafe3b4186f6b6457e09190a35050565b600080600080610beb8686610c05565b925092509250610bfb8282610c52565b5090949350505050565b60008060008351604103610c3f5760208401516040850151606086015160001a610c3188828585610d0b565b955095509550505050610c4b565b50508151600091506002905b9250925092565b6000826003811115610c6657610c66610fbd565b03610c6f575050565b6001826003811115610c8357610c83610fbd565b03610ca15760405163f645eedf60e01b815260040160405180910390fd5b6002826003811115610cb557610cb5610fbd565b03610cd65760405163fce698f760e01b815260048101829052602401610346565b6003826003811115610cea57610cea610fbd565b03610b5a576040516335e2f38360e21b815260048101829052602401610346565b600080807f7fffffffffffffffffffffffffffffff5d576e7357a4501ddfe92f46681b20a0841115610d465750600091506003905082610dd0565b604080516000808252602082018084528a905260ff891692820192909252606081018790526080810186905260019060a0016020604051602081039080840390855afa158015610d9a573d6000803e3d6000fd5b5050604051601f1901519150506001600160a01b038116610dc657506000925060019150829050610dd0565b9250600091508190505b9450945094915050565b600060208284031215610dec57600080fd5b5035919050565b80356001600160a01b0381168114610e0a57600080fd5b919050565b600060208284031215610e2157600080fd5b610e2a82610df3565b9392505050565b60008083601f840112610e4357600080fd5b50813567ffffffffffffffff811115610e5b57600080fd5b602083019150836020828501011115610e7357600080fd5b9250929050565b60008060008060008060a08789031215610e9357600080fd5b610e9c87610df3565b9550602087013594506040870135935060608701359250608087013567ffffffffffffffff811115610ecd57600080fd5b610ed989828a01610e31565b979a9699509497509295939492505050565b801515811461086e57600080fd5b600060208284031215610f0b57600080fd5b8135610e2a81610eeb565b60008060008060608587031215610f2c57600080fd5b8435935060208501359250604085013567ffffffffffffffff811115610f5157600080fd5b610f5d87828801610e31565b95989497509550505050565b60008060408385031215610f7c57600080fd5b610f8583610df3565b91506020830135610f9581610eeb565b809150509250929050565b600060208284031215610fb257600080fd5b8151610e2a81610eeb565b634e487b7160e01b600052602160045260246000fdfea2646970667358221220df026a9960b9ed1c9e19722317815909a477366b04ac37db26e0385a8e2759c764736f6c634300081a0033",
  "linkReferences": {},
  "deployedLinkReferences": {}
}