{
  "_format": "hh3-artifact-1",
  "contractName": "SNRGPresale",
  "sourceName": "contracts/SNRGpresale.sol",
  "abi": [
    {
      "inputs": [
        {
          "internalType": "address",
          "name": "_snrg",
          "type": "address"
        },
        {
          "internalType": "address",
          "name": "_TREASURY",
          "type": "address"
        },
        {
          "internalType": "address",
          "name": "owner_",
          "type": "address"
        },
        {
          "internalType": "address",
          "name": "_signer",
          "type": "address"
        }
      ],
      "stateMutability": "nonpayable",
      "type": "constructor"
    },
    {
      "inputs": [],
      "name": "AmountTooHigh",
      "type": "error"
    },
    {
      "inputs": [],
      "name": "AmountTooLow",
      "type": "error"
    },
    {
      "inputs": [],
      "name": "DailyLimitExceeded",
      "type": "error"
    },
    {
      "inputs": [],
      "name": "ECDSAInvalidSignature",
      "type": "error"
    },
    {
      "inputs": [
        {
          "internalType": "uint256",
          "name": "length",
          "type": "uint256"
        }
      ],
      "name": "ECDSAInvalidSignatureLength",
      "type": "error"
    },
    {
      "inputs": [
        {
          "internalType": "bytes32",
          "name": "s",
          "type": "bytes32"
        }
      ],
      "name": "ECDSAInvalidSignatureS",
      "type": "error"
    },
    {
      "inputs": [],
      "name": "EnforcedPause",
      "type": "error"
    },
    {
      "inputs": [],
      "name": "ExpectedPause",
      "type": "error"
    },
    {
      "inputs": [],
      "name": "InsufficientBalance",
      "type": "error"
    },
    {
      "inputs": [],
      "name": "InvalidNonce",
      "type": "error"
    },
    {
      "inputs": [],
      "name": "InvalidSignature",
      "type": "error"
    },
    {
      "inputs": [],
      "name": "NonceAlreadyUsed",
      "type": "error"
    },
    {
      "inputs": [
        {
          "internalType": "address",
          "name": "owner",
          "type": "address"
        }
      ],
      "name": "OwnableInvalidOwner",
      "type": "error"
    },
    {
      "inputs": [
        {
          "internalType": "address",
          "name": "account",
          "type": "address"
        }
      ],
      "name": "OwnableUnauthorizedAccount",
      "type": "error"
    },
    {
      "inputs": [],
      "name": "PresaleClosed",
      "type": "error"
    },
    {
      "inputs": [],
      "name": "PurchaseTooSoon",
      "type": "error"
    },
    {
      "inputs": [],
      "name": "ReentrancyGuardReentrantCall",
      "type": "error"
    },
    {
      "inputs": [
        {
          "internalType": "address",
          "name": "token",
          "type": "address"
        }
      ],
      "name": "SafeERC20FailedOperation",
      "type": "error"
    },
    {
      "inputs": [],
      "name": "TokenNotSupported",
      "type": "error"
    },
    {
      "inputs": [],
      "name": "TreasuryTransferFailed",
      "type": "error"
    },
    {
      "inputs": [],
      "name": "ZeroAddress",
      "type": "error"
    },
    {
      "inputs": [],
      "name": "ZeroAmount",
      "type": "error"
    },
    {
      "anonymous": false,
      "inputs": [
        {
          "indexed": false,
          "internalType": "uint256",
          "name": "amount",
          "type": "uint256"
        }
      ],
      "name": "EthRecovered",
      "type": "event"
    },
    {
      "anonymous": false,
      "inputs": [
        {
          "indexed": false,
          "internalType": "uint256",
          "name": "amount",
          "type": "uint256"
        }
      ],
      "name": "MaxPurchaseAmountSet",
      "type": "event"
    },
    {
      "anonymous": false,
      "inputs": [
        {
          "indexed": false,
          "internalType": "bool",
          "name": "open",
          "type": "bool"
        }
      ],
      "name": "OpenSet",
      "type": "event"
    },
    {
      "anonymous": false,
      "inputs": [
        {
          "indexed": true,
          "internalType": "address",
          "name": "previousOwner",
          "type": "address"
        },
        {
          "indexed": true,
          "internalType": "address",
          "name": "newOwner",
          "type": "address"
        }
      ],
      "name": "OwnershipTransferStarted",
      "type": "event"
    },
    {
      "anonymous": false,
      "inputs": [
        {
          "indexed": true,
          "internalType": "address",
          "name": "previousOwner",
          "type": "address"
        },
        {
          "indexed": true,
          "internalType": "address",
          "name": "newOwner",
          "type": "address"
        }
      ],
      "name": "OwnershipTransferred",
      "type": "event"
    },
    {
      "anonymous": false,
      "inputs": [
        {
          "indexed": false,
          "internalType": "address",
          "name": "account",
          "type": "address"
        }
      ],
      "name": "Paused",
      "type": "event"
    },
    {
      "anonymous": false,
      "inputs": [
        {
          "indexed": true,
          "internalType": "address",
          "name": "buyer",
          "type": "address"
        },
        {
          "indexed": true,
          "internalType": "address",
          "name": "paymentToken",
          "type": "address"
        },
        {
          "indexed": true,
          "internalType": "uint256",
          "name": "snrgAmount",
          "type": "uint256"
        },
        {
          "indexed": false,
          "internalType": "uint256",
          "name": "paidAmount",
          "type": "uint256"
        }
      ],
      "name": "Purchased",
      "type": "event"
    },
    {
      "anonymous": false,
      "inputs": [
        {
          "indexed": true,
          "internalType": "address",
          "name": "oldSigner",
          "type": "address"
        },
        {
          "indexed": true,
          "internalType": "address",
          "name": "newSigner",
          "type": "address"
        }
      ],
      "name": "SignerSet",
      "type": "event"
    },
    {
      "anonymous": false,
      "inputs": [
        {
          "indexed": true,
          "internalType": "address",
          "name": "token",
          "type": "address"
        },
        {
          "indexed": true,
          "internalType": "bool",
          "name": "isSupported",
          "type": "bool"
        }
      ],
      "name": "SupportedTokenSet",
      "type": "event"
    },
    {
      "anonymous": false,
      "inputs": [
        {
          "indexed": true,
          "internalType": "address",
          "name": "token",
          "type": "address"
        },
        {
          "indexed": false,
          "internalType": "uint256",
          "name": "amount",
          "type": "uint256"
        }
      ],
      "name": "TokenRecovered",
      "type": "event"
    },
    {
      "anonymous": false,
      "inputs": [
        {
          "indexed": false,
          "internalType": "address",
          "name": "account",
          "type": "address"
        }
      ],
      "name": "Unpaused",
      "type": "event"
    },
    {
      "inputs": [],
      "name": "MAX_PURCHASES_PER_DAY",
      "outputs": [
        {
          "internalType": "uint256",
          "name": "",
          "type": "uint256"
        }
      ],
      "stateMutability": "view",
      "type": "function"
    },
    {
      "inputs": [],
      "name": "MIN_PURCHASE_AMOUNT",
      "outputs": [
        {
          "internalType": "uint256",
          "name": "",
          "type": "uint256"
        }
      ],
      "stateMutability": "view",
      "type": "function"
    },
    {
      "inputs": [],
      "name": "PURCHASE_COOLDOWN",
      "outputs": [
        {
          "internalType": "uint256",
          "name": "",
          "type": "uint256"
        }
      ],
      "stateMutability": "view",
      "type": "function"
    },
    {
      "inputs": [],
      "name": "SNRG",
      "outputs": [
        {
          "internalType": "contract IERC20",
          "name": "",
          "type": "address"
        }
      ],
      "stateMutability": "view",
      "type": "function"
    },
    {
      "inputs": [],
      "name": "TREASURY",
      "outputs": [
        {
          "internalType": "address",
          "name": "",
          "type": "address"
        }
      ],
      "stateMutability": "view",
      "type": "function"
    },
    {
      "inputs": [],
      "name": "acceptOwnership",
      "outputs": [],
      "stateMutability": "nonpayable",
      "type": "function"
    },
    {
      "inputs": [
        {
          "internalType": "uint256",
          "name": "snrgAmount",
          "type": "uint256"
        },
        {
          "internalType": "uint256",
          "name": "nonce",
          "type": "uint256"
        },
        {
          "internalType": "bytes",
          "name": "signature",
          "type": "bytes"
        }
      ],
      "name": "buyWithNative",
      "outputs": [],
      "stateMutability": "payable",
      "type": "function"
    },
    {
      "inputs": [
        {
          "internalType": "address",
          "name": "paymentToken",
          "type": "address"
        },
        {
          "internalType": "uint256",
          "name": "paymentAmount",
          "type": "uint256"
        },
        {
          "internalType": "uint256",
          "name": "snrgAmount",
          "type": "uint256"
        },
        {
          "internalType": "uint256",
          "name": "nonce",
          "type": "uint256"
        },
        {
          "internalType": "bytes",
          "name": "signature",
          "type": "bytes"
        }
      ],
      "name": "buyWithToken",
      "outputs": [],
      "stateMutability": "nonpayable",
      "type": "function"
    },
    {
      "inputs": [
        {
          "internalType": "address",
          "name": "",
          "type": "address"
        }
      ],
      "name": "dailyPurchaseReset",
      "outputs": [
        {
          "internalType": "uint256",
          "name": "",
          "type": "uint256"
        }
      ],
      "stateMutability": "view",
      "type": "function"
    },
    {
      "inputs": [
        {
          "internalType": "address",
          "name": "buyer",
          "type": "address"
        }
      ],
      "name": "getRemainingPurchasesToday",
      "outputs": [
        {
          "internalType": "uint256",
          "name": "",
          "type": "uint256"
        }
      ],
      "stateMutability": "view",
      "type": "function"
    },
    {
      "inputs": [
        {
          "internalType": "address",
          "name": "buyer",
          "type": "address"
        }
      ],
      "name": "getTimeTillNextPurchase",
      "outputs": [
        {
          "internalType": "uint256",
          "name": "",
          "type": "uint256"
        }
      ],
      "stateMutability": "view",
      "type": "function"
    },
    {
      "inputs": [
        {
          "internalType": "uint256",
          "name": "nonce",
          "type": "uint256"
        }
      ],
      "name": "isNonceUsed",
      "outputs": [
        {
          "internalType": "bool",
          "name": "",
          "type": "bool"
        }
      ],
      "stateMutability": "view",
      "type": "function"
    },
    {
      "inputs": [
        {
          "internalType": "address",
          "name": "",
          "type": "address"
        }
      ],
      "name": "lastPurchaseTime",
      "outputs": [
        {
          "internalType": "uint256",
          "name": "",
          "type": "uint256"
        }
      ],
      "stateMutability": "view",
      "type": "function"
    },
    {
      "inputs": [],
      "name": "maxPurchaseAmount",
      "outputs": [
        {
          "internalType": "uint256",
          "name": "",
          "type": "uint256"
        }
      ],
      "stateMutability": "view",
      "type": "function"
    },
    {
      "inputs": [],
      "name": "open",
      "outputs": [
        {
          "internalType": "bool",
          "name": "",
          "type": "bool"
        }
      ],
      "stateMutability": "view",
      "type": "function"
    },
    {
      "inputs": [],
      "name": "owner",
      "outputs": [
        {
          "internalType": "address",
          "name": "",
          "type": "address"
        }
      ],
      "stateMutability": "view",
      "type": "function"
    },
    {
      "inputs": [],
      "name": "pause",
      "outputs": [],
      "stateMutability": "nonpayable",
      "type": "function"
    },
    {
      "inputs": [],
      "name": "paused",
      "outputs": [
        {
          "internalType": "bool",
          "name": "",
          "type": "bool"
        }
      ],
      "stateMutability": "view",
      "type": "function"
    },
    {
      "inputs": [],
      "name": "pendingOwner",
      "outputs": [
        {
          "internalType": "address",
          "name": "",
          "type": "address"
        }
      ],
      "stateMutability": "view",
      "type": "function"
    },
    {
      "inputs": [
        {
          "internalType": "address",
          "name": "",
          "type": "address"
        }
      ],
      "name": "purchaseCountToday",
      "outputs": [
        {
          "internalType": "uint256",
          "name": "",
          "type": "uint256"
        }
      ],
      "stateMutability": "view",
      "type": "function"
    },
    {
      "inputs": [],
      "name": "recoverEth",
      "outputs": [],
      "stateMutability": "nonpayable",
      "type": "function"
    },
    {
      "inputs": [
        {
          "internalType": "address",
          "name": "token",
          "type": "address"
        },
        {
          "internalType": "uint256",
          "name": "amount",
          "type": "uint256"
        }
      ],
      "name": "recoverToken",
      "outputs": [],
      "stateMutability": "nonpayable",
      "type": "function"
    },
    {
      "inputs": [],
      "name": "renounceOwnership",
      "outputs": [],
      "stateMutability": "nonpayable",
      "type": "function"
    },
    {
      "inputs": [
        {
          "internalType": "uint256",
          "name": "_max",
          "type": "uint256"
        }
      ],
      "name": "setMaxPurchaseAmount",
      "outputs": [],
      "stateMutability": "nonpayable",
      "type": "function"
    },
    {
      "inputs": [
        {
          "internalType": "bool",
          "name": "v",
          "type": "bool"
        }
      ],
      "name": "setOpen",
      "outputs": [],
      "stateMutability": "nonpayable",
      "type": "function"
    },
    {
      "inputs": [
        {
          "internalType": "address",
          "name": "_signer",
          "type": "address"
        }
      ],
      "name": "setSigner",
      "outputs": [],
      "stateMutability": "nonpayable",
      "type": "function"
    },
    {
      "inputs": [
        {
          "internalType": "address",
          "name": "token",
          "type": "address"
        },
        {
          "internalType": "bool",
          "name": "isSupported",
          "type": "bool"
        }
      ],
      "name": "setSupportedToken",
      "outputs": [],
      "stateMutability": "nonpayable",
      "type": "function"
    },
    {
      "inputs": [],
      "name": "signer",
      "outputs": [
        {
          "internalType": "address",
          "name": "",
          "type": "address"
        }
      ],
      "stateMutability": "view",
      "type": "function"
    },
    {
      "inputs": [
        {
          "internalType": "address",
          "name": "",
          "type": "address"
        }
      ],
      "name": "supportedTokens",
      "outputs": [
        {
          "internalType": "bool",
          "name": "",
          "type": "bool"
        }
      ],
      "stateMutability": "view",
      "type": "function"
    },
    {
      "inputs": [
        {
          "internalType": "address",
          "name": "newOwner",
          "type": "address"
        }
      ],
      "name": "transferOwnership",
      "outputs": [],
      "stateMutability": "nonpayable",
      "type": "function"
    },
    {
      "inputs": [],
      "name": "unpause",
      "outputs": [],
      "stateMutability": "nonpayable",
      "type": "function"
    },
    {
      "inputs": [
        {
          "internalType": "uint256",
          "name": "",
          "type": "uint256"
        }
      ],
      "name": "usedNonces",
      "outputs": [
        {
          "internalType": "bool",
          "name": "",
          "type": "bool"
        }
      ],
      "stateMutability": "view",
      "type": "function"
    }
  ],
  "bytecode": "0x60c060405234801561001057600080fd5b50604051611d2f380380611d2f83398101604081905261002f916101d2565b816001600160a01b03811661005e57604051631e4fbdf760e01b81526000600482015260240160405180910390fd5b6100678161014a565b5060016002556001600160a01b0384166100945760405163d92e233d60e01b815260040160405180910390fd5b6001600160a01b0383166100bb5760405163d92e233d60e01b815260040160405180910390fd5b6001600160a01b0381166100e25760405163d92e233d60e01b815260040160405180910390fd5b6001600160a01b0382166101095760405163d92e233d60e01b815260040160405180910390fd5b6001600160a01b0393841660805291831660a05250600380549190921661010002610100600160a81b0319909116179055662386f26fc10000600955610226565b600180546001600160a01b031916905561016381610166565b50565b600080546001600160a01b038381166001600160a01b0319831681178455604051919092169283917f8be0079c531659141344cd1fd0a4f28419497f9722a3daafe3b4186f6b6457e09190a35050565b80516001600160a01b03811681146101cd57600080fd5b919050565b600080600080608085870312156101e857600080fd5b6101f1856101b6565b93506101ff602086016101b6565b925061020d604086016101b6565b915061021b606086016101b6565b905092959194509250565b60805160a051611ab361027c600039600081816102d9015281816107bc01528181610a5a0152818161129c015261138101526000818161047b01528181610bc4015281816112c6015261135f0152611ab36000f3fe6080604052600436106101e35760003560e01c806379ba509711610102578063bcdb446b11610095578063e798646611610064578063e7986466146105b9578063f2fde38b146105d9578063f952fcad146105f9578063fcfff16f1461060f57600080fd5b8063bcdb446b14610550578063c3da0cf314610565578063e30c39781461057b578063e6d3c2731461059957600080fd5b80638da5cb5b116100d15780638da5cb5b146104c5578063a5fa12f0146104e3578063ac5427cb14610503578063b29a81401461053057600080fd5b806379ba5097146104545780637c06d133146104695780638456cb591461049d57806389e039a8146104b257600080fd5b80635c975abb1161017a578063692e992811610149578063692e9928146103df5780636c19e783146103ff5780636fdca5e01461041f578063715018a61461043f57600080fd5b80635c975abb1461032b5780635d00bb121461034f5780636717e41c1461037f57806368c4ac26146103af57600080fd5b8063278cc8fb116101b6578063278cc8fb146102b25780632d2c5565146102c75780633f4ba83a146102fb57806354545bfb1461031257600080fd5b806304a82f1d146101e857806310ec70db14610228578063227a14c114610248578063238ac93314610275575b600080fd5b3480156101f457600080fd5b50610215610203366004611829565b60086020526000908152604090205481565b6040519081526020015b60405180910390f35b34801561023457600080fd5b50610215610243366004611829565b610630565b34801561025457600080fd5b50610215610263366004611829565b60066020526000908152604090205481565b34801561028157600080fd5b5060035461029a9061010090046001600160a01b031681565b6040516001600160a01b03909116815260200161021f565b3480156102be57600080fd5b50610215600a81565b3480156102d357600080fd5b5061029a7f000000000000000000000000000000000000000000000000000000000000000081565b34801561030757600080fd5b5061031061067b565b005b34801561031e57600080fd5b50610215643a3529440081565b34801561033757600080fd5b5060035460ff165b604051901515815260200161021f565b34801561035b57600080fd5b5061033f61036a36600461184b565b60009081526005602052604090205460ff1690565b34801561038b57600080fd5b5061033f61039a36600461184b565b60056020526000908152604090205460ff1681565b3480156103bb57600080fd5b5061033f6103ca366004611829565b60046020526000908152604090205460ff1681565b3480156103eb57600080fd5b506103106103fa3660046118ad565b61068d565b34801561040b57600080fd5b5061031061041a366004611829565b610842565b34801561042b57600080fd5b5061031061043a36600461192e565b6108cb565b34801561044b57600080fd5b5061031061092b565b34801561046057600080fd5b5061031061093d565b34801561047557600080fd5b5061029a7f000000000000000000000000000000000000000000000000000000000000000081565b3480156104a957600080fd5b50610310610986565b6103106104c0366004611949565b610996565b3480156104d157600080fd5b506000546001600160a01b031661029a565b3480156104ef57600080fd5b506103106104fe36600461184b565b610b36565b34801561050f57600080fd5b5061021561051e366004611829565b60076020526000908152604090205481565b34801561053c57600080fd5b5061031061054b36600461199c565b610bba565b34801561055c57600080fd5b50610310610ca8565b34801561057157600080fd5b5061021561012c81565b34801561058757600080fd5b506001546001600160a01b031661029a565b3480156105a557600080fd5b506102156105b4366004611829565b610d7d565b3480156105c557600080fd5b506103106105d43660046119c6565b610ddb565b3480156105e557600080fd5b506103106105f4366004611829565b610e5e565b34801561060557600080fd5b5061021560095481565b34801561061b57600080fd5b5060035461033f90600160a81b900460ff1681565b6001600160a01b0381166000908152600660205260408120548161065661012c83611a0f565b9050804210610669575060009392505050565b6106734282611a22565b949350505050565b610683610ecf565b61068b610efc565b565b610695610f4e565b61069d610f76565b600354600160a81b900460ff166106c75760405163178883df60e01b815260040160405180910390fd5b6001600160a01b0386166106ee5760405163d92e233d60e01b815260040160405180910390fd5b6001600160a01b03861660009081526004602052604090205460ff1661072757604051633dd1b30560e01b815260040160405180910390fd5b8460000361074857604051631f2a200560e01b815260040160405180910390fd5b8360000361076957604051631f2a200560e01b815260040160405180910390fd5b6107733385610f9a565b61077c83611086565b600061078b33888888886110c0565b905061079981848487611132565b6107a3338661123d565b6107ac336113ab565b6107e16001600160a01b038816337f00000000000000000000000000000000000000000000000000000000000000008961143a565b84876001600160a01b0316336001600160a01b03167fa326259ec721617acd3cb2a00bcbeac91eefe409880e49aa2bbf473ed648da498960405161082791815260200190565b60405180910390a45061083a6001600255565b505050505050565b61084a610ecf565b6001600160a01b0381166108715760405163d92e233d60e01b815260040160405180910390fd5b600380546001600160a01b03838116610100818102610100600160a81b031985161790945560405193909204169182907fb0604c365feafa080c833b6f6814d321a7561528e696ac2a112c2a0231b0ed3590600090a35050565b6108d3610ecf565b60038054821515600160a81b0260ff60a81b199091161790556040517f50ea4db57628851a1970ad4a3cc76cab7eb7e50b8526f7786e429df90f099d3d9061092090831515815260200190565b60405180910390a150565b610933610ecf565b61068b60006114a1565b60015433906001600160a01b0316811461097a5760405163118cdaa760e01b81526001600160a01b03821660048201526024015b60405180910390fd5b610983816114a1565b50565b61098e610ecf565b61068b6114ba565b61099e610f4e565b6109a6610f76565b600354600160a81b900460ff166109d05760405163178883df60e01b815260040160405180910390fd5b836000036109f157604051631f2a200560e01b815260040160405180910390fd5b34600003610a1257604051631f2a200560e01b815260040160405180910390fd5b610a1c3385610f9a565b610a2583611086565b6000610a353360003488886110c0565b9050610a4381848487611132565b610a4d338661123d565b610a56336113ab565b60007f00000000000000000000000000000000000000000000000000000000000000006001600160a01b03163460405160006040518083038185875af1925050503d8060008114610ac3576040519150601f19603f3d011682016040523d82523d6000602084013e610ac8565b606091505b5050905080610aea576040516301c6e79f60e31b815260040160405180910390fd5b604051348152869060009033907fa326259ec721617acd3cb2a00bcbeac91eefe409880e49aa2bbf473ed648da499060200160405180910390a45050610b306001600255565b50505050565b610b3e610ecf565b80600003610b5f57604051631f2a200560e01b815260040160405180910390fd5b643a35294400811015610b8557604051631fbaba3560e01b815260040160405180910390fd5b60098190556040518181527f8ecc72c3407903662c5bb408b4850247cd2ddb73aa1b5d9aea211a621ef31e3d90602001610920565b610bc2610ecf565b7f00000000000000000000000000000000000000000000000000000000000000006001600160a01b0316826001600160a01b031603610c1457604051633dd1b30560e01b815260040160405180910390fd5b6001600160a01b038216610c3b5760405163d92e233d60e01b815260040160405180910390fd5b610c61610c506000546001600160a01b031690565b6001600160a01b03841690836114f7565b816001600160a01b03167f4590b594be6fdef6bd5e18792a2494ddf2156b618c7bbe48d13a92831208af0582604051610c9c91815260200190565b60405180910390a25050565b610cb0610ecf565b4780610ccf57604051631f2a200560e01b815260040160405180910390fd5b6040518181527e11c1bdb5965933f608d0bc497be566373bf4df36100d2afd78d60f0d1ab85d9060200160405180910390a1600080546040516001600160a01b039091169190829084908381818185875af1925050503d8060008114610d51576040519150601f19603f3d011682016040523d82523d6000602084013e610d56565b606091505b5050905080610d78576040516301c6e79f60e31b815260040160405180910390fd5b505050565b6001600160a01b0381166000908152600860209081526040808320546007909252822054610dae8262015180611a0f565b4210610dbe5750600a9392505050565b600a8110610dd0575060009392505050565b61067381600a611a22565b610de3610ecf565b6001600160a01b038216610e0a5760405163d92e233d60e01b815260040160405180910390fd5b6001600160a01b038216600081815260046020526040808220805460ff191685151590811790915590519092917f8cb3eb851ae519d28551b5cd6070e94b6b456c49a5497287b553d9d0bddfa58491a35050565b610e66610ecf565b600180546001600160a01b0383166001600160a01b03199091168117909155610e976000546001600160a01b031690565b6001600160a01b03167f38d16b8cac22d99fc7c124b9cd0de2d3fa1faef420bfe791d8c362d765e2270060405160405180910390a350565b6000546001600160a01b0316331461068b5760405163118cdaa760e01b8152336004820152602401610971565b610f04611528565b6003805460ff191690557f5db9ee0a495bf2e6ff9c91a7834c1ba4fdd244a5e8aa4e537bd38aeae4b073aa335b6040516001600160a01b03909116815260200160405180910390a1565b6002805403610f7057604051633ee5aeb560e01b815260040160405180910390fd5b60028055565b60035460ff161561068b5760405163d93c066560e01b815260040160405180910390fd5b643a35294400811015610fc057604051631fbaba3560e01b815260040160405180910390fd5b600954811115610fe35760405163fd7850ad60e01b815260040160405180910390fd5b6001600160a01b0382166000908152600660205260409020546110099061012c90611a0f565b42101561102957604051635eae700b60e01b815260040160405180910390fd5b6001600160a01b03821660009081526008602090815260408083205460079092529091205461105b8262015180611a0f565b4210611065575060005b600a8110610b3057604051630652f4c560e21b815260040160405180910390fd5b8015806110a257506fffffffffffffffffffffffffffffffff81115b1561098357604051633ab3447f60e11b815260040160405180910390fd5b6040516bffffffffffffffffffffffff19606087811b8216602084015286811b821660348401526048830186905260688301859052608883018490524660a884015230901b1660c882015260009060dc0160405160208183030381529060405280519060200120905095945050505050565b60008181526005602052604090205460ff161561116157604051623f613760e71b815260040160405180910390fd5b7f19457468657265756d205369676e6564204d6573736167653a0a3332000000006000908152601c859052603c8120905060006111d48286868080601f01602080910402602001604051908101604052809392919081815260200183838082843760009201919091525061154b92505050565b90506001600160a01b03811615806111ff57506003546001600160a01b038281166101009092041614155b1561121d57604051638baa579f60e01b815260040160405180910390fd5b50506000908152600560205260409020805460ff19166001179055505050565b6001600160a01b0382166112645760405163d92e233d60e01b815260040160405180910390fd5b8060000361128557604051631f2a200560e01b815260040160405180910390fd5b6040516370a0823160e01b81526001600160a01b037f00000000000000000000000000000000000000000000000000000000000000008116600483015282917f0000000000000000000000000000000000000000000000000000000000000000909116906370a0823190602401602060405180830381865afa15801561130f573d6000803e3d6000fd5b505050506040513d601f19601f820116820180604052508101906113339190611a35565b101561135257604051631e9acf1760e31b815260040160405180910390fd5b6113a76001600160a01b037f0000000000000000000000000000000000000000000000000000000000000000167f0000000000000000000000000000000000000000000000000000000000000000848461143a565b5050565b6001600160a01b038116600090815260066020908152604080832042905560089091529020546113de9062015180611a0f565b421061140e576001600160a01b031660009081526007602090815260408083206001905560089091529020429055565b6001600160a01b038116600090815260076020526040812080549161143283611a4e565b919050555050565b6040516001600160a01b038481166024830152838116604483015260648201839052610b309186918216906323b872dd906084015b604051602081830303815290604052915060e01b6020820180516001600160e01b038381831617835250505050611577565b600180546001600160a01b0319169055610983816115e8565b6114c2610f76565b6003805460ff191660011790557f62e78cea01bee320cd4e420270b5ea74000d11b0c9f74754ebdbfc544b05a258610f313390565b6040516001600160a01b03838116602483015260448201839052610d7891859182169063a9059cbb9060640161146f565b60035460ff1661068b57604051638dfc202b60e01b815260040160405180910390fd5b60008060008061155b8686611638565b92509250925061156b8282611685565b50909150505b92915050565b600080602060008451602086016000885af18061159a576040513d6000823e3d81fd5b50506000513d915081156115b25780600114156115bf565b6001600160a01b0384163b155b15610b3057604051635274afe760e01b81526001600160a01b0385166004820152602401610971565b600080546001600160a01b038381166001600160a01b0319831681178455604051919092169283917f8be0079c531659141344cd1fd0a4f28419497f9722a3daafe3b4186f6b6457e09190a35050565b600080600083516041036116725760208401516040850151606086015160001a6116648882858561173e565b95509550955050505061167e565b50508151600091506002905b9250925092565b600082600381111561169957611699611a67565b036116a2575050565b60018260038111156116b6576116b6611a67565b036116d45760405163f645eedf60e01b815260040160405180910390fd5b60028260038111156116e8576116e8611a67565b036117095760405163fce698f760e01b815260048101829052602401610971565b600382600381111561171d5761171d611a67565b036113a7576040516335e2f38360e21b815260048101829052602401610971565b600080807f7fffffffffffffffffffffffffffffff5d576e7357a4501ddfe92f46681b20a08411156117795750600091506003905082611803565b604080516000808252602082018084528a905260ff891692820192909252606081018790526080810186905260019060a0016020604051602081039080840390855afa1580156117cd573d6000803e3d6000fd5b5050604051601f1901519150506001600160a01b0381166117f957506000925060019150829050611803565b9250600091508190505b9450945094915050565b80356001600160a01b038116811461182457600080fd5b919050565b60006020828403121561183b57600080fd5b6118448261180d565b9392505050565b60006020828403121561185d57600080fd5b5035919050565b60008083601f84011261187657600080fd5b50813567ffffffffffffffff81111561188e57600080fd5b6020830191508360208285010111156118a657600080fd5b9250929050565b60008060008060008060a087890312156118c657600080fd5b6118cf8761180d565b9550602087013594506040870135935060608701359250608087013567ffffffffffffffff81111561190057600080fd5b61190c89828a01611864565b979a9699509497509295939492505050565b8035801515811461182457600080fd5b60006020828403121561194057600080fd5b6118448261191e565b6000806000806060858703121561195f57600080fd5b8435935060208501359250604085013567ffffffffffffffff81111561198457600080fd5b61199087828801611864565b95989497509550505050565b600080604083850312156119af57600080fd5b6119b88361180d565b946020939093013593505050565b600080604083850312156119d957600080fd5b6119e28361180d565b91506119f06020840161191e565b90509250929050565b634e487b7160e01b600052601160045260246000fd5b80820180821115611571576115716119f9565b81810381811115611571576115716119f9565b600060208284031215611a4757600080fd5b5051919050565b600060018201611a6057611a606119f9565b5060010190565b634e487b7160e01b600052602160045260246000fdfea26469706673582212207b919db30fac72ff44ac48d45756ca3fc21f15ffa22e21577e45c78c6bbb6ff264736f6c634300081c0033",
  "linkReferences": {},
  "deployedLinkReferences": {},
  "immutableReferences": {
    "6535": [
      {
        "length": 32,
        "start": 1147
      },
      {
        "length": 32,
        "start": 3012
      },
      {
        "length": 32,
        "start": 4806
      },
      {
        "length": 32,
        "start": 4959
      }
    ],
    "6538": [
      {
        "length": 32,
        "start": 729
      },
      {
        "length": 32,
        "start": 1980
      },
      {
        "length": 32,
        "start": 2650
      },
      {
        "length": 32,
        "start": 4764
      },
      {
        "length": 32,
        "start": 4993
      }
    ]
  },
  "inputSourceName": "project/contracts/SNRGpresale.sol",
  "buildInfoId": "solc-0_8_28-08b6b21c6bafc74aa860428c088847463d5c34e9"
}