{
  "_format": "hh-sol-artifact-1",
  "contractName": "SelfRescueRegistry",
  "sourceName": "contracts/SelfRescueRegistry.sol",
  "abi": [
    {
      "inputs": [
        {
          "internalType": "address",
          "name": "owner_",
          "type": "address"
        }
      ],
      "stateMutability": "nonpayable",
      "type": "constructor"
    },
    {
      "inputs": [
        {
          "internalType": "address",
          "name": "owner",
          "type": "address"
        }
      ],
      "name": "OwnableInvalidOwner",
      "type": "error"
    },
    {
      "inputs": [
        {
          "internalType": "address",
          "name": "account",
          "type": "address"
        }
      ],
      "name": "OwnableUnauthorizedAccount",
      "type": "error"
    },
    {
      "anonymous": false,
      "inputs": [
        {
          "indexed": true,
          "internalType": "address",
          "name": "executor",
          "type": "address"
        },
        {
          "indexed": false,
          "internalType": "bool",
          "name": "enabled",
          "type": "bool"
        }
      ],
      "name": "ExecutorSet",
      "type": "event"
    },
    {
      "anonymous": false,
      "inputs": [
        {
          "indexed": true,
          "internalType": "address",
          "name": "previousOwner",
          "type": "address"
        },
        {
          "indexed": true,
          "internalType": "address",
          "name": "newOwner",
          "type": "address"
        }
      ],
      "name": "OwnershipTransferred",
      "type": "event"
    },
    {
      "anonymous": false,
      "inputs": [
        {
          "indexed": true,
          "internalType": "address",
          "name": "user",
          "type": "address"
        },
        {
          "indexed": true,
          "internalType": "address",
          "name": "recovery",
          "type": "address"
        },
        {
          "indexed": false,
          "internalType": "uint64",
          "name": "delay",
          "type": "uint64"
        }
      ],
      "name": "PlanRegistered",
      "type": "event"
    },
    {
      "anonymous": false,
      "inputs": [
        {
          "indexed": true,
          "internalType": "address",
          "name": "user",
          "type": "address"
        }
      ],
      "name": "RescueCanceled",
      "type": "event"
    },
    {
      "anonymous": false,
      "inputs": [
        {
          "indexed": true,
          "internalType": "address",
          "name": "user",
          "type": "address"
        },
        {
          "indexed": true,
          "internalType": "address",
          "name": "recovery",
          "type": "address"
        },
        {
          "indexed": false,
          "internalType": "uint256",
          "name": "amount",
          "type": "uint256"
        }
      ],
      "name": "RescueExecuted",
      "type": "event"
    },
    {
      "anonymous": false,
      "inputs": [
        {
          "indexed": true,
          "internalType": "address",
          "name": "user",
          "type": "address"
        },
        {
          "indexed": false,
          "internalType": "uint64",
          "name": "eta",
          "type": "uint64"
        }
      ],
      "name": "RescueInitiated",
      "type": "event"
    },
    {
      "inputs": [],
      "name": "MINIMUM_RESCUE_DELAY",
      "outputs": [
        {
          "internalType": "uint64",
          "name": "",
          "type": "uint64"
        }
      ],
      "stateMutability": "view",
      "type": "function"
    },
    {
      "inputs": [
        {
          "internalType": "address",
          "name": "victim",
          "type": "address"
        }
      ],
      "name": "canExecuteRescue",
      "outputs": [
        {
          "internalType": "bool",
          "name": "",
          "type": "bool"
        }
      ],
      "stateMutability": "view",
      "type": "function"
    },
    {
      "inputs": [],
      "name": "cancelRescue",
      "outputs": [],
      "stateMutability": "nonpayable",
      "type": "function"
    },
    {
      "inputs": [
        {
          "internalType": "address",
          "name": "victim",
          "type": "address"
        },
        {
          "internalType": "uint256",
          "name": "amount",
          "type": "uint256"
        }
      ],
      "name": "executeRescue",
      "outputs": [],
      "stateMutability": "nonpayable",
      "type": "function"
    },
    {
      "inputs": [],
      "name": "initiateRescue",
      "outputs": [],
      "stateMutability": "nonpayable",
      "type": "function"
    },
    {
      "inputs": [
        {
          "internalType": "address",
          "name": "",
          "type": "address"
        }
      ],
      "name": "isExecutor",
      "outputs": [
        {
          "internalType": "bool",
          "name": "",
          "type": "bool"
        }
      ],
      "stateMutability": "view",
      "type": "function"
    },
    {
      "inputs": [
        {
          "internalType": "address",
          "name": "caller",
          "type": "address"
        }
      ],
      "name": "isRescueExecutor",
      "outputs": [
        {
          "internalType": "bool",
          "name": "",
          "type": "bool"
        }
      ],
      "stateMutability": "view",
      "type": "function"
    },
    {
      "inputs": [],
      "name": "owner",
      "outputs": [
        {
          "internalType": "address",
          "name": "",
          "type": "address"
        }
      ],
      "stateMutability": "view",
      "type": "function"
    },
    {
      "inputs": [
        {
          "internalType": "address",
          "name": "",
          "type": "address"
        }
      ],
      "name": "plans",
      "outputs": [
        {
          "internalType": "address",
          "name": "recovery",
          "type": "address"
        },
        {
          "internalType": "uint64",
          "name": "delay",
          "type": "uint64"
        },
        {
          "internalType": "uint64",
          "name": "eta",
          "type": "uint64"
        }
      ],
      "stateMutability": "view",
      "type": "function"
    },
    {
      "inputs": [
        {
          "internalType": "address",
          "name": "recovery",
          "type": "address"
        },
        {
          "internalType": "uint64",
          "name": "delay",
          "type": "uint64"
        }
      ],
      "name": "registerPlan",
      "outputs": [],
      "stateMutability": "nonpayable",
      "type": "function"
    },
    {
      "inputs": [],
      "name": "renounceOwnership",
      "outputs": [],
      "stateMutability": "nonpayable",
      "type": "function"
    },
    {
      "inputs": [
        {
          "internalType": "address",
          "name": "exec",
          "type": "address"
        },
        {
          "internalType": "bool",
          "name": "enabled",
          "type": "bool"
        }
      ],
      "name": "setExecutor",
      "outputs": [],
      "stateMutability": "nonpayable",
      "type": "function"
    },
    {
      "inputs": [
        {
          "internalType": "address",
          "name": "_token",
          "type": "address"
        }
      ],
      "name": "setToken",
      "outputs": [],
      "stateMutability": "nonpayable",
      "type": "function"
    },
    {
      "inputs": [],
      "name": "token",
      "outputs": [
        {
          "internalType": "address",
          "name": "",
          "type": "address"
        }
      ],
      "stateMutability": "view",
      "type": "function"
    },
    {
      "inputs": [
        {
          "internalType": "address",
          "name": "newOwner",
          "type": "address"
        }
      ],
      "name": "transferOwnership",
      "outputs": [],
      "stateMutability": "nonpayable",
      "type": "function"
    }
  ],
  "bytecode": "0x608060405234801561001057600080fd5b50604051610d83380380610d8383398101604081905261002f9161010f565b806001600160a01b03811661005e57604051631e4fbdf760e01b81526000600482015260240160405180910390fd5b610067816100bf565b5030600081815260036020908152604091829020805460ff1916600190811790915591519182527f278b09622564dd3991fe7744514513d64ea2c8ed2b2b9ec1150ad964fde80a99910160405180910390a25061013f565b600080546001600160a01b038381166001600160a01b0319831681178455604051919092169283917f8be0079c531659141344cd1fd0a4f28419497f9722a3daafe3b4186f6b6457e09190a35050565b60006020828403121561012157600080fd5b81516001600160a01b038116811461013857600080fd5b9392505050565b610c358061014e6000396000f3fe608060405234801561001057600080fd5b50600436106100f55760003560e01c806377ad178911610097578063debfda3011610066578063debfda301461025d578063e38f642b14610280578063f2fde38b14610293578063fc0c546a146102a657600080fd5b806377ad17891461019d57806386d86d84146101b05780638da5cb5b14610225578063c135a32f1461024a57600080fd5b80634722e45f116100d35780634722e45f1461012a578063578e2cbf1461016b5780635901242d14610173578063715018a61461019557600080fd5b8063144fa6d7146100fa5780631e1bff3f1461010f578063441e13e214610122575b600080fd5b61010d610108366004610ad4565b6102b9565b005b61010d61011d366004610afd565b610381565b61010d6103e8565b610156610138366004610ad4565b6001600160a01b031660009081526003602052604090205460ff1690565b60405190151581526020015b60405180910390f35b61010d610485565b61017d6201518081565b6040516001600160401b039091168152602001610162565b61010d61054b565b6101566101ab366004610ad4565b61055f565b6101f66101be366004610ad4565b600160208190526000918252604090912080549101546001600160a01b038216916001600160401b03600160a01b9091048116911683565b604080516001600160a01b0390941684526001600160401b039283166020850152911690820152606001610162565b6000546001600160a01b03165b6040516001600160a01b039091168152602001610162565b61010d610258366004610b34565b6105d4565b61015661026b366004610ad4565b60036020526000908152604090205460ff1681565b61010d61028e366004610b5e565b6108b1565b61010d6102a1366004610ad4565b6109fd565b600254610232906001600160a01b031681565b6102c1610a3b565b6002546001600160a01b03161561031f5760405162461bcd60e51b815260206004820152601960248201527f546f6b656e206164647265737320616c7265616479207365740000000000000060448201526064015b60405180910390fd5b6001600160a01b03811661035f5760405162461bcd60e51b81526020600482015260076024820152660746f6b656e3d360cc1b6044820152606401610316565b600280546001600160a01b0319166001600160a01b0392909216919091179055565b610389610a3b565b6001600160a01b038216600081815260036020908152604091829020805460ff191685151590811790915591519182527f278b09622564dd3991fe7744514513d64ea2c8ed2b2b9ec1150ad964fde80a99910160405180910390a25050565b33600090815260016020819052604082209081015490916001600160401b0390911690036104445760405162461bcd60e51b81526020600482015260096024820152686e6f2061637469766560b81b6044820152606401610316565b60018101805467ffffffffffffffff1916905560405133907f0ab9842ce0dffeab4aee60b04501a0c0c65fc0b7a5461ffd05c5f3b6ab7b89f390600090a250565b33600090815260016020526040902080546001600160a01b03166104d55760405162461bcd60e51b8152602060048201526007602482015266373790383630b760c91b6044820152606401610316565b80546104f190600160a01b90046001600160401b031642610b96565b60018201805467ffffffffffffffff19166001600160401b0392909216918217905560405190815233907fe3c511524301dc65364724083c18d8e632b5630a180da0932e2aa61b53b8fd919060200160405180910390a250565b610553610a3b565b61055d6000610a68565b565b6001600160a01b038181166000908152600160208181526040808420815160608101835281549687168152600160a01b9096046001600160401b03908116938701939093529092015416908301819052909190158015906105cd575080604001516001600160401b03164210155b9392505050565b6001600160a01b03828116600090815260016020818152604092839020835160608101855281549586168152600160a01b9095046001600160401b0390811692860192909252909101541690820181905215801590610640575080604001516001600160401b03164210155b61067a5760405162461bcd60e51b815260206004820152600b60248201526a1b9bdd081b585d1d5c995960aa1b6044820152606401610316565b600082116106b55760405162461bcd60e51b81526020600482015260086024820152670616d6f756e743d360c41b6044820152606401610316565b6001600160a01b038381166000818152600160208190526040808320909101805467ffffffffffffffff1916905560025490516370a0823160e01b81526004810193909352909216906370a0823190602401602060405180830381865afa158015610724573d6000803e3d6000fd5b505050506040513d601f19601f820116820180604052508101906107489190610bc9565b9050808311156107915760405162461bcd60e51b8152602060048201526014602482015273696e73756666696369656e742062616c616e636560601b6044820152606401610316565b60025482516040516323b872dd60e01b81526001600160a01b03878116600483015291821660248201526044810186905260009291909116906323b872dd906064016020604051808303816000875af11580156107f2573d6000803e3d6000fd5b505050506040513d601f19601f820116820180604052508101906108169190610be2565b9050806108595760405162461bcd60e51b81526020600482015260116024820152701d1c985b9cd9995c919c9bdb4819985a5b607a1b6044820152606401610316565b82600001516001600160a01b0316856001600160a01b03167ffcf739fed0bf519b94a625ab220552af9d831b695bea37c6f5bae8820aced04c866040516108a291815260200190565b60405180910390a35050505050565b6001600160a01b0382166108f45760405162461bcd60e51b815260206004820152600a60248201526907265636f766572793d360b41b6044820152606401610316565b620151806001600160401b03821610156109425760405162461bcd60e51b815260206004820152600f60248201526e19195b185e481d1bdbc81cda1bdc9d608a1b6044820152606401610316565b604080516060810182526001600160a01b038481168083526001600160401b0385811660208086018281526000878901818152338083526001808652928b902099518a5494518816600160a01b026001600160e01b03199095169916989098179290921788559051960180549690931667ffffffffffffffff199096169590951790915593519384529290917f4f7eb6323fc760fda49aa241614e986fd050e0969b95b4a74fa1c5b98085bafe910160405180910390a35050565b610a05610a3b565b6001600160a01b038116610a2f57604051631e4fbdf760e01b815260006004820152602401610316565b610a3881610a68565b50565b6000546001600160a01b0316331461055d5760405163118cdaa760e01b8152336004820152602401610316565b600080546001600160a01b038381166001600160a01b0319831681178455604051919092169283917f8be0079c531659141344cd1fd0a4f28419497f9722a3daafe3b4186f6b6457e09190a35050565b80356001600160a01b0381168114610acf57600080fd5b919050565b600060208284031215610ae657600080fd5b6105cd82610ab8565b8015158114610a3857600080fd5b60008060408385031215610b1057600080fd5b610b1983610ab8565b91506020830135610b2981610aef565b809150509250929050565b60008060408385031215610b4757600080fd5b610b5083610ab8565b946020939093013593505050565b60008060408385031215610b7157600080fd5b610b7a83610ab8565b915060208301356001600160401b0381168114610b2957600080fd5b6001600160401b038181168382160190811115610bc357634e487b7160e01b600052601160045260246000fd5b92915050565b600060208284031215610bdb57600080fd5b5051919050565b600060208284031215610bf457600080fd5b81516105cd81610aef56fea26469706673582212206b05885f518784aa0f5a6fe9ed220a8a66975624380b783b10da218d275b07da64736f6c634300081a0033",
  "linkReferences": {},
  "deployedLinkReferences": {}
}