{
  "_format": "hh3-artifact-1",
  "contractName": "SelfRescueRegistry",
  "sourceName": "contracts/SelfRescueRegistry.sol",
  "abi": [
    {
      "inputs": [
        {
          "internalType": "address",
          "name": "owner_",
          "type": "address"
        },
        {
          "internalType": "address",
          "name": "_TOKEN",
          "type": "address"
        }
      ],
      "stateMutability": "nonpayable",
      "type": "constructor"
    },
    {
      "inputs": [],
      "name": "CooldownActive",
      "type": "error"
    },
    {
      "inputs": [],
      "name": "DelayTooLong",
      "type": "error"
    },
    {
      "inputs": [],
      "name": "DelayTooShort",
      "type": "error"
    },
    {
      "inputs": [],
      "name": "EnforcedPause",
      "type": "error"
    },
    {
      "inputs": [],
      "name": "ExceedsMaxRescue",
      "type": "error"
    },
    {
      "inputs": [],
      "name": "ExpectedPause",
      "type": "error"
    },
    {
      "inputs": [],
      "name": "InsufficientAllowance",
      "type": "error"
    },
    {
      "inputs": [],
      "name": "InsufficientBalance",
      "type": "error"
    },
    {
      "inputs": [],
      "name": "InvalidRecovery",
      "type": "error"
    },
    {
      "inputs": [],
      "name": "NoActiveRescue",
      "type": "error"
    },
    {
      "inputs": [],
      "name": "NoPlanRegistered",
      "type": "error"
    },
    {
      "inputs": [],
      "name": "NotMatured",
      "type": "error"
    },
    {
      "inputs": [
        {
          "internalType": "address",
          "name": "owner",
          "type": "address"
        }
      ],
      "name": "OwnableInvalidOwner",
      "type": "error"
    },
    {
      "inputs": [
        {
          "internalType": "address",
          "name": "account",
          "type": "address"
        }
      ],
      "name": "OwnableUnauthorizedAccount",
      "type": "error"
    },
    {
      "inputs": [],
      "name": "ReentrancyGuardReentrantCall",
      "type": "error"
    },
    {
      "inputs": [],
      "name": "RescueAlreadyActive",
      "type": "error"
    },
    {
      "inputs": [],
      "name": "TransferFailed",
      "type": "error"
    },
    {
      "inputs": [],
      "name": "UnauthorizedCaller",
      "type": "error"
    },
    {
      "inputs": [],
      "name": "ZeroAddress",
      "type": "error"
    },
    {
      "inputs": [],
      "name": "ZeroAmount",
      "type": "error"
    },
    {
      "anonymous": false,
      "inputs": [
        {
          "indexed": true,
          "internalType": "address",
          "name": "executor",
          "type": "address"
        },
        {
          "indexed": false,
          "internalType": "bool",
          "name": "enabled",
          "type": "bool"
        }
      ],
      "name": "ExecutorSet",
      "type": "event"
    },
    {
      "anonymous": false,
      "inputs": [
        {
          "indexed": false,
          "internalType": "uint256",
          "name": "amount",
          "type": "uint256"
        }
      ],
      "name": "MaxRescueAmountSet",
      "type": "event"
    },
    {
      "anonymous": false,
      "inputs": [
        {
          "indexed": true,
          "internalType": "address",
          "name": "previousOwner",
          "type": "address"
        },
        {
          "indexed": true,
          "internalType": "address",
          "name": "newOwner",
          "type": "address"
        }
      ],
      "name": "OwnershipTransferStarted",
      "type": "event"
    },
    {
      "anonymous": false,
      "inputs": [
        {
          "indexed": true,
          "internalType": "address",
          "name": "previousOwner",
          "type": "address"
        },
        {
          "indexed": true,
          "internalType": "address",
          "name": "newOwner",
          "type": "address"
        }
      ],
      "name": "OwnershipTransferred",
      "type": "event"
    },
    {
      "anonymous": false,
      "inputs": [
        {
          "indexed": false,
          "internalType": "address",
          "name": "account",
          "type": "address"
        }
      ],
      "name": "Paused",
      "type": "event"
    },
    {
      "anonymous": false,
      "inputs": [
        {
          "indexed": true,
          "internalType": "address",
          "name": "user",
          "type": "address"
        },
        {
          "indexed": true,
          "internalType": "address",
          "name": "recovery",
          "type": "address"
        },
        {
          "indexed": false,
          "internalType": "uint64",
          "name": "delay",
          "type": "uint64"
        }
      ],
      "name": "PlanRegistered",
      "type": "event"
    },
    {
      "anonymous": false,
      "inputs": [
        {
          "indexed": true,
          "internalType": "address",
          "name": "user",
          "type": "address"
        }
      ],
      "name": "RescueCanceled",
      "type": "event"
    },
    {
      "anonymous": false,
      "inputs": [
        {
          "indexed": true,
          "internalType": "address",
          "name": "user",
          "type": "address"
        },
        {
          "indexed": true,
          "internalType": "address",
          "name": "recovery",
          "type": "address"
        },
        {
          "indexed": false,
          "internalType": "uint256",
          "name": "amount",
          "type": "uint256"
        }
      ],
      "name": "RescueExecuted",
      "type": "event"
    },
    {
      "anonymous": false,
      "inputs": [
        {
          "indexed": true,
          "internalType": "address",
          "name": "user",
          "type": "address"
        },
        {
          "indexed": false,
          "internalType": "uint64",
          "name": "eta",
          "type": "uint64"
        }
      ],
      "name": "RescueInitiated",
      "type": "event"
    },
    {
      "anonymous": false,
      "inputs": [
        {
          "indexed": false,
          "internalType": "address",
          "name": "account",
          "type": "address"
        }
      ],
      "name": "Unpaused",
      "type": "event"
    },
    {
      "inputs": [],
      "name": "MINIMUM_RESCUE_DELAY",
      "outputs": [
        {
          "internalType": "uint64",
          "name": "",
          "type": "uint64"
        }
      ],
      "stateMutability": "view",
      "type": "function"
    },
    {
      "inputs": [],
      "name": "RESCUE_COOLDOWN",
      "outputs": [
        {
          "internalType": "uint256",
          "name": "",
          "type": "uint256"
        }
      ],
      "stateMutability": "view",
      "type": "function"
    },
    {
      "inputs": [],
      "name": "TOKEN",
      "outputs": [
        {
          "internalType": "address",
          "name": "",
          "type": "address"
        }
      ],
      "stateMutability": "view",
      "type": "function"
    },
    {
      "inputs": [],
      "name": "acceptOwnership",
      "outputs": [],
      "stateMutability": "nonpayable",
      "type": "function"
    },
    {
      "inputs": [
        {
          "internalType": "address",
          "name": "victim",
          "type": "address"
        }
      ],
      "name": "canExecuteRescue",
      "outputs": [
        {
          "internalType": "bool",
          "name": "",
          "type": "bool"
        }
      ],
      "stateMutability": "view",
      "type": "function"
    },
    {
      "inputs": [],
      "name": "cancelRescue",
      "outputs": [],
      "stateMutability": "nonpayable",
      "type": "function"
    },
    {
      "inputs": [
        {
          "internalType": "address",
          "name": "victim",
          "type": "address"
        },
        {
          "internalType": "uint256",
          "name": "amount",
          "type": "uint256"
        }
      ],
      "name": "executeRescue",
      "outputs": [],
      "stateMutability": "nonpayable",
      "type": "function"
    },
    {
      "inputs": [],
      "name": "initiateRescue",
      "outputs": [],
      "stateMutability": "nonpayable",
      "type": "function"
    },
    {
      "inputs": [
        {
          "internalType": "address",
          "name": "",
          "type": "address"
        }
      ],
      "name": "isExecutor",
      "outputs": [
        {
          "internalType": "bool",
          "name": "",
          "type": "bool"
        }
      ],
      "stateMutability": "view",
      "type": "function"
    },
    {
      "inputs": [
        {
          "internalType": "address",
          "name": "caller",
          "type": "address"
        }
      ],
      "name": "isRescueExecutor",
      "outputs": [
        {
          "internalType": "bool",
          "name": "",
          "type": "bool"
        }
      ],
      "stateMutability": "view",
      "type": "function"
    },
    {
      "inputs": [
        {
          "internalType": "address",
          "name": "",
          "type": "address"
        }
      ],
      "name": "lastRescueTime",
      "outputs": [
        {
          "internalType": "uint256",
          "name": "",
          "type": "uint256"
        }
      ],
      "stateMutability": "view",
      "type": "function"
    },
    {
      "inputs": [],
      "name": "maxRescueAmount",
      "outputs": [
        {
          "internalType": "uint256",
          "name": "",
          "type": "uint256"
        }
      ],
      "stateMutability": "view",
      "type": "function"
    },
    {
      "inputs": [],
      "name": "owner",
      "outputs": [
        {
          "internalType": "address",
          "name": "",
          "type": "address"
        }
      ],
      "stateMutability": "view",
      "type": "function"
    },
    {
      "inputs": [],
      "name": "pause",
      "outputs": [],
      "stateMutability": "nonpayable",
      "type": "function"
    },
    {
      "inputs": [],
      "name": "paused",
      "outputs": [
        {
          "internalType": "bool",
          "name": "",
          "type": "bool"
        }
      ],
      "stateMutability": "view",
      "type": "function"
    },
    {
      "inputs": [],
      "name": "pendingOwner",
      "outputs": [
        {
          "internalType": "address",
          "name": "",
          "type": "address"
        }
      ],
      "stateMutability": "view",
      "type": "function"
    },
    {
      "inputs": [
        {
          "internalType": "address",
          "name": "",
          "type": "address"
        }
      ],
      "name": "plans",
      "outputs": [
        {
          "internalType": "address",
          "name": "recovery",
          "type": "address"
        },
        {
          "internalType": "uint64",
          "name": "delay",
          "type": "uint64"
        },
        {
          "internalType": "uint64",
          "name": "eta",
          "type": "uint64"
        }
      ],
      "stateMutability": "view",
      "type": "function"
    },
    {
      "inputs": [
        {
          "internalType": "address",
          "name": "recovery",
          "type": "address"
        },
        {
          "internalType": "uint64",
          "name": "delay",
          "type": "uint64"
        }
      ],
      "name": "registerPlan",
      "outputs": [],
      "stateMutability": "nonpayable",
      "type": "function"
    },
    {
      "inputs": [],
      "name": "renounceOwnership",
      "outputs": [],
      "stateMutability": "nonpayable",
      "type": "function"
    },
    {
      "inputs": [
        {
          "internalType": "address",
          "name": "exec",
          "type": "address"
        },
        {
          "internalType": "bool",
          "name": "enabled",
          "type": "bool"
        }
      ],
      "name": "setExecutor",
      "outputs": [],
      "stateMutability": "nonpayable",
      "type": "function"
    },
    {
      "inputs": [
        {
          "internalType": "uint256",
          "name": "maxAmount",
          "type": "uint256"
        }
      ],
      "name": "setMaxRescueAmount",
      "outputs": [],
      "stateMutability": "nonpayable",
      "type": "function"
    },
    {
      "inputs": [
        {
          "internalType": "address",
          "name": "newOwner",
          "type": "address"
        }
      ],
      "name": "transferOwnership",
      "outputs": [],
      "stateMutability": "nonpayable",
      "type": "function"
    },
    {
      "inputs": [],
      "name": "unpause",
      "outputs": [],
      "stateMutability": "nonpayable",
      "type": "function"
    }
  ],
  "bytecode": "0x60a060405234801561001057600080fd5b5060405161130738038061130783398101604081905261002f916101a8565b816001600160a01b03811661005e57604051631e4fbdf760e01b81526000600482015260240160405180910390fd5b61006781610120565b5060016002556001600160a01b0382166100945760405163d92e233d60e01b815260040160405180910390fd5b6001600160a01b0381166100bb5760405163d92e233d60e01b815260040160405180910390fd5b6001600160a01b03811660805230600081815260076020908152604091829020805460ff1916600190811790915591519182527f278b09622564dd3991fe7744514513d64ea2c8ed2b2b9ec1150ad964fde80a99910160405180910390a250506101db565b600180546001600160a01b03191690556101398161013c565b50565b600080546001600160a01b038381166001600160a01b0319831681178455604051919092169283917f8be0079c531659141344cd1fd0a4f28419497f9722a3daafe3b4186f6b6457e09190a35050565b80516001600160a01b03811681146101a357600080fd5b919050565b600080604083850312156101bb57600080fd5b6101c48361018c565b91506101d26020840161018c565b90509250929050565b6080516110fc61020b600039600081816102430152818161094b01528181610a030152610ae601526110fc6000f3fe608060405234801561001057600080fd5b506004361061014d5760003560e01c806382bfefc8116100c3578063c135a32f1161007c578063c135a32f14610328578063debfda301461033b578063e30c39781461035e578063e38f642b1461036f578063e94ca8f614610382578063f2fde38b1461038b57600080fd5b806382bfefc81461023e5780638456cb591461027d57806385152f901461028557806386d86d84146102985780638da5cb5b1461030d578063aa966ba31461031e57600080fd5b8063578e2cbf11610115578063578e2cbf146101e65780635901242d146101ee5780635c975abb14610210578063715018a61461021b57806377ad17891461022357806379ba50971461023657600080fd5b80631e1bff3f146101525780632cb36f50146101675780633f4ba83a1461019a578063441e13e2146101a25780634722e45f146101aa575b600080fd5b610165610160366004610f75565b61039e565b005b610187610175366004610fac565b60066020526000908152604090205481565b6040519081526020015b60405180910390f35b61016561042c565b61016561043e565b6101d66101b8366004610fac565b6001600160a01b031660009081526007602052604090205460ff1690565b6040519015158152602001610191565b6101656104cc565b6101f862093a8081565b6040516001600160401b039091168152602001610191565b60035460ff166101d6565b610165610600565b6101d6610231366004610fac565b610612565b610165610687565b6102657f000000000000000000000000000000000000000000000000000000000000000081565b6040516001600160a01b039091168152602001610191565b6101656106d0565b610165610293366004610fc7565b6106e0565b6102de6102a6366004610fac565b600560205260009081526040902080546001909101546001600160a01b038216916001600160401b03600160a01b9091048116911683565b604080516001600160a01b0390941684526001600160401b039283166020850152911690820152606001610191565b6000546001600160a01b0316610265565b6101876276a70081565b610165610336366004610fe0565b610744565b6101d6610349366004610fac565b60076020526000908152604090205460ff1681565b6001546001600160a01b0316610265565b61016561037d36600461100a565b610bd6565b61018760045481565b610165610399366004610fac565b610d46565b6103a6610db7565b6001600160a01b0382166103cd5760405163d92e233d60e01b815260040160405180910390fd5b6001600160a01b038216600081815260076020908152604091829020805460ff191685151590811790915591519182527f278b09622564dd3991fe7744514513d64ea2c8ed2b2b9ec1150ad964fde80a99910160405180910390a25050565b610434610db7565b61043c610de4565b565b336000908152600560205260408120600181015490916001600160401b03909116900361047e576040516329ee989f60e21b815260040160405180910390fd5b60018101805467ffffffffffffffff1916905533600081815260066020526040808220829055517f0ab9842ce0dffeab4aee60b04501a0c0c65fc0b7a5461ffd05c5f3b6ab7b89f39190a250565b6104d4610e36565b33600090815260056020526040902080546001600160a01b031661050b57604051631682024560e31b815260040160405180910390fd5b60018101546001600160401b0316156105375760405163806075ab60e01b815260040160405180910390fd5b33600090815260066020526040902054610555906276a70090611058565b4210156105755760405163aa9a98df60e01b815260040160405180910390fd5b336000908152600660205260409020429081905581546105a691600160a01b9091046001600160401b031690611071565b60018201805467ffffffffffffffff19166001600160401b0392909216918217905560405190815233907fe3c511524301dc65364724083c18d8e632b5630a180da0932e2aa61b53b8fd919060200160405180910390a250565b610608610db7565b61043c6000610e5a565b6001600160a01b0380821660009081526005602090815260408083208151606081018352815495861681526001600160401b03600160a01b90960486169381019390935260010154909316928101839052909115801590610680575080604001516001600160401b03164210155b9392505050565b60015433906001600160a01b031681146106c45760405163118cdaa760e01b81526001600160a01b03821660048201526024015b60405180910390fd5b6106cd81610e5a565b50565b6106d8610db7565b61043c610e73565b6106e8610db7565b8060000361070957604051631f2a200560e01b815260040160405180910390fd5b60048190556040518181527fa769a99a96c4d1f54295c465077db708879473bc251308833f7895a98b8051d99060200160405180910390a150565b61074c610eb0565b610754610e36565b3360009081526007602052604090205460ff1615801561077d5750336001600160a01b03831614155b156107f9576001600160a01b03808316600090815260056020908152604091829020825160608101845281549485168082526001600160401b03600160a01b9096048616938201939093526001909101549093169183019190915233146107f757604051635c427cd960e01b815260040160405180910390fd5b505b6001600160a01b0382166108205760405163d92e233d60e01b815260040160405180910390fd5b8060000361084157604051631f2a200560e01b815260040160405180910390fd5b6001600160a01b03808316600090815260056020908152604091829020825160608101845281549485168082526001600160401b03600160a01b909604861693820193909352600190910154909316918301919091526108b457604051631682024560e31b815260040160405180910390fd5b60408101516001600160401b031615806108da575080604001516001600160401b031642105b156108f85760405163111c440960e01b815260040160405180910390fd5b600060045411801561090b575060045482115b1561092957604051631c681d6f60e31b815260040160405180910390fd5b6040516370a0823160e01b81526001600160a01b0384811660048301526000917f0000000000000000000000000000000000000000000000000000000000000000909116906370a0823190602401602060405180830381865afa158015610994573d6000803e3d6000fd5b505050506040513d601f19601f820116820180604052508101906109b89190611090565b9050808311156109db57604051631e9acf1760e31b815260040160405180910390fd5b604051636eb1769f60e11b81526001600160a01b0385811660048301523060248301526000917f00000000000000000000000000000000000000000000000000000000000000009091169063dd62ed3e90604401602060405180830381865afa158015610a4c573d6000803e3d6000fd5b505050506040513d601f19601f82011682018060405250810190610a709190611090565b905083811015610a93576040516313be252b60e01b815260040160405180910390fd5b6001600160a01b03858116600081815260056020526040808220600101805467ffffffffffffffff19169055865190516323b872dd60e01b815260048101939093528316602483015260448201879052917f000000000000000000000000000000000000000000000000000000000000000016906323b872dd906064016020604051808303816000875af1158015610b2f573d6000803e3d6000fd5b505050506040513d601f19601f82011682018060405250810190610b5391906110a9565b905080610b73576040516312171d8360e31b815260040160405180910390fd5b83600001516001600160a01b0316866001600160a01b03167ffcf739fed0bf519b94a625ab220552af9d831b695bea37c6f5bae8820aced04c87604051610bbc91815260200190565b60405180910390a350505050610bd26001600255565b5050565b610bde610e36565b6001600160a01b038216610c055760405163d92e233d60e01b815260040160405180910390fd5b336001600160a01b03831603610c2e5760405163f7eb744d60e01b815260040160405180910390fd5b62093a806001600160401b0382161015610c5b5760405163514e00f160e01b815260040160405180910390fd5b6301e13380816001600160401b03161115610c8957604051632b11ea0760e21b815260040160405180910390fd5b604080516060810182526001600160a01b038481168083526001600160401b03858116602080860182815260008789018181523380835260058552918a90209851895493518716600160a01b026001600160e01b03199094169816979097179190911787559451600190960180549690931667ffffffffffffffff199096169590951790915593519384529290917f4f7eb6323fc760fda49aa241614e986fd050e0969b95b4a74fa1c5b98085bafe910160405180910390a35050565b610d4e610db7565b600180546001600160a01b0383166001600160a01b03199091168117909155610d7f6000546001600160a01b031690565b6001600160a01b03167f38d16b8cac22d99fc7c124b9cd0de2d3fa1faef420bfe791d8c362d765e2270060405160405180910390a350565b6000546001600160a01b0316331461043c5760405163118cdaa760e01b81523360048201526024016106bb565b610dec610ed8565b6003805460ff191690557f5db9ee0a495bf2e6ff9c91a7834c1ba4fdd244a5e8aa4e537bd38aeae4b073aa335b6040516001600160a01b03909116815260200160405180910390a1565b60035460ff161561043c5760405163d93c066560e01b815260040160405180910390fd5b600180546001600160a01b03191690556106cd81610efb565b610e7b610e36565b6003805460ff191660011790557f62e78cea01bee320cd4e420270b5ea74000d11b0c9f74754ebdbfc544b05a258610e193390565b6002805403610ed257604051633ee5aeb560e01b815260040160405180910390fd5b60028055565b60035460ff1661043c57604051638dfc202b60e01b815260040160405180910390fd5b600080546001600160a01b038381166001600160a01b0319831681178455604051919092169283917f8be0079c531659141344cd1fd0a4f28419497f9722a3daafe3b4186f6b6457e09190a35050565b80356001600160a01b0381168114610f6257600080fd5b919050565b80151581146106cd57600080fd5b60008060408385031215610f8857600080fd5b610f9183610f4b565b91506020830135610fa181610f67565b809150509250929050565b600060208284031215610fbe57600080fd5b61068082610f4b565b600060208284031215610fd957600080fd5b5035919050565b60008060408385031215610ff357600080fd5b610ffc83610f4b565b946020939093013593505050565b6000806040838503121561101d57600080fd5b61102683610f4b565b915060208301356001600160401b0381168114610fa157600080fd5b634e487b7160e01b600052601160045260246000fd5b8082018082111561106b5761106b611042565b92915050565b6001600160401b03818116838216019081111561106b5761106b611042565b6000602082840312156110a257600080fd5b5051919050565b6000602082840312156110bb57600080fd5b815161068081610f6756fea2646970667358221220d82d6ec7b65dc2d1c68448f24162e3c57d82c89d57353d5378f4a136d1832a6e64736f6c634300081c0033",
  "linkReferences": {},
  "deployedLinkReferences": {},
  "immutableReferences": {
    "8690": [
      {
        "length": 32,
        "start": 579
      },
      {
        "length": 32,
        "start": 2379
      },
      {
        "length": 32,
        "start": 2563
      },
      {
        "length": 32,
        "start": 2790
      }
    ]
  },
  "inputSourceName": "project/contracts/SelfRescueRegistry.sol",
  "buildInfoId": "solc-0_8_28-08b6b21c6bafc74aa860428c088847463d5c34e9"
}