{
  "_format": "hh-sol-artifact-1",
  "contractName": "SNRGToken",
  "sourceName": "contracts/SNRGtoken.sol",
  "abi": [
    {
      "inputs": [
        {
          "internalType": "address",
          "name": "_treasury",
          "type": "address"
        }
      ],
      "stateMutability": "nonpayable",
      "type": "constructor"
    },
    {
      "inputs": [],
      "name": "ECDSAInvalidSignature",
      "type": "error"
    },
    {
      "inputs": [
        {
          "internalType": "uint256",
          "name": "length",
          "type": "uint256"
        }
      ],
      "name": "ECDSAInvalidSignatureLength",
      "type": "error"
    },
    {
      "inputs": [
        {
          "internalType": "bytes32",
          "name": "s",
          "type": "bytes32"
        }
      ],
      "name": "ECDSAInvalidSignatureS",
      "type": "error"
    },
    {
      "inputs": [
        {
          "internalType": "address",
          "name": "spender",
          "type": "address"
        },
        {
          "internalType": "uint256",
          "name": "allowance",
          "type": "uint256"
        },
        {
          "internalType": "uint256",
          "name": "needed",
          "type": "uint256"
        }
      ],
      "name": "ERC20InsufficientAllowance",
      "type": "error"
    },
    {
      "inputs": [
        {
          "internalType": "address",
          "name": "sender",
          "type": "address"
        },
        {
          "internalType": "uint256",
          "name": "balance",
          "type": "uint256"
        },
        {
          "internalType": "uint256",
          "name": "needed",
          "type": "uint256"
        }
      ],
      "name": "ERC20InsufficientBalance",
      "type": "error"
    },
    {
      "inputs": [
        {
          "internalType": "address",
          "name": "approver",
          "type": "address"
        }
      ],
      "name": "ERC20InvalidApprover",
      "type": "error"
    },
    {
      "inputs": [
        {
          "internalType": "address",
          "name": "receiver",
          "type": "address"
        }
      ],
      "name": "ERC20InvalidReceiver",
      "type": "error"
    },
    {
      "inputs": [
        {
          "internalType": "address",
          "name": "sender",
          "type": "address"
        }
      ],
      "name": "ERC20InvalidSender",
      "type": "error"
    },
    {
      "inputs": [
        {
          "internalType": "address",
          "name": "spender",
          "type": "address"
        }
      ],
      "name": "ERC20InvalidSpender",
      "type": "error"
    },
    {
      "inputs": [
        {
          "internalType": "uint256",
          "name": "deadline",
          "type": "uint256"
        }
      ],
      "name": "ERC2612ExpiredSignature",
      "type": "error"
    },
    {
      "inputs": [
        {
          "internalType": "address",
          "name": "signer",
          "type": "address"
        },
        {
          "internalType": "address",
          "name": "owner",
          "type": "address"
        }
      ],
      "name": "ERC2612InvalidSigner",
      "type": "error"
    },
    {
      "inputs": [
        {
          "internalType": "address",
          "name": "account",
          "type": "address"
        },
        {
          "internalType": "uint256",
          "name": "currentNonce",
          "type": "uint256"
        }
      ],
      "name": "InvalidAccountNonce",
      "type": "error"
    },
    {
      "inputs": [],
      "name": "InvalidShortString",
      "type": "error"
    },
    {
      "inputs": [],
      "name": "NotAuthorized",
      "type": "error"
    },
    {
      "inputs": [
        {
          "internalType": "address",
          "name": "owner",
          "type": "address"
        }
      ],
      "name": "OwnableInvalidOwner",
      "type": "error"
    },
    {
      "inputs": [
        {
          "internalType": "address",
          "name": "account",
          "type": "address"
        }
      ],
      "name": "OwnableUnauthorizedAccount",
      "type": "error"
    },
    {
      "inputs": [
        {
          "internalType": "string",
          "name": "str",
          "type": "string"
        }
      ],
      "name": "StringTooLong",
      "type": "error"
    },
    {
      "inputs": [],
      "name": "TransfersDisabled",
      "type": "error"
    },
    {
      "anonymous": false,
      "inputs": [
        {
          "indexed": true,
          "internalType": "address",
          "name": "owner",
          "type": "address"
        },
        {
          "indexed": true,
          "internalType": "address",
          "name": "spender",
          "type": "address"
        },
        {
          "indexed": false,
          "internalType": "uint256",
          "name": "value",
          "type": "uint256"
        }
      ],
      "name": "Approval",
      "type": "event"
    },
    {
      "anonymous": false,
      "inputs": [],
      "name": "EIP712DomainChanged",
      "type": "event"
    },
    {
      "anonymous": false,
      "inputs": [
        {
          "indexed": true,
          "internalType": "address",
          "name": "previousOwner",
          "type": "address"
        },
        {
          "indexed": true,
          "internalType": "address",
          "name": "newOwner",
          "type": "address"
        }
      ],
      "name": "OwnershipTransferred",
      "type": "event"
    },
    {
      "anonymous": false,
      "inputs": [
        {
          "indexed": true,
          "internalType": "address",
          "name": "from",
          "type": "address"
        },
        {
          "indexed": true,
          "internalType": "address",
          "name": "to",
          "type": "address"
        },
        {
          "indexed": false,
          "internalType": "uint256",
          "name": "value",
          "type": "uint256"
        }
      ],
      "name": "Transfer",
      "type": "event"
    },
    {
      "inputs": [],
      "name": "DOMAIN_SEPARATOR",
      "outputs": [
        {
          "internalType": "bytes32",
          "name": "",
          "type": "bytes32"
        }
      ],
      "stateMutability": "view",
      "type": "function"
    },
    {
      "inputs": [
        {
          "internalType": "address",
          "name": "owner",
          "type": "address"
        },
        {
          "internalType": "address",
          "name": "spender",
          "type": "address"
        }
      ],
      "name": "allowance",
      "outputs": [
        {
          "internalType": "uint256",
          "name": "",
          "type": "uint256"
        }
      ],
      "stateMutability": "view",
      "type": "function"
    },
    {
      "inputs": [
        {
          "internalType": "address",
          "name": "spender",
          "type": "address"
        },
        {
          "internalType": "uint256",
          "name": "value",
          "type": "uint256"
        }
      ],
      "name": "approve",
      "outputs": [
        {
          "internalType": "bool",
          "name": "",
          "type": "bool"
        }
      ],
      "stateMutability": "nonpayable",
      "type": "function"
    },
    {
      "inputs": [
        {
          "internalType": "address",
          "name": "account",
          "type": "address"
        }
      ],
      "name": "balanceOf",
      "outputs": [
        {
          "internalType": "uint256",
          "name": "",
          "type": "uint256"
        }
      ],
      "stateMutability": "view",
      "type": "function"
    },
    {
      "inputs": [
        {
          "internalType": "uint256",
          "name": "value",
          "type": "uint256"
        }
      ],
      "name": "burn",
      "outputs": [],
      "stateMutability": "nonpayable",
      "type": "function"
    },
    {
      "inputs": [
        {
          "internalType": "address",
          "name": "account",
          "type": "address"
        },
        {
          "internalType": "uint256",
          "name": "value",
          "type": "uint256"
        }
      ],
      "name": "burnFrom",
      "outputs": [],
      "stateMutability": "nonpayable",
      "type": "function"
    },
    {
      "inputs": [],
      "name": "decimals",
      "outputs": [
        {
          "internalType": "uint8",
          "name": "",
          "type": "uint8"
        }
      ],
      "stateMutability": "pure",
      "type": "function"
    },
    {
      "inputs": [],
      "name": "eip712Domain",
      "outputs": [
        {
          "internalType": "bytes1",
          "name": "fields",
          "type": "bytes1"
        },
        {
          "internalType": "string",
          "name": "name",
          "type": "string"
        },
        {
          "internalType": "string",
          "name": "version",
          "type": "string"
        },
        {
          "internalType": "uint256",
          "name": "chainId",
          "type": "uint256"
        },
        {
          "internalType": "address",
          "name": "verifyingContract",
          "type": "address"
        },
        {
          "internalType": "bytes32",
          "name": "salt",
          "type": "bytes32"
        },
        {
          "internalType": "uint256[]",
          "name": "extensions",
          "type": "uint256[]"
        }
      ],
      "stateMutability": "view",
      "type": "function"
    },
    {
      "inputs": [],
      "name": "name",
      "outputs": [
        {
          "internalType": "string",
          "name": "",
          "type": "string"
        }
      ],
      "stateMutability": "view",
      "type": "function"
    },
    {
      "inputs": [
        {
          "internalType": "address",
          "name": "owner",
          "type": "address"
        }
      ],
      "name": "nonces",
      "outputs": [
        {
          "internalType": "uint256",
          "name": "",
          "type": "uint256"
        }
      ],
      "stateMutability": "view",
      "type": "function"
    },
    {
      "inputs": [],
      "name": "owner",
      "outputs": [
        {
          "internalType": "address",
          "name": "",
          "type": "address"
        }
      ],
      "stateMutability": "view",
      "type": "function"
    },
    {
      "inputs": [
        {
          "internalType": "address",
          "name": "owner",
          "type": "address"
        },
        {
          "internalType": "address",
          "name": "spender",
          "type": "address"
        },
        {
          "internalType": "uint256",
          "name": "value",
          "type": "uint256"
        },
        {
          "internalType": "uint256",
          "name": "deadline",
          "type": "uint256"
        },
        {
          "internalType": "uint8",
          "name": "v",
          "type": "uint8"
        },
        {
          "internalType": "bytes32",
          "name": "r",
          "type": "bytes32"
        },
        {
          "internalType": "bytes32",
          "name": "s",
          "type": "bytes32"
        }
      ],
      "name": "permit",
      "outputs": [],
      "stateMutability": "nonpayable",
      "type": "function"
    },
    {
      "inputs": [],
      "name": "renounceOwnership",
      "outputs": [],
      "stateMutability": "nonpayable",
      "type": "function"
    },
    {
      "inputs": [],
      "name": "rescueRegistry",
      "outputs": [
        {
          "internalType": "contract IRescueRegistry",
          "name": "",
          "type": "address"
        }
      ],
      "stateMutability": "view",
      "type": "function"
    },
    {
      "inputs": [
        {
          "internalType": "address",
          "name": "_staking",
          "type": "address"
        },
        {
          "internalType": "address",
          "name": "_swap",
          "type": "address"
        },
        {
          "internalType": "address",
          "name": "_rescueRegistry",
          "type": "address"
        }
      ],
      "name": "setEndpoints",
      "outputs": [],
      "stateMutability": "nonpayable",
      "type": "function"
    },
    {
      "inputs": [],
      "name": "staking",
      "outputs": [
        {
          "internalType": "address",
          "name": "",
          "type": "address"
        }
      ],
      "stateMutability": "view",
      "type": "function"
    },
    {
      "inputs": [],
      "name": "swap",
      "outputs": [
        {
          "internalType": "address",
          "name": "",
          "type": "address"
        }
      ],
      "stateMutability": "view",
      "type": "function"
    },
    {
      "inputs": [],
      "name": "symbol",
      "outputs": [
        {
          "internalType": "string",
          "name": "",
          "type": "string"
        }
      ],
      "stateMutability": "view",
      "type": "function"
    },
    {
      "inputs": [],
      "name": "totalSupply",
      "outputs": [
        {
          "internalType": "uint256",
          "name": "",
          "type": "uint256"
        }
      ],
      "stateMutability": "view",
      "type": "function"
    },
    {
      "inputs": [
        {
          "internalType": "address",
          "name": "to",
          "type": "address"
        },
        {
          "internalType": "uint256",
          "name": "value",
          "type": "uint256"
        }
      ],
      "name": "transfer",
      "outputs": [
        {
          "internalType": "bool",
          "name": "",
          "type": "bool"
        }
      ],
      "stateMutability": "nonpayable",
      "type": "function"
    },
    {
      "inputs": [
        {
          "internalType": "address",
          "name": "from",
          "type": "address"
        },
        {
          "internalType": "address",
          "name": "to",
          "type": "address"
        },
        {
          "internalType": "uint256",
          "name": "value",
          "type": "uint256"
        }
      ],
      "name": "transferFrom",
      "outputs": [
        {
          "internalType": "bool",
          "name": "",
          "type": "bool"
        }
      ],
      "stateMutability": "nonpayable",
      "type": "function"
    },
    {
      "inputs": [
        {
          "internalType": "address",
          "name": "newOwner",
          "type": "address"
        }
      ],
      "name": "transferOwnership",
      "outputs": [],
      "stateMutability": "nonpayable",
      "type": "function"
    },
    {
      "inputs": [],
      "name": "treasury",
      "outputs": [
        {
          "internalType": "address",
          "name": "",
          "type": "address"
        }
      ],
      "stateMutability": "view",
      "type": "function"
    }
  ],
  "bytecode": "0x61016060405234801561001157600080fd5b50604051611e0a380380611e0a83398101604081905261003091610652565b3360405180604001604052806004815260200163534e524760e01b81525080604051806040016040528060018152602001603160f81b8152506040518060400160405280601481526020017f53796e657267792050726573616c6520436f696e00000000000000000000000081525060405180604001604052806004815260200163534e524760e01b81525081600390816100cb919061071e565b5060046100d8828261071e565b506100e891508390506005610253565b610120526100f7816006610253565b61014052815160208084019190912060e052815190820120610100524660a05261018460e05161010051604080517f8b73c3c69bb8fe3d512ecc4cf759cc79239f7b179b0ffacaa9a75d522b39400f60208201529081019290925260608201524660808201523060a082015260009060c00160405160208183030381529060405280519060200120905090565b60805250503060c052506001600160a01b0381166101bd57604051631e4fbdf760e01b8152600060048201526024015b60405180910390fd5b6101c681610286565b506001600160a01b03811661020a5760405162461bcd60e51b815260206004820152600a602482015269074726561737572793d360b41b60448201526064016101b4565b61022e8161021a6009600a6108d9565b61022990640165a0bc006108e8565b6102d8565b600c80546001600160a01b0319166001600160a01b03929092169190911790556109a6565b600060208351101561026f5761026883610312565b9050610280565b8161027a848261071e565b5060ff90505b92915050565b600880546001600160a01b038381166001600160a01b0319831681179093556040519116919082907f8be0079c531659141344cd1fd0a4f28419497f9722a3daafe3b4186f6b6457e090600090a35050565b6001600160a01b0382166103025760405163ec442f0560e01b8152600060048201526024016101b4565b61030e60008383610350565b5050565b600080829050601f8151111561033d578260405163305a27a960e01b81526004016101b491906108ff565b80516103488261094d565b179392505050565b6001600160a01b03838116159083161581158261036b575080155b15610516576009546000906001600160a01b038781169116148061039c5750600a546001600160a01b038781169116145b806103b45750600c546001600160a01b038781169116145b6009549091506000906001600160a01b03878116911614806103e35750600a546001600160a01b038781169116145b600b549091506000906001600160a01b0316156104e457600b54604051634722e45f60e01b81523360048201526001600160a01b0390911690634722e45f90602401602060405180830381865afa158015610442573d6000803e3d6000fd5b505050506040513d601f19601f820116820180604052508101906104669190610971565b80156104db5750600b546040516377ad178960e01b81526001600160a01b038a81166004830152909116906377ad178990602401602060405180830381865afa1580156104b7573d6000803e3d6000fd5b505050506040513d601f19601f820116820180604052508101906104db9190610971565b156104e4575060015b82806104ed5750815b806104f55750805b61051257604051638574adcf60e01b815260040160405180910390fd5b5050505b610521858585610528565b5050505050565b6001600160a01b0383166105535780600260008282546105489190610993565b909155506105c59050565b6001600160a01b038316600090815260208190526040902054818110156105a65760405163391434e360e21b81526001600160a01b038516600482015260248101829052604481018390526064016101b4565b6001600160a01b03841660009081526020819052604090209082900390555b6001600160a01b0382166105e157600280548290039055610600565b6001600160a01b03821660009081526020819052604090208054820190555b816001600160a01b0316836001600160a01b03167fddf252ad1be2c89b69c2b068fc378daa952ba7f163c4a11628f55a4df523b3ef8360405161064591815260200190565b60405180910390a3505050565b60006020828403121561066457600080fd5b81516001600160a01b038116811461067b57600080fd5b9392505050565b634e487b7160e01b600052604160045260246000fd5b600181811c908216806106ac57607f821691505b6020821081036106cc57634e487b7160e01b600052602260045260246000fd5b50919050565b601f82111561071957806000526020600020601f840160051c810160208510156106f95750805b601f840160051c820191505b818110156105215760008155600101610705565b505050565b81516001600160401b0381111561073757610737610682565b61074b816107458454610698565b846106d2565b6020601f82116001811461077f57600083156107675750848201515b600019600385901b1c1916600184901b178455610521565b600084815260208120601f198516915b828110156107af578785015182556020948501946001909201910161078f565b50848210156107cd5786840151600019600387901b60f8161c191681555b50505050600190811b01905550565b634e487b7160e01b600052601160045260246000fd5b6001815b600184111561082d57808504811115610811576108116107dc565b600184161561081f57908102905b60019390931c9280026107f6565b935093915050565b60008261084457506001610280565b8161085157506000610280565b816001811461086757600281146108715761088d565b6001915050610280565b60ff841115610882576108826107dc565b50506001821b610280565b5060208310610133831016604e8410600b84101617156108b0575081810a610280565b6108bd60001984846107f2565b80600019048211156108d1576108d16107dc565b029392505050565b600061067b60ff841683610835565b8082028115828204841417610280576102806107dc565b602081526000825180602084015260005b8181101561092d5760208186018101516040868401015201610910565b506000604082850101526040601f19601f83011684010191505092915050565b805160208083015191908110156106cc5760001960209190910360031b1b16919050565b60006020828403121561098357600080fd5b8151801515811461067b57600080fd5b80820180821115610280576102806107dc565b60805160a05160c05160e05161010051610120516101405161140a610a0060003960006109b70152600061098a0152600061087d01526000610855015260006107b0015260006107da01526000610804015261140a6000f3fe608060405234801561001057600080fd5b506004361061014d5760003560e01c8063715018a6116100c357806395d89b411161007c57806395d89b41146102cb578063a9059cbb146102d3578063c1d71cf5146102e6578063d505accf146102f9578063dd62ed3e1461030c578063f2fde38b1461034557600080fd5b8063715018a61461025e57806379cc6790146102665780637ecebe00146102795780638119c0651461028c57806384b0196e1461029f5780638da5cb5b146102ba57600080fd5b80633644e515116101155780633644e515146101c757806342966c68146101cf5780634cf088d9146101e457806361d027b31461020f5780636e80837a1461022257806370a082311461023557600080fd5b806306fdde0314610152578063095ea7b31461017057806318160ddd1461019357806323b872dd146101a5578063313ce567146101b8575b600080fd5b61015a610358565b60405161016791906110ef565b60405180910390f35b61018361017e366004611125565b6103ea565b6040519015158152602001610167565b6002545b604051908152602001610167565b6101836101b336600461114f565b610404565b60405160098152602001610167565b610197610428565b6101e26101dd36600461118c565b610437565b005b6009546101f7906001600160a01b031681565b6040516001600160a01b039091168152602001610167565b600c546101f7906001600160a01b031681565b6101e26102303660046111a5565b610444565b6101976102433660046111e8565b6001600160a01b031660009081526020819052604090205490565b6101e261048b565b6101e2610274366004611125565b61049f565b6101976102873660046111e8565b6104b8565b600a546101f7906001600160a01b031681565b6102a76104d6565b6040516101679796959493929190611203565b6008546001600160a01b03166101f7565b61015a61051c565b6101836102e1366004611125565b61052b565b600b546101f7906001600160a01b031681565b6101e261030736600461129b565b610539565b61019761031a36600461130e565b6001600160a01b03918216600090815260016020908152604080832093909416825291909152205490565b6101e26103533660046111e8565b610678565b60606003805461036790611341565b80601f016020809104026020016040519081016040528092919081815260200182805461039390611341565b80156103e05780601f106103b5576101008083540402835291602001916103e0565b820191906000526020600020905b8154815290600101906020018083116103c357829003601f168201915b5050505050905090565b6000336103f88185856106b3565b60019150505b92915050565b6000336104128582856106c5565b61041d858585610744565b506001949350505050565b60006104326107a3565b905090565b61044133826108ce565b50565b61044c610904565b600980546001600160a01b039485166001600160a01b031991821617909155600a805493851693821693909317909255600b8054919093169116179055565b610493610904565b61049d6000610931565b565b6104aa8233836106c5565b6104b482826108ce565b5050565b6001600160a01b0381166000908152600760205260408120546103fe565b6000606080600080600060606104ea610983565b6104f26109b0565b60408051600080825260208201909252600f60f81b9b939a50919850469750309650945092509050565b60606004805461036790611341565b6000336103f8818585610744565b834211156105625760405163313c898160e11b8152600481018590526024015b60405180910390fd5b60007f6e71edae12b1b97f4d1f60370fef10105fa2faae0126114a169c64845d6126c98888886105af8c6001600160a01b0316600090815260076020526040902080546001810190915590565b6040805160208101969096526001600160a01b0394851690860152929091166060840152608083015260a082015260c0810186905260e001604051602081830303815290604052805190602001209050600061060a826109dd565b9050600061061a82878787610a0a565b9050896001600160a01b0316816001600160a01b031614610661576040516325c0072360e11b81526001600160a01b0380831660048301528b166024820152604401610559565b61066c8a8a8a6106b3565b50505050505050505050565b610680610904565b6001600160a01b0381166106aa57604051631e4fbdf760e01b815260006004820152602401610559565b61044181610931565b6106c08383836001610a38565b505050565b6001600160a01b0383811660009081526001602090815260408083209386168352929052205460001981101561073e578181101561072f57604051637dc7a0d960e11b81526001600160a01b03841660048201526024810182905260448101839052606401610559565b61073e84848484036000610a38565b50505050565b6001600160a01b03831661076e57604051634b637e8f60e11b815260006004820152602401610559565b6001600160a01b0382166107985760405163ec442f0560e01b815260006004820152602401610559565b6106c0838383610b0d565b6000306001600160a01b037f0000000000000000000000000000000000000000000000000000000000000000161480156107fc57507f000000000000000000000000000000000000000000000000000000000000000046145b1561082657507f000000000000000000000000000000000000000000000000000000000000000090565b610432604080517f8b73c3c69bb8fe3d512ecc4cf759cc79239f7b179b0ffacaa9a75d522b39400f60208201527f0000000000000000000000000000000000000000000000000000000000000000918101919091527f000000000000000000000000000000000000000000000000000000000000000060608201524660808201523060a082015260009060c00160405160208183030381529060405280519060200120905090565b6001600160a01b0382166108f857604051634b637e8f60e11b815260006004820152602401610559565b6104b482600083610b0d565b6008546001600160a01b0316331461049d5760405163118cdaa760e01b8152336004820152602401610559565b600880546001600160a01b038381166001600160a01b0319831681179093556040519116919082907f8be0079c531659141344cd1fd0a4f28419497f9722a3daafe3b4186f6b6457e090600090a35050565b60606104327f00000000000000000000000000000000000000000000000000000000000000006005610ce5565b60606104327f00000000000000000000000000000000000000000000000000000000000000006006610ce5565b60006103fe6109ea6107a3565b8360405161190160f01b8152600281019290925260228201526042902090565b600080600080610a1c88888888610d90565b925092509250610a2c8282610e5f565b50909695505050505050565b6001600160a01b038416610a625760405163e602df0560e01b815260006004820152602401610559565b6001600160a01b038316610a8c57604051634a1406b160e11b815260006004820152602401610559565b6001600160a01b038085166000908152600160209081526040808320938716835292905220829055801561073e57826001600160a01b0316846001600160a01b03167f8c5be1e5ebec7d5bd14f71427d1e84f3dd0314c0f7b2291e5b200ac8c7c3b92584604051610aff91815260200190565b60405180910390a350505050565b6001600160a01b038381161590831615811582610b28575080155b15610cd3576009546000906001600160a01b0387811691161480610b595750600a546001600160a01b038781169116145b80610b715750600c546001600160a01b038781169116145b6009549091506000906001600160a01b0387811691161480610ba05750600a546001600160a01b038781169116145b600b549091506000906001600160a01b031615610ca157600b54604051634722e45f60e01b81523360048201526001600160a01b0390911690634722e45f90602401602060405180830381865afa158015610bff573d6000803e3d6000fd5b505050506040513d601f19601f82011682018060405250810190610c23919061137b565b8015610c985750600b546040516377ad178960e01b81526001600160a01b038a81166004830152909116906377ad178990602401602060405180830381865afa158015610c74573d6000803e3d6000fd5b505050506040513d601f19601f82011682018060405250810190610c98919061137b565b15610ca1575060015b8280610caa5750815b80610cb25750805b610ccf57604051638574adcf60e01b815260040160405180910390fd5b5050505b610cde858585610f18565b5050505050565b606060ff8314610cff57610cf883611042565b90506103fe565b818054610d0b90611341565b80601f0160208091040260200160405190810160405280929190818152602001828054610d3790611341565b8015610d845780601f10610d5957610100808354040283529160200191610d84565b820191906000526020600020905b815481529060010190602001808311610d6757829003601f168201915b505050505090506103fe565b600080807f7fffffffffffffffffffffffffffffff5d576e7357a4501ddfe92f46681b20a0841115610dcb5750600091506003905082610e55565b604080516000808252602082018084528a905260ff891692820192909252606081018790526080810186905260019060a0016020604051602081039080840390855afa158015610e1f573d6000803e3d6000fd5b5050604051601f1901519150506001600160a01b038116610e4b57506000925060019150829050610e55565b9250600091508190505b9450945094915050565b6000826003811115610e7357610e7361139d565b03610e7c575050565b6001826003811115610e9057610e9061139d565b03610eae5760405163f645eedf60e01b815260040160405180910390fd5b6002826003811115610ec257610ec261139d565b03610ee35760405163fce698f760e01b815260048101829052602401610559565b6003826003811115610ef757610ef761139d565b036104b4576040516335e2f38360e21b815260048101829052602401610559565b6001600160a01b038316610f43578060026000828254610f3891906113b3565b90915550610fb59050565b6001600160a01b03831660009081526020819052604090205481811015610f965760405163391434e360e21b81526001600160a01b03851660048201526024810182905260448101839052606401610559565b6001600160a01b03841660009081526020819052604090209082900390555b6001600160a01b038216610fd157600280548290039055610ff0565b6001600160a01b03821660009081526020819052604090208054820190555b816001600160a01b0316836001600160a01b03167fddf252ad1be2c89b69c2b068fc378daa952ba7f163c4a11628f55a4df523b3ef8360405161103591815260200190565b60405180910390a3505050565b6060600061104f83611081565b604080516020808252818301909252919250600091906020820181803683375050509182525060208101929092525090565b600060ff8216601f8111156103fe57604051632cd44ac360e21b815260040160405180910390fd5b6000815180845260005b818110156110cf576020818501810151868301820152016110b3565b506000602082860101526020601f19601f83011685010191505092915050565b60208152600061110260208301846110a9565b9392505050565b80356001600160a01b038116811461112057600080fd5b919050565b6000806040838503121561113857600080fd5b61114183611109565b946020939093013593505050565b60008060006060848603121561116457600080fd5b61116d84611109565b925061117b60208501611109565b929592945050506040919091013590565b60006020828403121561119e57600080fd5b5035919050565b6000806000606084860312156111ba57600080fd5b6111c384611109565b92506111d160208501611109565b91506111df60408501611109565b90509250925092565b6000602082840312156111fa57600080fd5b61110282611109565b60ff60f81b8816815260e06020820152600061122260e08301896110a9565b828103604084015261123481896110a9565b606084018890526001600160a01b038716608085015260a0840186905283810360c08501528451808252602080870193509091019060005b8181101561128a57835183526020938401939092019160010161126c565b50909b9a5050505050505050505050565b600080600080600080600060e0888a0312156112b657600080fd5b6112bf88611109565b96506112cd60208901611109565b95506040880135945060608801359350608088013560ff811681146112f157600080fd5b9699959850939692959460a0840135945060c09093013592915050565b6000806040838503121561132157600080fd5b61132a83611109565b915061133860208401611109565b90509250929050565b600181811c9082168061135557607f821691505b60208210810361137557634e487b7160e01b600052602260045260246000fd5b50919050565b60006020828403121561138d57600080fd5b8151801515811461110257600080fd5b634e487b7160e01b600052602160045260246000fd5b808201808211156103fe57634e487b7160e01b600052601160045260246000fdfea2646970667358221220140eb572cebb27bb3441fe59543c4beed0730f057ee1f835524ca0141ba5428f64736f6c634300081a0033",
  "linkReferences": {},
  "deployedLinkReferences": {}
}