{
  "_format": "hh3-artifact-1",
  "contractName": "SNRGToken",
  "sourceName": "contracts/SNRGtoken.sol",
  "abi": [
    {
      "inputs": [
        {
          "internalType": "address",
          "name": "_treasury",
          "type": "address"
        }
      ],
      "stateMutability": "nonpayable",
      "type": "constructor"
    },
    {
      "inputs": [],
      "name": "ECDSAInvalidSignature",
      "type": "error"
    },
    {
      "inputs": [
        {
          "internalType": "uint256",
          "name": "length",
          "type": "uint256"
        }
      ],
      "name": "ECDSAInvalidSignatureLength",
      "type": "error"
    },
    {
      "inputs": [
        {
          "internalType": "bytes32",
          "name": "s",
          "type": "bytes32"
        }
      ],
      "name": "ECDSAInvalidSignatureS",
      "type": "error"
    },
    {
      "inputs": [
        {
          "internalType": "address",
          "name": "spender",
          "type": "address"
        },
        {
          "internalType": "uint256",
          "name": "allowance",
          "type": "uint256"
        },
        {
          "internalType": "uint256",
          "name": "needed",
          "type": "uint256"
        }
      ],
      "name": "ERC20InsufficientAllowance",
      "type": "error"
    },
    {
      "inputs": [
        {
          "internalType": "address",
          "name": "sender",
          "type": "address"
        },
        {
          "internalType": "uint256",
          "name": "balance",
          "type": "uint256"
        },
        {
          "internalType": "uint256",
          "name": "needed",
          "type": "uint256"
        }
      ],
      "name": "ERC20InsufficientBalance",
      "type": "error"
    },
    {
      "inputs": [
        {
          "internalType": "address",
          "name": "approver",
          "type": "address"
        }
      ],
      "name": "ERC20InvalidApprover",
      "type": "error"
    },
    {
      "inputs": [
        {
          "internalType": "address",
          "name": "receiver",
          "type": "address"
        }
      ],
      "name": "ERC20InvalidReceiver",
      "type": "error"
    },
    {
      "inputs": [
        {
          "internalType": "address",
          "name": "sender",
          "type": "address"
        }
      ],
      "name": "ERC20InvalidSender",
      "type": "error"
    },
    {
      "inputs": [
        {
          "internalType": "address",
          "name": "spender",
          "type": "address"
        }
      ],
      "name": "ERC20InvalidSpender",
      "type": "error"
    },
    {
      "inputs": [
        {
          "internalType": "uint256",
          "name": "deadline",
          "type": "uint256"
        }
      ],
      "name": "ERC2612ExpiredSignature",
      "type": "error"
    },
    {
      "inputs": [
        {
          "internalType": "address",
          "name": "signer",
          "type": "address"
        },
        {
          "internalType": "address",
          "name": "owner",
          "type": "address"
        }
      ],
      "name": "ERC2612InvalidSigner",
      "type": "error"
    },
    {
      "inputs": [],
      "name": "EndpointsAlreadySet",
      "type": "error"
    },
    {
      "inputs": [
        {
          "internalType": "address",
          "name": "account",
          "type": "address"
        },
        {
          "internalType": "uint256",
          "name": "currentNonce",
          "type": "uint256"
        }
      ],
      "name": "InvalidAccountNonce",
      "type": "error"
    },
    {
      "inputs": [],
      "name": "InvalidEndpoint",
      "type": "error"
    },
    {
      "inputs": [],
      "name": "InvalidShortString",
      "type": "error"
    },
    {
      "inputs": [],
      "name": "NotAuthorized",
      "type": "error"
    },
    {
      "inputs": [
        {
          "internalType": "address",
          "name": "owner",
          "type": "address"
        }
      ],
      "name": "OwnableInvalidOwner",
      "type": "error"
    },
    {
      "inputs": [
        {
          "internalType": "address",
          "name": "account",
          "type": "address"
        }
      ],
      "name": "OwnableUnauthorizedAccount",
      "type": "error"
    },
    {
      "inputs": [
        {
          "internalType": "string",
          "name": "str",
          "type": "string"
        }
      ],
      "name": "StringTooLong",
      "type": "error"
    },
    {
      "inputs": [],
      "name": "TransfersDisabled",
      "type": "error"
    },
    {
      "inputs": [],
      "name": "ZeroAddress",
      "type": "error"
    },
    {
      "anonymous": false,
      "inputs": [
        {
          "indexed": true,
          "internalType": "address",
          "name": "owner",
          "type": "address"
        },
        {
          "indexed": true,
          "internalType": "address",
          "name": "spender",
          "type": "address"
        },
        {
          "indexed": false,
          "internalType": "uint256",
          "name": "value",
          "type": "uint256"
        }
      ],
      "name": "Approval",
      "type": "event"
    },
    {
      "anonymous": false,
      "inputs": [],
      "name": "EIP712DomainChanged",
      "type": "event"
    },
    {
      "anonymous": false,
      "inputs": [
        {
          "indexed": true,
          "internalType": "address",
          "name": "staking",
          "type": "address"
        },
        {
          "indexed": true,
          "internalType": "address",
          "name": "swap",
          "type": "address"
        },
        {
          "indexed": true,
          "internalType": "address",
          "name": "presale",
          "type": "address"
        },
        {
          "indexed": false,
          "internalType": "address",
          "name": "rescueRegistry",
          "type": "address"
        }
      ],
      "name": "EndpointsSet",
      "type": "event"
    },
    {
      "anonymous": false,
      "inputs": [
        {
          "indexed": true,
          "internalType": "address",
          "name": "previousOwner",
          "type": "address"
        },
        {
          "indexed": true,
          "internalType": "address",
          "name": "newOwner",
          "type": "address"
        }
      ],
      "name": "OwnershipTransferStarted",
      "type": "event"
    },
    {
      "anonymous": false,
      "inputs": [
        {
          "indexed": true,
          "internalType": "address",
          "name": "previousOwner",
          "type": "address"
        },
        {
          "indexed": true,
          "internalType": "address",
          "name": "newOwner",
          "type": "address"
        }
      ],
      "name": "OwnershipTransferred",
      "type": "event"
    },
    {
      "anonymous": false,
      "inputs": [
        {
          "indexed": true,
          "internalType": "address",
          "name": "from",
          "type": "address"
        },
        {
          "indexed": true,
          "internalType": "address",
          "name": "to",
          "type": "address"
        },
        {
          "indexed": false,
          "internalType": "uint256",
          "name": "value",
          "type": "uint256"
        }
      ],
      "name": "Transfer",
      "type": "event"
    },
    {
      "inputs": [],
      "name": "DOMAIN_SEPARATOR",
      "outputs": [
        {
          "internalType": "bytes32",
          "name": "",
          "type": "bytes32"
        }
      ],
      "stateMutability": "view",
      "type": "function"
    },
    {
      "inputs": [],
      "name": "TREASURY",
      "outputs": [
        {
          "internalType": "address",
          "name": "",
          "type": "address"
        }
      ],
      "stateMutability": "view",
      "type": "function"
    },
    {
      "inputs": [],
      "name": "acceptOwnership",
      "outputs": [],
      "stateMutability": "nonpayable",
      "type": "function"
    },
    {
      "inputs": [
        {
          "internalType": "address",
          "name": "owner",
          "type": "address"
        },
        {
          "internalType": "address",
          "name": "spender",
          "type": "address"
        }
      ],
      "name": "allowance",
      "outputs": [
        {
          "internalType": "uint256",
          "name": "",
          "type": "uint256"
        }
      ],
      "stateMutability": "view",
      "type": "function"
    },
    {
      "inputs": [
        {
          "internalType": "address",
          "name": "spender",
          "type": "address"
        },
        {
          "internalType": "uint256",
          "name": "value",
          "type": "uint256"
        }
      ],
      "name": "approve",
      "outputs": [
        {
          "internalType": "bool",
          "name": "",
          "type": "bool"
        }
      ],
      "stateMutability": "nonpayable",
      "type": "function"
    },
    {
      "inputs": [
        {
          "internalType": "address",
          "name": "account",
          "type": "address"
        }
      ],
      "name": "balanceOf",
      "outputs": [
        {
          "internalType": "uint256",
          "name": "",
          "type": "uint256"
        }
      ],
      "stateMutability": "view",
      "type": "function"
    },
    {
      "inputs": [
        {
          "internalType": "uint256",
          "name": "value",
          "type": "uint256"
        }
      ],
      "name": "burn",
      "outputs": [],
      "stateMutability": "nonpayable",
      "type": "function"
    },
    {
      "inputs": [
        {
          "internalType": "address",
          "name": "account",
          "type": "address"
        },
        {
          "internalType": "uint256",
          "name": "value",
          "type": "uint256"
        }
      ],
      "name": "burnFrom",
      "outputs": [],
      "stateMutability": "nonpayable",
      "type": "function"
    },
    {
      "inputs": [],
      "name": "decimals",
      "outputs": [
        {
          "internalType": "uint8",
          "name": "",
          "type": "uint8"
        }
      ],
      "stateMutability": "pure",
      "type": "function"
    },
    {
      "inputs": [],
      "name": "eip712Domain",
      "outputs": [
        {
          "internalType": "bytes1",
          "name": "fields",
          "type": "bytes1"
        },
        {
          "internalType": "string",
          "name": "name",
          "type": "string"
        },
        {
          "internalType": "string",
          "name": "version",
          "type": "string"
        },
        {
          "internalType": "uint256",
          "name": "chainId",
          "type": "uint256"
        },
        {
          "internalType": "address",
          "name": "verifyingContract",
          "type": "address"
        },
        {
          "internalType": "bytes32",
          "name": "salt",
          "type": "bytes32"
        },
        {
          "internalType": "uint256[]",
          "name": "extensions",
          "type": "uint256[]"
        }
      ],
      "stateMutability": "view",
      "type": "function"
    },
    {
      "inputs": [],
      "name": "name",
      "outputs": [
        {
          "internalType": "string",
          "name": "",
          "type": "string"
        }
      ],
      "stateMutability": "view",
      "type": "function"
    },
    {
      "inputs": [
        {
          "internalType": "address",
          "name": "owner",
          "type": "address"
        }
      ],
      "name": "nonces",
      "outputs": [
        {
          "internalType": "uint256",
          "name": "",
          "type": "uint256"
        }
      ],
      "stateMutability": "view",
      "type": "function"
    },
    {
      "inputs": [],
      "name": "owner",
      "outputs": [
        {
          "internalType": "address",
          "name": "",
          "type": "address"
        }
      ],
      "stateMutability": "view",
      "type": "function"
    },
    {
      "inputs": [],
      "name": "pendingOwner",
      "outputs": [
        {
          "internalType": "address",
          "name": "",
          "type": "address"
        }
      ],
      "stateMutability": "view",
      "type": "function"
    },
    {
      "inputs": [
        {
          "internalType": "address",
          "name": "owner",
          "type": "address"
        },
        {
          "internalType": "address",
          "name": "spender",
          "type": "address"
        },
        {
          "internalType": "uint256",
          "name": "value",
          "type": "uint256"
        },
        {
          "internalType": "uint256",
          "name": "deadline",
          "type": "uint256"
        },
        {
          "internalType": "uint8",
          "name": "v",
          "type": "uint8"
        },
        {
          "internalType": "bytes32",
          "name": "r",
          "type": "bytes32"
        },
        {
          "internalType": "bytes32",
          "name": "s",
          "type": "bytes32"
        }
      ],
      "name": "permit",
      "outputs": [],
      "stateMutability": "nonpayable",
      "type": "function"
    },
    {
      "inputs": [],
      "name": "presale",
      "outputs": [
        {
          "internalType": "address",
          "name": "",
          "type": "address"
        }
      ],
      "stateMutability": "view",
      "type": "function"
    },
    {
      "inputs": [],
      "name": "renounceOwnership",
      "outputs": [],
      "stateMutability": "nonpayable",
      "type": "function"
    },
    {
      "inputs": [],
      "name": "rescueRegistry",
      "outputs": [
        {
          "internalType": "contract IRescueRegistry",
          "name": "",
          "type": "address"
        }
      ],
      "stateMutability": "view",
      "type": "function"
    },
    {
      "inputs": [
        {
          "internalType": "address",
          "name": "stakingContract",
          "type": "address"
        },
        {
          "internalType": "address",
          "name": "swapContract",
          "type": "address"
        },
        {
          "internalType": "address",
          "name": "presaleContract",
          "type": "address"
        },
        {
          "internalType": "address",
          "name": "rescueRegistryContract",
          "type": "address"
        }
      ],
      "name": "setEndpoints",
      "outputs": [],
      "stateMutability": "nonpayable",
      "type": "function"
    },
    {
      "inputs": [],
      "name": "staking",
      "outputs": [
        {
          "internalType": "address",
          "name": "",
          "type": "address"
        }
      ],
      "stateMutability": "view",
      "type": "function"
    },
    {
      "inputs": [],
      "name": "swap",
      "outputs": [
        {
          "internalType": "address",
          "name": "",
          "type": "address"
        }
      ],
      "stateMutability": "view",
      "type": "function"
    },
    {
      "inputs": [],
      "name": "symbol",
      "outputs": [
        {
          "internalType": "string",
          "name": "",
          "type": "string"
        }
      ],
      "stateMutability": "view",
      "type": "function"
    },
    {
      "inputs": [],
      "name": "totalSupply",
      "outputs": [
        {
          "internalType": "uint256",
          "name": "",
          "type": "uint256"
        }
      ],
      "stateMutability": "view",
      "type": "function"
    },
    {
      "inputs": [
        {
          "internalType": "address",
          "name": "to",
          "type": "address"
        },
        {
          "internalType": "uint256",
          "name": "value",
          "type": "uint256"
        }
      ],
      "name": "transfer",
      "outputs": [
        {
          "internalType": "bool",
          "name": "",
          "type": "bool"
        }
      ],
      "stateMutability": "nonpayable",
      "type": "function"
    },
    {
      "inputs": [
        {
          "internalType": "address",
          "name": "from",
          "type": "address"
        },
        {
          "internalType": "address",
          "name": "to",
          "type": "address"
        },
        {
          "internalType": "uint256",
          "name": "value",
          "type": "uint256"
        }
      ],
      "name": "transferFrom",
      "outputs": [
        {
          "internalType": "bool",
          "name": "",
          "type": "bool"
        }
      ],
      "stateMutability": "nonpayable",
      "type": "function"
    },
    {
      "inputs": [
        {
          "internalType": "address",
          "name": "newOwner",
          "type": "address"
        }
      ],
      "name": "transferOwnership",
      "outputs": [],
      "stateMutability": "nonpayable",
      "type": "function"
    }
  ],
  "bytecode": "0x61018060405234801561001157600080fd5b5060405161226d38038061226d833981016040819052610030916106c3565b336040518060400160405280601481526020017f53796e657267792050726573616c6520436f696e00000000000000000000000081525080604051806040016040528060018152602001603160f81b8152506040518060400160405280601481526020017f53796e657267792050726573616c6520436f696e00000000000000000000000081525060405180604001604052806004815260200163534e524760e01b81525081600390816100e49190610791565b5060046100f18282610791565b506101019150839050600561023f565b6101205261011081600661023f565b61014052815160208084019190912060e052815190820120610100524660a05261019d60e05161010051604080517f8b73c3c69bb8fe3d512ecc4cf759cc79239f7b179b0ffacaa9a75d522b39400f60208201529081019290925260608201524660808201523060a082015260009060c00160405160208183030381529060405280519060200120905090565b60805250503060c052506001600160a01b0381166101d657604051631e4fbdf760e01b8152600060048201526024015b60405180910390fd5b6101df81610272565b506001600160a01b0381166102075760405163d92e233d60e01b815260040160405180910390fd5b6001600160a01b03811661016052610239816102256009600a61094c565b61023490640165a0bc0061095b565b61028e565b50610a19565b600060208351101561025b57610254836102c8565b905061026c565b816102668482610791565b5060ff90505b92915050565b600980546001600160a01b031916905561028b81610306565b50565b6001600160a01b0382166102b85760405163ec442f0560e01b8152600060048201526024016101cd565b6102c460008383610358565b5050565b600080829050601f815111156102f3578260405163305a27a960e01b81526004016101cd9190610972565b80516102fe826109c0565b179392505050565b600880546001600160a01b038381166001600160a01b0319831681179093556040519116919082907f8be0079c531659141344cd1fd0a4f28419497f9722a3daafe3b4186f6b6457e090600090a35050565b6001600160a01b038316158061037557506001600160a01b038216155b1561038a57610385838383610599565b505050565b600a546000906001600160a01b03848116911614806103b65750600b546001600160a01b038481169116145b806103ce5750600c546001600160a01b038481169116145b600a549091506000906001600160a01b03868116911614806103fd5750600b546001600160a01b038681169116145b90506000610160516001600160a01b0316866001600160a01b03161480156104225750825b600c549091506000906001600160a01b0316331480156104565750610160516001600160a01b0316876001600160a01b0316145b600d549091506000906001600160a01b0316801561054557604051634722e45f60e01b81523360048201526001600160a01b03821690634722e45f90602401602060405180830381865afa9250505080156104ce575060408051601f3d908101601f191682019092526104cb918101906109e4565b60015b15610545578015610543576040516377ad178960e01b81526001600160a01b038b811660048301528316906377ad178990602401602060405180830381865afa92505050801561053b575060408051601f3d908101601f19168201909252610538918101906109e4565b60015b156105435792505b505b838061054e5750845b806105565750855b8061055e5750825b806105665750815b61058357604051638574adcf60e01b815260040160405180910390fd5b61058e898989610599565b505050505050505050565b6001600160a01b0383166105c45780600260008282546105b99190610a06565b909155506106369050565b6001600160a01b038316600090815260208190526040902054818110156106175760405163391434e360e21b81526001600160a01b038516600482015260248101829052604481018390526064016101cd565b6001600160a01b03841660009081526020819052604090209082900390555b6001600160a01b03821661065257600280548290039055610671565b6001600160a01b03821660009081526020819052604090208054820190555b816001600160a01b0316836001600160a01b03167fddf252ad1be2c89b69c2b068fc378daa952ba7f163c4a11628f55a4df523b3ef836040516106b691815260200190565b60405180910390a3505050565b6000602082840312156106d557600080fd5b81516001600160a01b03811681146106ec57600080fd5b9392505050565b634e487b7160e01b600052604160045260246000fd5b600181811c9082168061071d57607f821691505b60208210810361073d57634e487b7160e01b600052602260045260246000fd5b50919050565b601f82111561038557806000526020600020601f840160051c8101602085101561076a5750805b601f840160051c820191505b8181101561078a5760008155600101610776565b5050505050565b81516001600160401b038111156107aa576107aa6106f3565b6107be816107b88454610709565b84610743565b6020601f8211600181146107f257600083156107da5750848201515b600019600385901b1c1916600184901b17845561078a565b600084815260208120601f198516915b828110156108225787850151825560209485019460019092019101610802565b50848210156108405786840151600019600387901b60f8161c191681555b50505050600190811b01905550565b634e487b7160e01b600052601160045260246000fd5b6001815b60018411156108a0578085048111156108845761088461084f565b600184161561089257908102905b60019390931c928002610869565b935093915050565b6000826108b75750600161026c565b816108c45750600061026c565b81600181146108da57600281146108e457610900565b600191505061026c565b60ff8411156108f5576108f561084f565b50506001821b61026c565b5060208310610133831016604e8410600b8410161715610923575081810a61026c565b6109306000198484610865565b80600019048211156109445761094461084f565b029392505050565b60006106ec60ff8416836108a8565b808202811582820484141761026c5761026c61084f565b602081526000825180602084015260005b818110156109a05760208186018101516040868401015201610983565b506000604082850101526040601f19601f83011684010191505092915050565b8051602080830151919081101561073d5760001960209190910360031b1b16919050565b6000602082840312156109f657600080fd5b815180151581146106ec57600080fd5b8082018082111561026c5761026c61084f565b60805160a05160c05160e051610100516101205161014051610160516117c5610aa8600039600081816101fe01528181610787015281816107c2015281816107fe0152818161083a01528181610e6d0152610ec601526000610c7101526000610c4401526000610b7001526000610b4801526000610aa301526000610acd01526000610af701526117c56000f3fe608060405234801561001057600080fd5b506004361061018e5760003560e01c80637ecebe00116100de578063c1d71cf511610097578063e30c397811610071578063e30c39781461038f578063e9a82b89146103a0578063f2fde38b146103b3578063fdea8e0b146103c657600080fd5b8063c1d71cf514610330578063d505accf14610343578063dd62ed3e1461035657600080fd5b80637ecebe00146102c35780638119c065146102d657806384b0196e146102e95780638da5cb5b1461030457806395d89b4114610315578063a9059cbb1461031d57600080fd5b80633644e5151161014b57806370a082311161012557806370a0823114610277578063715018a6146102a057806379ba5097146102a857806379cc6790146102b057600080fd5b80633644e5151461024757806342966c681461024f5780634cf088d91461026457600080fd5b806306fdde0314610193578063095ea7b3146101b157806318160ddd146101d457806323b872dd146101e65780632d2c5565146101f9578063313ce56714610238575b600080fd5b61019b6103d9565b6040516101a89190611499565b60405180910390f35b6101c46101bf3660046114cf565b61046b565b60405190151581526020016101a8565b6002545b6040519081526020016101a8565b6101c46101f43660046114f9565b610485565b6102207f000000000000000000000000000000000000000000000000000000000000000081565b6040516001600160a01b0390911681526020016101a8565b604051600981526020016101a8565b6101d86104a9565b61026261025d366004611536565b6104b8565b005b600a54610220906001600160a01b031681565b6101d861028536600461154f565b6001600160a01b031660009081526020819052604090205490565b6102626104c5565b6102626104d9565b6102626102be3660046114cf565b61051f565b6101d86102d136600461154f565b610538565b600b54610220906001600160a01b031681565b6102f1610556565b6040516101a8979695949392919061156a565b6008546001600160a01b0316610220565b61019b61059c565b6101c461032b3660046114cf565b6105ab565b600d54610220906001600160a01b031681565b610262610351366004611602565b6105b9565b6101d8610364366004611675565b6001600160a01b03918216600090815260016020908152604080832093909416825291909152205490565b6009546001600160a01b0316610220565b6102626103ae3660046116a8565b6106f3565b6102626103c136600461154f565b610935565b600c54610220906001600160a01b031681565b6060600380546103e8906116fc565b80601f0160208091040260200160405190810160405280929190818152602001828054610414906116fc565b80156104615780601f1061043657610100808354040283529160200191610461565b820191906000526020600020905b81548152906001019060200180831161044457829003601f168201915b5050505050905090565b6000336104798185856109a6565b60019150505b92915050565b6000336104938582856109b8565b61049e858585610a37565b506001949350505050565b60006104b3610a96565b905090565b6104c23382610bc1565b50565b6104cd610bf7565b6104d76000610c24565b565b60095433906001600160a01b031681146105165760405163118cdaa760e01b81526001600160a01b03821660048201526024015b60405180910390fd5b6104c281610c24565b61052a8233836109b8565b6105348282610bc1565b5050565b6001600160a01b03811660009081526007602052604081205461047f565b60006060806000806000606061056a610c3d565b610572610c6a565b60408051600080825260208201909252600f60f81b9b939a50919850469750309650945092509050565b6060600480546103e8906116fc565b600033610479818585610a37565b834211156105dd5760405163313c898160e11b81526004810185905260240161050d565b60007f6e71edae12b1b97f4d1f60370fef10105fa2faae0126114a169c64845d6126c988888861062a8c6001600160a01b0316600090815260076020526040902080546001810190915590565b6040805160208101969096526001600160a01b0394851690860152929091166060840152608083015260a082015260c0810186905260e001604051602081830303815290604052805190602001209050600061068582610c97565b9050600061069582878787610cc4565b9050896001600160a01b0316816001600160a01b0316146106dc576040516325c0072360e11b81526001600160a01b0380831660048301528b16602482015260440161050d565b6106e78a8a8a6109a6565b50505050505050505050565b6106fb610bf7565b600d54600160a01b900460ff161561072657604051631c8fb54360e31b815260040160405180910390fd5b6001600160a01b038416158061074357506001600160a01b038316155b8061075557506001600160a01b038216155b8061076757506001600160a01b038116155b156107855760405163d92e233d60e01b815260040160405180910390fd5b7f00000000000000000000000000000000000000000000000000000000000000006001600160a01b0316846001600160a01b031614806107f657507f00000000000000000000000000000000000000000000000000000000000000006001600160a01b0316836001600160a01b0316145b8061083257507f00000000000000000000000000000000000000000000000000000000000000006001600160a01b0316826001600160a01b0316145b8061086e57507f00000000000000000000000000000000000000000000000000000000000000006001600160a01b0316816001600160a01b0316145b1561088c5760405163f1cbb56760e01b815260040160405180910390fd5b600d8054600a80546001600160a01b038089166001600160a01b03199283168117909355600b80548983169084168117909155600c80548984169416841790559086166001600160a81b031990941693909317600160a01b179093556040517f21cfe37d286ac7a1966a333f1cbcee454a2a206fb079ad6359f872d0cb0f6f21906109279086906001600160a01b0391909116815260200190565b60405180910390a450505050565b61093d610bf7565b600980546001600160a01b0383166001600160a01b0319909116811790915561096e6008546001600160a01b031690565b6001600160a01b03167f38d16b8cac22d99fc7c124b9cd0de2d3fa1faef420bfe791d8c362d765e2270060405160405180910390a350565b6109b38383836001610cf2565b505050565b6001600160a01b03838116600090815260016020908152604080832093861683529290522054600019811015610a315781811015610a2257604051637dc7a0d960e11b81526001600160a01b0384166004820152602481018290526044810183905260640161050d565b610a3184848484036000610cf2565b50505050565b6001600160a01b038316610a6157604051634b637e8f60e11b81526000600482015260240161050d565b6001600160a01b038216610a8b5760405163ec442f0560e01b81526000600482015260240161050d565b6109b3838383610dc7565b6000306001600160a01b037f000000000000000000000000000000000000000000000000000000000000000016148015610aef57507f000000000000000000000000000000000000000000000000000000000000000046145b15610b1957507f000000000000000000000000000000000000000000000000000000000000000090565b6104b3604080517f8b73c3c69bb8fe3d512ecc4cf759cc79239f7b179b0ffacaa9a75d522b39400f60208201527f0000000000000000000000000000000000000000000000000000000000000000918101919091527f000000000000000000000000000000000000000000000000000000000000000060608201524660808201523060a082015260009060c00160405160208183030381529060405280519060200120905090565b6001600160a01b038216610beb57604051634b637e8f60e11b81526000600482015260240161050d565b61053482600083610dc7565b6008546001600160a01b031633146104d75760405163118cdaa760e01b815233600482015260240161050d565b600980546001600160a01b03191690556104c28161103d565b60606104b37f0000000000000000000000000000000000000000000000000000000000000000600561108f565b60606104b37f0000000000000000000000000000000000000000000000000000000000000000600661108f565b600061047f610ca4610a96565b8360405161190160f01b8152600281019290925260228201526042902090565b600080600080610cd68888888861113a565b925092509250610ce68282611209565b50909695505050505050565b6001600160a01b038416610d1c5760405163e602df0560e01b81526000600482015260240161050d565b6001600160a01b038316610d4657604051634a1406b160e11b81526000600482015260240161050d565b6001600160a01b0380851660009081526001602090815260408083209387168352929052208290558015610a3157826001600160a01b0316846001600160a01b03167f8c5be1e5ebec7d5bd14f71427d1e84f3dd0314c0f7b2291e5b200ac8c7c3b92584604051610db991815260200190565b60405180910390a350505050565b6001600160a01b0383161580610de457506001600160a01b038216155b15610df4576109b38383836112c2565b600a546000906001600160a01b0384811691161480610e205750600b546001600160a01b038481169116145b80610e385750600c546001600160a01b038481169116145b600a549091506000906001600160a01b0386811691161480610e675750600b546001600160a01b038681169116145b905060007f00000000000000000000000000000000000000000000000000000000000000006001600160a01b0316866001600160a01b0316148015610ea95750825b600c549091506000906001600160a01b031633148015610efa57507f00000000000000000000000000000000000000000000000000000000000000006001600160a01b0316876001600160a01b0316145b600d549091506000906001600160a01b03168015610fe957604051634722e45f60e01b81523360048201526001600160a01b03821690634722e45f90602401602060405180830381865afa925050508015610f72575060408051601f3d908101601f19168201909252610f6f91810190611736565b60015b15610fe9578015610fe7576040516377ad178960e01b81526001600160a01b038b811660048301528316906377ad178990602401602060405180830381865afa925050508015610fdf575060408051601f3d908101601f19168201909252610fdc91810190611736565b60015b15610fe75792505b505b8380610ff25750845b80610ffa5750855b806110025750825b8061100a5750815b61102757604051638574adcf60e01b815260040160405180910390fd5b6110328989896112c2565b505050505050505050565b600880546001600160a01b038381166001600160a01b0319831681179093556040519116919082907f8be0079c531659141344cd1fd0a4f28419497f9722a3daafe3b4186f6b6457e090600090a35050565b606060ff83146110a9576110a2836113ec565b905061047f565b8180546110b5906116fc565b80601f01602080910402602001604051908101604052809291908181526020018280546110e1906116fc565b801561112e5780601f106111035761010080835404028352916020019161112e565b820191906000526020600020905b81548152906001019060200180831161111157829003601f168201915b5050505050905061047f565b600080807f7fffffffffffffffffffffffffffffff5d576e7357a4501ddfe92f46681b20a084111561117557506000915060039050826111ff565b604080516000808252602082018084528a905260ff891692820192909252606081018790526080810186905260019060a0016020604051602081039080840390855afa1580156111c9573d6000803e3d6000fd5b5050604051601f1901519150506001600160a01b0381166111f5575060009250600191508290506111ff565b9250600091508190505b9450945094915050565b600082600381111561121d5761121d611758565b03611226575050565b600182600381111561123a5761123a611758565b036112585760405163f645eedf60e01b815260040160405180910390fd5b600282600381111561126c5761126c611758565b0361128d5760405163fce698f760e01b81526004810182905260240161050d565b60038260038111156112a1576112a1611758565b03610534576040516335e2f38360e21b81526004810182905260240161050d565b6001600160a01b0383166112ed5780600260008282546112e2919061176e565b9091555061135f9050565b6001600160a01b038316600090815260208190526040902054818110156113405760405163391434e360e21b81526001600160a01b0385166004820152602481018290526044810183905260640161050d565b6001600160a01b03841660009081526020819052604090209082900390555b6001600160a01b03821661137b5760028054829003905561139a565b6001600160a01b03821660009081526020819052604090208054820190555b816001600160a01b0316836001600160a01b03167fddf252ad1be2c89b69c2b068fc378daa952ba7f163c4a11628f55a4df523b3ef836040516113df91815260200190565b60405180910390a3505050565b606060006113f98361142b565b604080516020808252818301909252919250600091906020820181803683375050509182525060208101929092525090565b600060ff8216601f81111561047f57604051632cd44ac360e21b815260040160405180910390fd5b6000815180845260005b818110156114795760208185018101518683018201520161145d565b506000602082860101526020601f19601f83011685010191505092915050565b6020815260006114ac6020830184611453565b9392505050565b80356001600160a01b03811681146114ca57600080fd5b919050565b600080604083850312156114e257600080fd5b6114eb836114b3565b946020939093013593505050565b60008060006060848603121561150e57600080fd5b611517846114b3565b9250611525602085016114b3565b929592945050506040919091013590565b60006020828403121561154857600080fd5b5035919050565b60006020828403121561156157600080fd5b6114ac826114b3565b60ff60f81b8816815260e06020820152600061158960e0830189611453565b828103604084015261159b8189611453565b606084018890526001600160a01b038716608085015260a0840186905283810360c08501528451808252602080870193509091019060005b818110156115f15783518352602093840193909201916001016115d3565b50909b9a5050505050505050505050565b600080600080600080600060e0888a03121561161d57600080fd5b611626886114b3565b9650611634602089016114b3565b95506040880135945060608801359350608088013560ff8116811461165857600080fd5b9699959850939692959460a0840135945060c09093013592915050565b6000806040838503121561168857600080fd5b611691836114b3565b915061169f602084016114b3565b90509250929050565b600080600080608085870312156116be57600080fd5b6116c7856114b3565b93506116d5602086016114b3565b92506116e3604086016114b3565b91506116f1606086016114b3565b905092959194509250565b600181811c9082168061171057607f821691505b60208210810361173057634e487b7160e01b600052602260045260246000fd5b50919050565b60006020828403121561174857600080fd5b815180151581146114ac57600080fd5b634e487b7160e01b600052602160045260246000fd5b8082018082111561047f57634e487b7160e01b600052601160045260246000fdfea26469706673582212207c7333b435fc74f6a23dddbbfc7675e55625bb8cb7f35cf24fca5d4922eb6ae764736f6c634300081e0033",
  "linkReferences": {},
  "deployedLinkReferences": {},
  "immutableReferences": {
    "5364": [
      {
        "length": 32,
        "start": 2807
      }
    ],
    "5366": [
      {
        "length": 32,
        "start": 2765
      }
    ],
    "5368": [
      {
        "length": 32,
        "start": 2723
      }
    ],
    "5370": [
      {
        "length": 32,
        "start": 2888
      }
    ],
    "5372": [
      {
        "length": 32,
        "start": 2928
      }
    ],
    "5375": [
      {
        "length": 32,
        "start": 3140
      }
    ],
    "5378": [
      {
        "length": 32,
        "start": 3185
      }
    ],
    "9392": [
      {
        "length": 32,
        "start": 510
      },
      {
        "length": 32,
        "start": 1927
      },
      {
        "length": 32,
        "start": 1986
      },
      {
        "length": 32,
        "start": 2046
      },
      {
        "length": 32,
        "start": 2106
      },
      {
        "length": 32,
        "start": 3693
      },
      {
        "length": 32,
        "start": 3782
      }
    ]
  },
  "inputSourceName": "project/contracts/SNRGtoken.sol",
  "buildInfoId": "solc-0_8_30-bfefd89dd182a38b33fb4422879e955ac8daa109"
}